:100000000C9467010C948F010C948F010C948F0158
:100010000C948F010C948F010C948F010C948F0120
:100020000C948F010C948F010C945A070C942E069B
:100030000C948F010C948F010C948F010C948F0100
:100040000C948F010C948F010C948F010C948F01F0
:100050000C948F010C948F010C948F010C94590314
:100060000C948F010C948F010C948F010C948F01D0
:100070000C948F010C948F010C948F010C948F01C0
:100080000C948F010C948F010C948F010C948F01B0
:100090000C948F010C948F010C948F010C948F01A0
:1000A0000C948F010C948F010C948F0100000002BE
:1000B00000080E0000030401000B00000408020108
:1000C00010408040102040804080080204018040A1
:1000D0002010020110801020404004040404040396
:1000E00004050202020204030202020206060606D8
:1000F0000606040402020204000000002300260099
:1001000029002C002F0000000000250028002B00F3
:100110002E00310000000000240027002A002D00DE
:10012000300000C18081C112010002020000404184
:1001300023368000010102000112010002000000CC
:100140004041233680000101020001180341007282
:10015000006400750069006E006F0020004C004CC8
:100160000043002203410072006400750069006EC4
:10017000006F0020004C0065006F006E006100728F
:100180000064006F0004030904080B00020202016E
:10019000000904000001020200000524001001050E
:1001A000240101010424020605240600010705813B
:1001B0000310004009040100020A000000070502C4
:1001C000024000000705830240000000000000001C
:1001D0000000002A2B2800000000000000000000A2
:1001E00000000000000000000000002C9EB4A0A150
:1001F000A2A434A6A7A5AE362D3738271E1F20216E
:100200002223242526B333B62EB7B89F848586874C
:1002100088898A8B8C8D8E8F9091929394959697E6
:1002200098999A9B9C9D2F3130A3AD350405060704
:1002300008090A0B0C0D0E0F1011121314151617C6
:1002400018191A1B1C1DAFB1B0B50009040200013A
:100250000300000009210101000122650007058457
:100260000340000105010902A1010901A100850166
:10027000050919012903150025019503750181025E
:10028000950175058103050109300931093815818A
:10029000257F750895038106C0C005010906A101E7
:1002A0008502050719E029E7150025017501950864
:1002B000810295017508810395067508150025656D
:1002C0000507190029658100C000CC081A0A11240D
:1002D0001FBECFEFDAE0DEBFCDBF11E0A0E0B1E09E
:1002E000EEEAF4E102C005900D92A833B107D9F708
:1002F00011E0A8E3B1E001C01D92AD3AB107E1F70A
:1003000012E0CEECD2E004C02297FE010E94510A16
:10031000CA3CD107C9F70E9465040C94550A0C9495
:100320000000CF93DF9360E0809108010E94F90202
:1003300061E080910A010E94F90260ED77E080E0BF
:1003400090E00E94DF0360E080910A010E94F902C0
:1003500061E080910C010E94F90268EE73E080E098
:1003600090E00E94DF0360E0809106010E94F902A4
:1003700061E0809104010E94F90260910001709196
:100380000101882777FD8095982F0E94DF03CAE03E
:10039000D0E061E0809104010E94F9026AEF70E010
:1003A00080E090E00E94DF0360E0809104010E9401
:1003B000F9026AEF70E080E090E00E94DF0321978D
:1003C00041F761E0809106010E94F90264EF71E05B
:1003D00080E090E00E94DF0361E080910A010E94CA
:1003E000F90260E080910C010E94F90268EE73E06E
:1003F00080E090E00E94DF0361E0809108010E94AC
:10040000F90260E080910A010E94F9020E94A303B0
:10041000609338017093390180933A0190933B01C6
:10042000DF91CF9108950F931F93CF93DF9361E0F6
:1004300080910C010E94C10261E080910A010E943A
:10044000C10208E011E061E0F80180810E94C10270
:10045000C6E0D1E061E088810E94C10261E0809144
:1004600004010E94C10260E0809102010E94C10269
:1004700061E0F80180810E94F90261E08881DF91EA
:10048000CF911F910F910C94F9020F931F938091BC
:1004900002010E9430030197B9F40E94A303009166
:1004A00038011091390120913A0130913B01601BD4
:1004B000710B820B930B693873418105910520F014
:1004C0001F910F910C9491011F910F910895873006
:1004D000A1F178F48330E1F030F4813019F1823009
:1004E00009F04EC022C08430B9F0863009F048C00F
:1004F00020C08A3081F130F4883029F1893009F048
:100500003FC025C08C3089F160F18E30C9F533C011
:10051000809180008F7703C0809180008F7D8093D1
:100520008000089584B58F7702C084B58F7D84BD27
:1005300008958091B0008F7703C08091B0008F7DC7
:100540008093B0000895809190008F7707C08091CC
:1005500090008F7D03C080919000877F80939000F2
:1005600008958091C0008F7703C08091C0008F7D77
:100570008093C00008958091C200877F8093C2005D
:100580000895CF93DF9390E0FC01E454FF4F449132
:10059000FC01E652FF4F8491882341F190E0880FDF
:1005A000991FFC01EC5EFE4F25913491D9018A5FC1
:1005B0009E4FFC0185919491C82FD92F9FB7F89435
:1005C0008C91611106C0409584238C93888184238B
:1005D00008C0623041F4242F209582238C938881B7
:1005E000842B888302C0842B8C939FBFDF91CF9193
:1005F00008950F931F93CF93DF931F92CDB7DEB76C
:10060000282F30E0F901E455FF4F8491F901E454BB
:10061000FF4F1491F901E652FF4F04910023D1F0EE
:10062000882321F069830E9467026981E02FF0E04E
:10063000EE0FFF1FEA5FFE4F85919491DC019FB79B
:10064000F8948C91611103C01095812301C0812B16
:100650008C939FBF0F90DF91CF911F910F910895C1
:10066000CF93DF93282F30E0F901E455FF4F8491B9
:10067000F901E454FF4FD491F901E652FF4FC491C0
:10068000CC2389F081110E946702EC2FF0E0EE0F7D
:10069000FF1FE850FF4F85919491DC018C918D23D1
:1006A00021E030E011F420E030E0C901DF91CF918A
:1006B00008951F920F920FB60F9211242F933F931C
:1006C0008F939F93AF93BF9380913C0190913D0195
:1006D000A0913E01B0913F0130914401232F2D5F45
:1006E0002D3720F40196A11DB11D05C0232F2A57D7
:1006F0000296A11DB11D2093440180933C0190936B
:100700003D01A0933E01B0933F0180914001909143
:100710004101A0914201B09143010196A11DB11D7B
:100720008093400190934101A0934201B093430113
:10073000BF91AF919F918F913F912F910F900FBEDD
:100740000F901F9018950F931F938FB7F8940091F7
:100750003C0110913D0120913E0130913F018FBF3E
:10076000B801C9011F910F9108950F931F939FB76F
:10077000F894009140011091410120914201309183
:10078000430186B5A89B06C08F3F21F00F5F1F4F26
:100790002F4F3F4F9FBF322F212F102F0027080FC1
:1007A000111D211D311D42E0000F111F221F331F9B
:1007B0004A95D1F7B801C9011F910F910895CF92C1
:1007C000DF92EF92FF92CF93DF936B017C010E9447
:1007D000B503EB010EC00E94B5036C1B7D0B683E98
:1007E000734038F081E0C81AD108E108F108C85117
:1007F000DC4FC114D104E104F10469F7DF91CF911A
:10080000FF90EF90DF90CF900895789484B5826048
:1008100084BD84B5816084BD85B5826085BD85B5A4
:10082000816085BDEEE6F0E0808181608083E1E853
:10083000F0E010828081826080838081816080838B
:10084000E0E8F0E0808181608083E1EBF0E080818E
:1008500084608083E0EBF0E0808181608083E1E967
:10086000F0E0808182608083808181608083E0E924
:10087000F0E0808181608083E1ECF0E08081846041
:100880008083808182608083808181608083E3ECCB
:10089000F0E0808181608083E0ECF0E08081826024
:1008A0008083E2ECF0E0808181608083EAE7F0E021
:1008B0008081846080838081826080838081816088
:1008C000808380818068808308950E94050485E488
:1008D00091E00E94BA070E941302C0E0D0E00E949B
:1008E00045022097E1F30E940000F9CF05C0209156
:1008F000F100FC012193CF016150C8F7289884E6EC
:1009000080934C0108952FB7FC012083F894677001
:100910006093E9000895CF93DF931F92CDB7DEB7C0
:10092000682FCE0101960E9483048091F200998184
:100930009FBF0F90DF91CF910895FF920F931F9368
:10094000CF93DF9300D0CDB7DEB7F62E8A0190911A
:100950004B019923A9F057FF16C012C02898809325
:100960004C019091F1009193FE12F8CF4115510581
:1009700021F08091F2008823D1F089818FBF1BC0C4
:100980004FEF5FEF18C0682FCE0101967A830E9467
:1009900083048091F20090E0A8017A81801791078A
:1009A0000CF4AC01EF2DF72FF40E84E6DDCF8BE6CF
:1009B0008093E800E2CFCA010F900F90DF91CF91B2
:1009C0001F910F91FF900895CF93DF931F92CDB7A2
:1009D000DEB741E050E0BE016F5F7F4F0E949D0493
:1009E000019719F4298130E002C02FEF3FEFC901D0
:1009F0000F90DF91CF910895CF93DF931F92CDB7E2
:100A0000DEB7682FCE0101960E9483048091E80032
:100A100085FF05C09091F20080E4891B01C080E051
:100A200099819FBF0F90DF91CF9108956F927F9230
:100A30008F929F92AF92BF92CF92DF92EF92FF92EE
:100A40000F931F93CF93DF931F92CDB7DEB7C82EBE
:100A5000A42E952E80914B0181114CC02FEF3FEFBA
:100A600064C08C2D0E94FC04D82E811109C0BA9458
:100A7000A9F361E070E080E090E00E94DF0347C0EE
:100A8000282F30E0021713070CF4D02E0D1911098E
:100A90006C2DCE0101960E948304772041F002C0A4
:100AA0001092F100DA948FEFD812FACF17C08D2D83
:100AB000C7FC02C0F7010EC0970106C0F9012F5F05
:100AC0003F4FE491E093F1008150C0F705C0919150
:100AD0009093F1008150D8F7ED0CF11C8091E80063
:100AE00085FF20C00115110511F461101BC089811B
:100AF0008FBF0DC07B01042F152F8AEFB82E90E217
:100B0000792E7C202AE3822E30E4632E6C2001159E
:100B1000110509F0A6CF5D9884E680934D012A2D3A
:100B2000392D03C08092E800E2CFC9010F90DF9118
:100B3000CF911F910F91FF90EF90DF90CF90BF90DA
:100B4000AF909F908F907F906F9008951092E900E2
:100B500010924A01109249019093480180934701F5
:100B60000895FF920F931F93CF93DF939A01DB01B8
:100B700060E070E0EEEFFE2E35C0ED01219687FFBC
:100B800004C0FD01DE01E49102C0EC91DE010091A0
:100B9000490110914A01C0914701D09148010C17B9
:100BA0001D07ACF49091E8009570E1F39091E80096
:100BB00092FD1DC0E093F100E0914901F0914A01DE
:100BC0003196EF73FF27EF2B11F4F092E800E091DC
:100BD0004901F0914A013196F0934A01E0934901AD
:100BE0006F5F7F4F6217730741F69A0102C02FEFC4
:100BF0003FEFC901DF91CF911F910F91FF900895B1
:100C00001F93CF93DF931F92CDB7DEB7162F20919E
:100C1000E80022FFFCCF612F79830E9476048BEFDE
:100C20008093E800812F7981972F0F90DF91CF91EA
:100C30001F910895CF93DF931F92CDB7DEB719822E
:100C4000CE0101960E946A08CE0101960E94020917
:100C5000898190E00F90DF91CF9108951F920F92BC
:100C60000FB60F921124EF92FF920F931F932F93C1
:100C70003F934F935F936F937F938F939F93AF9324
:100C8000BF93EF93FF93CF93DF93CDB7DEB7629718
:100C9000DEBFCDBF1092E9008091E80083FFE3C082
:100CA00068E0CE010A960E94760482EF8093E80005
:100CB0009A8597FF05C08091E80080FFFCCF03C0B4
:100CC0008EEF8093E800892F807609F0B1C08B8584
:100CD000811103C01092F100BFC0813009F4BCC083
:100CE000833009F4B9C0853049F48091E80080FF71
:100CF000FCCF8C8580688093E300AEC0863009F01D
:100D00006FC02D85E888F988223071F580E090E089
:100D10002A8B0E94A6050E941A0699E08E010F5F99
:100D20001F4FF801392F11923A95E9F799832A89D3
:100D30002A8391E09E8390E898879AEF9987209183
:100D4000490130914A01275F3F4F3C832B838D83BC
:100D5000C7010E94A60549E050E0B80180E00E946A
:100D6000B1050E941A0678C0C7012A8B0E94A60509
:100D70002A89223241F482E290E00E940D09892BF7
:100D800009F06AC06DC0213071F48889998908978B
:100D900019F481E08093460180914601882389F00F
:100DA00067E271E016C0233009F05AC08C858823B1
:100DB00059F0823061F0813009F052C06BE471E08B
:100DC00008C069E371E005C065E871E002C063E650
:100DD00071E0FB01449150E080E80E94B1053CC005
:100DE000873009F43DC0883021F481E08093F10020
:100DF00033C0893089F5937099F5E3E2F1E081E041
:100E000021E096E38093E9002093EB003491309346
:100E1000EC009093ED008F5F3196853099F78EE767
:100E20008093EA001092EA008C8580934B0114C0F5
:100E3000888999890E94A6058E85811105C0CE01F9
:100E40000A960E94750806C0823051F4CE010A96B7
:100E50000E943509882321F08EEF8093E80003C0BB
:100E600081E28093EB0062960FB6F894DEBF0FBE6E
:100E7000CDBFDF91CF91FF91EF91BF91AF919F9146
:100E80008F917F916F915F914F913F912F911F9122
:100E90000F91FF90EF900F900FBE0F901F9018953D
:100EA0008093E9008091F200882319F08AE380930F
:100EB000E80008951F920F920FB60F9211242F93FE
:100EC0003F934F935F936F937F938F939F93AF93D2
:100ED000BF93EF93FF938091E1001092E10083FFB5
:100EE0000FC01092E90091E09093EB001092EC009B
:100EF00092E39093ED0010924B0198E09093F000F4
:100F000082FF27C083E00E94500704C08EE491E076
:100F10000E944C0882E00E948B048111F7CF8091DF
:100F20004D01882339F080914D01815080934D010E
:100F3000882361F080914C01882359F080914C0105
:100F4000815080934C01882319F003C05D9AF2CF41
:100F5000289AFF91EF91BF91AF919F918F917F91CF
:100F60006F915F914F913F912F910F900FBE0F9016
:100F70001F90189510924B0181E08093D70080EA72
:100F80008093D80082E189BD09B400FEFDCF61E005
:100F900070E080E090E00E94DF0380E98093D80059
:100FA0008CE08093E2001092E000559A209A089518
:100FB00020919C0130919D0180919E0190919F0113
:100FC000281B390B2F733327C901089520919C01E9
:100FD00030919D0180919E0190919F0128173907C2
:100FE00049F0E0919E01F0919F01E45AFE4F20816B
:100FF00030E002C02FEF3FEFC901089520919C011E
:1010000030919D0180919E0190919F012817390791
:10101000A1F0E0919E01F0919F01E45AFE4F2081E2
:1010200080919E0190919F0101968F7399279093D3
:101030009F0180939E0130E002C02FEF3FEFC90176
:1010400008950F931F93CF93DF931F92CDB7DEB711
:101050008C01698380911501882369F041E050E09B
:10106000BE016F5F7F4F83E00E94160518161906B8
:1010700014F49C0107C081E090E0F801938382831F
:1010800020E030E0C9010F90DF91CF911F910F91C7
:10109000089583E00C94500782E00E94E4042091BC
:1010A0009C0130919D012F5F3F4F2F73332740915B
:1010B0009E0150919F012417350759F0E0919C0142
:1010C000F0919D01E45AFE4F808330939D0120935F
:1010D0009C010895FC0120812E5F208342E450E0B2
:1010E00069E871E080E80C94B105FC018181908190
:1010F000913A59F4813209F04BC047E050E06EE07C
:1011000071E080E00E94B10545C0913209F040C015
:10111000803239F467E070E08EE091E00E940006D2
:1011200039C0823209F034C08281809315018091E8
:101130000E0190910F01A0911001B0911101803B1F
:101140009440A105B10531F58091150180FD12C0D3
:1011500087E797E790930108809300082BE088E1E8
:1011600090E00FB6F894A895809360000FBE20938E
:10117000600010C088E10FB6F89480936000109270
:1011800060000FBEA895109201081092000802C0DE
:1011900080E0089581E0089510925101109250016D
:1011A00088EE93E0A0E0B0E0809352019093530169
:1011B000A0935401B09355018CE191E090934F01BD
:1011C00080934E010895FF920F931F93CF93DF9367
:1011D000EC01F62EE881F9810480F581E02D099576
:1011E0008C01E881F9810680F781E02D6F2DCE0119
:1011F000099598013327C901DF91CF911F910F9174
:10120000FF900895FC0120812F5F208349E150E089
:101210006BE472E080E80C94B10545E650E064E6CA
:1012200072E080E80C94B105EF92FF920F931F9348
:10123000CF93DF931F92CDB7DEB789838B017A01FD
:1012400041E050E0BE016F5F7F4F84E00E941605D1
:10125000A701B80184E40E9416050F90DF91CF9199
:101260001F910F91FF90EF900895FC019181808173
:10127000813A31F481E0913091F0933091F010C0D7
:10128000813271F49B3021F482818093170105C073
:101290009A3031F482818093160181E00895089597
:1012A00080E0089548E050E082E00C941409FC01CD
:1012B0001682178210861186128613861482BC014C
:1012C0006C5F7F4F0C945209E62F683810F0E85895
:1012D00024C0F0E067FF12C0E058F10921E030E0DF
:1012E00001C0220FEA95EAF72095DC0114963C91A3
:1012F0001497322314963C93E0E00FC0E553FE4F61
:10130000E491EE2329F1E7FF08C0DC0114962C914B
:1013100014972D7F14962C93EF7720E030E0EE2386
:1013200051F0DC01A20FB31F16964C9116974E1385
:1013300002C016961C922F5F3F4F2630310579F779
:10134000BC016C5F7F4F0E94520921E030E002C077
:1013500020E030E0C9010895CF93DF93DC01E62F50
:10136000683810F0E85824C0F0E067FF11C0E0587A
:10137000F10981E090E001C0880FEA95EAF7149640
:101380009C911497982B14969C931497E0E010C0AE
:10139000E553FE4FE491E11101C040C0E7FF08C0F2
:1013A00014968C911497826014968C931497EF770F
:1013B00016968C9116978E1741F117968C91179768
:1013C0008E1719F118968C9118978E17F1F01996BF
:1013D0008C9119978E17C9F01A968C911A978E17BF
:1013E000A1F01B968C911B978E1779F080E090E00E
:1013F000ED01C80FD91F2E81211102C0EE8305C057
:10140000019686309105A1F709C0BD016C5F7F4F41
:10141000CD010E94520921E030E008C081E090E057
:1014200013969C938E93129720E030E0C901DF91D0
:10143000CF9108951092AC011092A3011092A201D5
:101440008EE291E09093A1018093A0010895CF9244
:10145000DF92EF92FF920F931F93CF93DF936C0174
:10146000EB017A01E60EF71E00E010E00BC0699177
:10147000D601ED91FC910190F081E02DC601099516
:10148000080F191FCE15DF0591F7C801DF91CF9125
:101490001F910F91FF90EF90DF90CF900895EE0F86
:0E14A000FF1F0590F491E02D0994F894FFCF02
:1014AE0088130200080009000A000B000C0000E17E
:1014BE000000000000000101000000002108270AC2
:1014CE00D807FE07E60749084C0800000000E308AD
:0814DE00270AAC096409570953
:00000001FF
