:100000000C9460010C9488010C9488010C94880174
:100010000C9488010C9488010C9488010C9488013C
:100020000C9488010C9488010C94D6060C94AA05B3
:100030000C9488010C9488010C9488010C9488011C
:100040000C9488010C9488010C9488010C9488010C
:100050000C9488010C9488010C9488010C94B501CF
:100060000C9488010C9488010C9488010C948801EC
:100070000C9488010C9488010C9488010C948801DC
:100080000C9488010C9488010C9488010C948801CC
:100090000C9488010C9488010C9488010C948801BC
:1000A0000C9488010C9488010C94880100000002D3
:1000B00000080E0000030401000B00000408020108
:1000C00010408040102040804080080204018040A1
:1000D0002010020110801020404004040404040396
:1000E00004050202020204030202020206060606D8
:1000F0000606040402020204000000002500280095
:100100002B002E00310000000000240027002A00F0
:100110002D00300000C18081C112010002020000E8
:10012000404123368000010102000112010002005B
:100130000000404123368000010102000118034104
:100140000072006400750069006E006F0020004CB2
:10015000004C0043002203410072006400750069F6
:10016000006E006F0020004C0065006F006E0061A3
:1001700000720064006F0004030904080B0002020F
:100180000201000904000001020200000524001021
:1001900001052401010104240206052406000107CB
:1001A00005810310004009040100020A0000000755
:1001B0000502024000000705830240000000000025
:1001C00000000000002A2B280000000000000000B2
:1001D000000000000000000000000000002C9EB4A1
:1001E000A0A1A2A434A6A7A5AE362D3738271E1F7E
:1001F00020212223242526B333B62EB7B89F848529
:10020000868788898A8B8C8D8E8F90919293949516
:10021000969798999A9B9C9D2F3130A3AD350405F4
:10022000060708090A0B0C0D0E0F101112131415F6
:10023000161718191A1B1C1DAFB1B0B5000904021E
:1002400000010300000009210101000122650007EF
:1002500005840340000105010902A1010901A10073
:10026000850105091901290315002501950375016B
:1002700081029501750581030501093009310938AD
:100280001581257F750895038106C0C00501090603
:10029000A1018502050719E029E71500250175016F
:1002A000950881029501750881039506750815006A
:1002B00025650507190029658100C00048089609D1
:1002C00011241FBECFEFDAE0DEBFCDBF11E0A0E00A
:1002D000B1E0E6E5F3E102C005900D92A033B1076D
:1002E000D9F711E0A0E3B1E001C01D92A13AB10736
:1002F000E1F712E0C0ECD2E004C02297FE010E94B8
:10030000A509CC3BD107C9F70E94E1030C94A909C8
:100310000C94000061E0809100010C940903CF93DC
:10032000DF93C0E0D1E061E088810E9441036CE08E
:1003300071E082E491E00E94CD0368EC70E080E01F
:1003400090E00E94290260E088810E9441036CE0F5
:1003500071E082E491E00E94CD0368EC70E080E0FF
:1003600090E0DF91CF910C9429021F920F920FB66B
:100370000F9211242F933F938F939F93AF93BF932B
:100380008091300190913101A0913201B0913301FF
:1003900030913801232F2D5F2D3720F40196A11DB8
:1003A000B11D05C0232F2A570296A11DB11D209310
:1003B00038018093300190933101A0933201B093C2
:1003C00033018091340190913501A0913601B091B3
:1003D00037010196A11DB11D809334019093350121
:1003E000A0933601B0933701BF91AF919F918F9148
:1003F0003F912F910F900FBE0F901F9018950F9364
:100400001F939FB7F894009134011091350120910A
:1004100036013091370186B5A89B06C08F3F21F089
:100420000F5F1F4F2F4F3F4F9FBF322F212F102F96
:100430000027080F111D211D311D42E0000F111F63
:10044000221F331F4A95D1F7B801C9011F910F919F
:100450000895CF92DF92EF92FF92CF93DF936B01DB
:100460007C010E94FF01EB010EC00E94FF016C1B8A
:100470007D0B683E734038F081E0C81AD108E1086E
:10048000F108C851DC4FC114D104E104F10469F74B
:10049000DF91CF91FF90EF90DF90CF900895789407
:1004A00084B5826084BD84B5816084BD85B5826079
:1004B00085BD85B5816085BDEEE6F0E08081816017
:1004C0008083E1E8F0E01082808182608083808117
:1004D00081608083E0E8F0E0808181608083E1EBEF
:1004E000F0E0808184608083E0EBF0E080818160D7
:1004F0008083E1E9F0E08081826080838081816097
:100500008083E0E9F0E0808181608083E1ECF0E0CD
:10051000808184608083808182608083808181602B
:100520008083E3ECF0E0808181608083E0ECF0E0A8
:10053000808182608083E2ECF0E080818160808352
:10054000EAE7F0E08081846080838081826080833C
:100550008081816080838081806880830895873076
:10056000A1F178F48330E1F030F4813019F1823078
:1005700009F04EC022C08430B9F0863009F048C07E
:1005800020C08A3081F130F4883029F1893009F0B7
:100590003FC025C08C3089F160F18E30C9F533C081
:1005A000809180008F7703C0809180008F7D809341
:1005B0008000089584B58F7702C084B58F7D84BD97
:1005C00008958091B0008F7703C08091B0008F7D37
:1005D0008093B0000895809190008F7707C080913C
:1005E00090008F7D03C080919000877F8093900062
:1005F00008958091C0008F7703C08091C0008F7DE7
:100600008093C00008958091C200877F8093C200CC
:100610000895CF93DF9390E0FC01E454FF4F4491A1
:10062000FC01E652FF4F8491882341F190E0880F4E
:10063000991FFC01EA5FFE4F25913491D901885042
:100640009F4FFC0185919491C82FD92F9FB7F894A3
:100650008C91611106C0409584238C9388818423FA
:1006600008C0623041F4242F209582238C93888126
:10067000842B888302C0842B8C939FBFDF91CF9102
:1006800008950F931F93CF93DF931F92CDB7DEB7DB
:10069000282F30E0F901E455FF4F8491F901E4542B
:1006A000FF4F1491F901E652FF4F04910023D1F05E
:1006B000882321F069830E94AF026981E02FF0E076
:1006C000EE0FFF1FE850FF4F85919491DC019FB71B
:1006D000F8948C91611103C01095812301C0812B86
:1006E0008C939FBF0F90DF91CF911F910F91089531
:1006F000CF92DF92EF92FF920F931F93CF93DF93EE
:100700006C01EB017A01E60EF71E00E010E00BC071
:100710006991D601ED91FC910190F081E02DC60127
:100720000995080F191FCE15DF0591F7C801DF9154
:10073000CF911F910F91FF90EF90DF90CF90089590
:10074000DB010D900020E9F7AD0141505109461B36
:10075000570BDC01ED91FC910280F381E02D0994AF
:10076000DC01ED91FC910190F081E02D09940F9353
:100770001F93CF93DF93EC016DE00E94B0038C01D7
:100780006AE0CE010E94B0039C01200F311FC90115
:10079000DF91CF911F910F9108950F931F93CF93E6
:1007A000DF93EC010E94A0038C01CE010E94B703ED
:1007B0009801280F391FC901DF91CF911F910F9127
:1007C00008950E944F0289E391E00E9436070E943B
:1007D0008A01C0E0D0E00E948F012097E1F30E94DF
:1007E0000000F9CF05C02091F100FC012193CF0159
:1007F0006150C8F7289884E68093400108952FB788
:10080000FC012083F89467706093E9000895CF930A
:10081000DF931F92CDB7DEB7682FCE0101960E94FD
:10082000FF038091F20099819FBF0F90DF91CF91DC
:100830000895FF920F931F93CF93DF9300D0CDB70E
:10084000DEB7F62E8A0190913F019923A9F057FF58
:1008500016C012C02898809340019091F1009193A6
:10086000FE12F8CF4115510521F08091F200882346
:10087000D1F089818FBF1BC04FEF5FEF18C0682F89
:10088000CE0101967A830E94FF038091F20090E0EE
:10089000A8017A81801791070CF4AC01EF2DF72F96
:1008A000F40E84E6DDCF8BE68093E800E2CFCA0148
:1008B0000F900F90DF91CF911F910F91FF900895AE
:1008C000CF93DF931F92CDB7DEB741E050E0BE017A
:1008D0006F5F7F4F0E941904019719F4298130E05E
:1008E00002C02FEF3FEFC9010F90DF91CF91089524
:1008F000CF93DF931F92CDB7DEB7682FCE0101965D
:100900000E94FF038091E80085FF05C09091F200EE
:1009100080E4891B01C080E099819FBF0F90DF9127
:10092000CF9108956F927F928F929F92AF92BF92D4
:10093000CF92DF92EF92FF920F931F93CF93DF93AB
:100940001F92CDB7DEB7C82EA42E952E80913F0101
:1009500081114CC02FEF3FEF64C08C2D0E947804B2
:10096000D82E811109C0BA94A9F361E070E080E04B
:1009700090E00E94290247C0282F30E00217130799
:100980000CF4D02E0D1911096C2DCE0101960E9488
:10099000FF03772041F002C01092F100DA948FEF4C
:1009A000D812FACF17C08D2DC7FC02C0F7010EC0B8
:1009B000970106C0F9012F5F3F4FE491E093F100EA
:1009C0008150C0F705C091919093F1008150D8F704
:1009D000ED0CF11C8091E80085FF20C00115110588
:1009E00011F461101BC089818FBF0DC07B01042FE2
:1009F000152F8AEFB82E90E2792E7C202AE3822EE2
:100A000030E4632E6C200115110509F0A6CF5D9826
:100A100084E6809341012A2D392D03C08092E8009D
:100A2000E2CFC9010F90DF91CF911F910F91FF90FD
:100A3000EF90DF90CF90BF90AF909F908F907F907E
:100A40006F9008951092E90010923E0110923D01BE
:100A500090933C0180933B010895FF920F931F9365
:100A6000CF93DF939A01DB0160E070E0EEEFFE2EA2
:100A700035C0ED01219687FF04C0FD01DE01E49140
:100A800002C0EC91DE0100913D0110913E01C09148
:100A90003B01D0913C010C171D07ACF49091E8008C
:100AA0009570E1F39091E80092FD1DC0E093F10094
:100AB000E0913D01F0913E013196EF73FF27EF2B5E
:100AC00011F4F092E800E0913D01F0913E01319681
:100AD000F0933E01E0933D016F5F7F4F6217730714
:100AE00041F69A0102C02FEF3FEFC901DF91CF918C
:100AF0001F910F91FF9008951F93CF93DF931F9243
:100B0000CDB7DEB7162F2091E80022FFFCCF612F72
:100B100079830E94F2038BEF8093E800812F798123
:100B2000972F0F90DF91CF911F910895CF93DF936F
:100B30001F92CDB7DEB71982CE0101960E94E6075B
:100B4000CE0101960E947E08898190E00F90DF918E
:100B5000CF9108951F920F920FB60F921124EF922A
:100B6000FF920F931F932F933F934F935F936F9336
:100B70007F938F939F93AF93BF93EF93FF93CF9305
:100B8000DF93CDB7DEB76297DEBFCDBF1092E9002D
:100B90008091E80083FFE3C068E0CE010A960E94DE
:100BA000F20382EF8093E8009A8597FF05C0809159
:100BB000E80080FFFCCF03C08EEF8093E800892F10
:100BC000807609F0B1C08B85811103C01092F100CD
:100BD000BFC0813009F4BCC0833009F4B9C085308E
:100BE00049F48091E80080FFFCCF8C858068809379
:100BF000E300AEC0863009F06FC02D85E888F98823
:100C0000223071F580E090E02A8B0E9422050E943C
:100C1000960599E08E010F5F1F4FF801392F119251
:100C20003A95E9F799832A892A8391E09E8390E88F
:100C300098879AEF998720913D0130913E01275F77
:100C40003F4F3C832B838D83C7010E94220549E0DF
:100C500050E0B80180E00E942D050E94960578C002
:100C6000C7012A8B0E9422052A89223241F482E29E
:100C700090E00E948908892B09F06AC06DC021307C
:100C800071F488899989089719F481E080933A0171
:100C900080913A01882389F069E171E016C0233020
:100CA00009F05AC08C85882359F0823061F0813078
:100CB00009F052C06DE371E008C06BE271E005C05D
:100CC00067E771E002C065E571E0FB01449150E027
:100CD00080E80E942D053CC0873009F43DC0883073
:100CE00021F481E08093F10033C0893089F593705D
:100CF00099F5E5E1F1E081E021E096E38093E900F8
:100D00002093EB0034913093EC009093ED008F5FD3
:100D10003196853099F78EE78093EA001092EA00C9
:100D20008C8580933F0114C0888999890E9422058F
:100D30008E85811105C0CE010A960E94F10706C07A
:100D4000823051F4CE010A960E94B108882321F026
:100D50008EEF8093E80003C081E28093EB006296FF
:100D60000FB6F894DEBF0FBECDBFDF91CF91FF91DC
:100D7000EF91BF91AF919F918F917F916F915F9113
:100D80004F913F912F911F910F91FF90EF900F90F6
:100D90000FBE0F901F9018958093E9008091F2008C
:100DA000882319F08AE38093E80008951F920F9238
:100DB0000FB60F9211242F933F934F935F936F932E
:100DC0007F938F939F93AF93BF93EF93FF93809104
:100DD000E1001092E10083FF0FC01092E90091E062
:100DE0009093EB001092EC0092E39093ED00109240
:100DF0003F0198E09093F00082FF27C083E00E94BB
:100E0000CC0604C082E491E00E94C80782E00E9400
:100E100007048111F7CF80914101882339F0809137
:100E20004101815080934101882361F0809140010C
:100E3000882359F08091400181508093400188239C
:100E400019F003C05D9AF2CF289AFF91EF91BF91FC
:100E5000AF919F918F917F916F915F914F913F9152
:100E60002F910F900FBE0F901F90189510923F0179
:100E700081E08093D70080EA8093D80082E189BD29
:100E800009B400FEFDCF61E070E080E090E00E94D8
:100E9000290280E98093D8008CE08093E2001092D0
:100EA000E000559A209A0895209190013091910187
:100EB0008091920190919301281B390B2F73332756
:100EC000C901089520919001309191018091920182
:100ED000909193012817390749F0E0919201F09120
:100EE0009301E05BFE4F208130E002C02FEF3FEF27
:100EF000C901089520919001309191018091920152
:100F00009091930128173907A1F0E0919201F09197
:100F10009301E05BFE4F20818091920190919301BB
:100F200001968F739927909393018093920130E0FB
:100F300002C02FEF3FEFC90108950F931F93CF9386
:100F4000DF931F92CDB7DEB78C01698380910901D1
:100F5000882369F041E050E0BE016F5F7F4F83E07E
:100F60000E9492041816190614F49C0107C081E02F
:100F700090E0F8019383828320E030E0C9010F9074
:100F8000DF91CF911F910F91089583E00C94CC06CF
:100F900082E00E94600420919001309191012F5FC6
:100FA0003F4F2F73332740919201509193012417A3
:100FB000350759F0E0919001F0919101E05BFE4F0F
:100FC000808330939101209390010895FC0120814A
:100FD0002E5F208342E450E06BE771E080E80C94E0
:100FE0002D05FC0181819081913A59F4813209F0FB
:100FF0004BC047E050E062E071E080E00E942D05C8
:1010000045C0913209F040C0803239F467E070E0A9
:1010100082E091E00E947C0539C0823209F034C040
:101020008281809309018091020190910301A09136
:101030000401B0910501803B9440A105B10531F553
:101040008091090180FD12C087E797E7909301081E
:10105000809300082BE088E190E00FB6F894A89503
:10106000809360000FBE2093600010C088E10FB62F
:10107000F89480936000109260000FBEA8951092C3
:1010800001081092000802C080E0089581E00895F0
:10109000109245011092440188EE93E0A0E0B0E088
:1010A0008093460190934701A0934801B093490172
:1010B00084E191E090934301809342010895FF926F
:1010C0000F931F93CF93DF93EC01F62EE881F98104
:1010D0000480F581E02D09958C01E881F981068075
:1010E000F781E02D6F2DCE01099598013327C901B5
:1010F000DF91CF911F910F91FF900895FC01208106
:101100002F5F208349E150E06DE372E080E80C94AA
:101110002D0545E650E066E572E080E80C942D056B
:10112000EF92FF920F931F93CF93DF931F92CDB750
:10113000DEB789838B017A0141E050E0BE016F5F29
:101140007F4F84E00E949204A701B80184E40E94CA
:1011500092040F90DF91CF911F910F91FF90EF902C
:101160000895FC0191818081813A31F481E09130D0
:1011700091F0933091F010C0813271F49B3021F4E2
:10118000828180930B0105C09A3031F48281809373
:101190000A0181E00895089580E0089548E050E054
:1011A00082E00C949008FC0116821782108611864A
:1011B000128613861482BC016C5F7F4F0C94CE089C
:1011C000E62F683810F0E85824C0F0E067FF12C03E
:1011D000E058F10921E030E001C0220FEA95EAF77A
:1011E0002095DC0114963C911497322314963C937D
:1011F000E0E00FC0E354FE4FE491EE2329F1E7FF56
:1012000008C0DC0114962C9114972D7F14962C9312
:10121000EF7720E030E0EE2351F0DC01A20FB31FA6
:1012200016964C9116974E1302C016961C922F5F7D
:101230003F4F2630310579F7BC016C5F7F4F0E942C
:10124000CE0821E030E002C020E030E0C90108957E
:10125000CF93DF93DC01E62F683810F0E85824C004
:10126000F0E067FF11C0E058F10981E090E001C0B3
:10127000880FEA95EAF714969C911497982B149688
:101280009C931497E0E010C0E354FE4FE491E11109
:1012900001C040C0E7FF08C014968C91149782608B
:1012A00014968C931497EF7716968C9116978E1749
:1012B00041F117968C9117978E1719F118968C910A
:1012C00018978E17F1F019968C9119978E17C9F00F
:1012D0001A968C911A978E17A1F01B968C911B97DA
:1012E0008E1779F080E090E0ED01C80FD91F2E81B4
:1012F000211102C0EE8305C0019686309105A1F749
:1013000009C0BD016C5F7F4FCD010E94CE0821E076
:1013100030E008C081E090E013969C938E93129782
:1013200020E030E0C901DF91CF9108951092A00133
:10133000109297011092960186E291E090939501A8
:10134000809394010895EE0FFF1F0590F491E02D16
:061350000994F894FFCFA0
:101356000A0000E10000000000000101526564007F
:10136600000000009D07780354077A076207C50747
:10137600C807000000005F0878032809E008D308C2
:00000001FF
