:100000000C9470010C9498010C9498010C94980134
:100010000C9498010C9498010C9498010C949801FC
:100020000C9498010C9498010C9457180C942B176D
:100030000C9498010C9498010C9498010C949801DC
:100040000C9498010C94130A0C9498010C94980148
:100050000C9498010C9498010C9498010C944512FE
:100060000C9498010C9498010C9498010C949801AC
:100070000C9498010C9498010C9498010C9498019C
:100080000C943D0A0C9498010C9498010C949801DE
:100090000C9415110C9498010C9498010C949801EF
:1000A0000C9498010C9498010C949801070605048F
:1000B0000100080A0B0C0D090000000200080E00E8
:1000C00000030401000B00000408020110408040FE
:1000D000102040804080080204018040201002016E
:1000E00010801020404004040404040304050202AC
:1000F00002020403020202020606060606060404C1
:1001000002020204000000002300260029002C0047
:100110002F0000000000250028002B002E003100D9
:1001200000000000240027002A002D00300000C13C
:100130008081C1120100020200004041233680008C
:1001400001010200011201000200000040412336BB
:100150008000010102000118034100720064007573
:100160000069006E006F0020004C004C004300222C
:1001700003410072006400750069006E006F00208A
:10018000004C0065006F006E006100720064006F3B
:100190000004030904080B00020202010009040024
:1001A00000010202000005240010010524010101E4
:1001B00004240206052406000107058103100040FF
:1001C00009040100020A00000007050202400000C5
:1001D0000705830240000000000000000000002A24
:1001E0002B280000000000000000000000000000BC
:1001F000000000000000002C9EB4A0A1A2A434A620
:10020000A7A5AE362D3738271E1F202122232425EF
:1002100026B333B62EB7B89F8485868788898A8BA4
:100220008C8D8E8F909192939495969798999A9B96
:100230009C9D2F3130A3AD350405060708090A0B34
:100240000C0D0E0F101112131415161718191A1B76
:100250001C1DAFB1B0B5000904020001030000008D
:100260000921010100012265000705840340000106
:1002700005010902A1010901A10085010509190172
:100280002903150025019503750181029501750566
:10029000810305010930093109381581257F750869
:1002A00095038106C0C005010906A1018502050765
:1002B00019E029E7150025017501950881029501CE
:1002C0007508810395067508150025650507190051
:1002D00029658100C0003D09500F3210111A5F1BC3
:1002E00011241FBECFEFDAE0DEBFCDBF11E0A0E0EA
:1002F000B1E0E6EDFAE302C005900D92A63FB1072A
:10030000D9F714E0A6EFB1E001C01D92A43AB107FD
:10031000E1F712E0C0EED2E004C02297FE010E9495
:10032000D31BC63DD107C9F70E9462150C94691D05
:100330000C940000843028F4E82FF0E0ED51FD4FDC
:10034000608308950F931F93CF93DF93EB01843065
:1003500008F075C0982F990F990F990F985F9F31EA
:1003600008F09EE1082F000F000F000F802F10E013
:1003700041E018C0E82FF0E0DF01AF53BD4F2C91F2
:10038000223070F4142BEE0FFF1FEF57FD4F5C2F40
:10039000542321E030E011F420E030E03183208369
:1003A000440F8F5F891730F310FF06C0BE016170E4
:1003B0007727802F0E94ED1311FF07C0BE016270E6
:1003C0007727802F8F5F0E94ED1312FF07C0BE01B9
:1003D00064707727802F8E5F0E94ED1313FF07C094
:1003E000BE0168707727802F8D5F0E94ED1314FF88
:1003F00007C0BE0160717727802F8C5F0E94ED13CC
:1004000015FF07C0BE0160727727802F8B5F0E94A7
:10041000ED1316FF07C0BE0160747727802F8A5F37
:100420000E94ED1317FF0BC0BE0160787727802F65
:10043000895FDF91CF911F910F910C94ED13DF91A4
:10044000CF911F910F9108958C30C0F44091E70235
:100450005091E80221E030E002C0220F331F8A955C
:10046000E2F7672B29F4209530952423352302C029
:10047000242B352B3093E8022093E7020895EF9266
:10048000FF920F931F93CF93DF93EB018E3180F593
:10049000082F10E0F801EF53FD4F9081933081F069
:1004A000943031F57801EE0CFF1C883138F4C70127
:1004B000800F911F8A509E4F0E945C0BF70114C061
:1004C000833061F0853051F0863041F0893031F071
:1004D0008A3021F08B3011F08D3019F4BE010E946A
:1004E0008214F801EE0FFF1FEF57FD4FD183C08339
:1004F000DF91CF911F910F91FF90EF900895DF92C0
:10050000EF92FF920F931F93CF93DF93F82EEB019F
:10051000D42E6F3F8FEF7807B9F06F2D8FE693E001
:100520000E9412106C2F8FE693E00E94B80F8FE6A6
:1005300093E00E942F1080913E0290913F0200971D
:1005400029F00E94F11202C0C0E0D0E04D2D6F2DC5
:100550008FE693E00E940F100D2D10E08FE693E0E0
:100560000E945C0F08171907B9F4F0924102C0937A
:10057000420253E4E52E52E0F52EC0E0D0E008C080
:100580008FE693E00E94650FF70181937F0121962A
:10059000C017D107ACF310C08FE693E00E945C0F48
:1005A000801791071CF464E171E002C06CE371E014
:1005B00084E393E00E94C10D4D2D4E5F21E432E0B3
:1005C00067E784E393E0DF91CF911F910F91FF9054
:1005D000EF90DF900C947C0D1F93CF93DF93162F39
:1005E000C82FD0E0FE01E354FD4F90811923411143
:1005F00006C0FE01E152FD4F9081911751F0412F4D
:1006000050E0682F84E393E00E944A0DC152DD4F11
:100610001883DF91CF911F910895CF93DF9380913D
:10062000E302882309F448C0D091BD02D0FF1DC168
:1006300080E00E942414892B09F417C1C1E0D1FF86
:1006400006C081E00E942414892B09F010C1D2FF5A
:1006500006C082E00E942414892B09F00AC1D3FF4E
:1006600006C083E00E942414892B09F004C1D4FF42
:1006700006C084E00E942414892B09F0FEC0D5FF37
:1006800006C085E00E942414892B09F0F8C0D6FF2B
:1006900006C086E00E942414892B09F0F2C0D7FF1F
:1006A00006C087E00E942414892B09F0ECC040E0CA
:1006B0006C2F80E00E94EC028091E402882309F410
:1006C00048C0D091BE02D0FFE0C088E00E94241450
:1006D000892B09F4DAC0C1E0D1FF06C089E00E948D
:1006E0002414892B09F0D3C0D2FF06C08AE00E94EF
:1006F0002414892B09F0CDC0D3FF06C08BE00E94E3
:100700002414892B09F0C7C0D4FF06C08CE00E94D6
:100710002414892B09F0C1C0D5FF06C08DE00E94CA
:100720002414892B09F0BBC0D6FF06C08EE00E94BE
:100730002414892B09F0B5C0D7FF06C08FE00E94B2
:100740002414892B09F0AFC040E06C2F81E00E9497
:10075000EC028091E502882309F448C0D091BF02E1
:10076000D0FFA3C080E10E942414892B09F49DC00E
:10077000C1E0D1FF06C081E10E942414892B09F059
:1007800096C0D2FF06C082E10E942414892B09F092
:1007900090C0D3FF06C083E10E942414892B09F086
:1007A0008AC0D4FF06C084E10E942414892B09F07A
:1007B00084C0D5FF06C085E10E942414892B09F06E
:1007C0007EC0D6FF06C086E10E942414892B09F062
:1007D00078C0D7FF06C087E10E942414892B09F056
:1007E00072C040E06C2F82E00E94EC028091E60231
:1007F000882309F476C0D091C002D0FF66C088E19A
:100800000E942414892B09F460C0C1E0D1FF06C006
:1008100089E10E942414892B09F059C0D2FF06C037
:100820008AE10E942414892B09F053C0D3FF06C02B
:100830008BE10E942414892B09F04DC0D4FF06C01F
:100840008CE10E942414892B09F047C0D5FF06C013
:100850008DE10E942414892B09F041C040E06C2FE7
:1008600083E0DF91CF910C94EC02C0E0E8CEC2604F
:10087000EECEC460F4CEC860FACEC06100CFC062D4
:1008800006CFC0640CCFC06812CFC0E025CFC260D5
:100890002BCFC46031CFC86037CFC0613DCFC062BD
:1008A00043CFC06449CFC0684FCFC0E062CFC260C1
:1008B00068CFC4606ECFC86074CFC0617ACFC062A9
:1008C00080CFC06486CFC0688CCFC0E09FCFC260AD
:1008D000A5CFC460ABCFC860B1CFC061B7CFC06295
:1008E000BDCFDF91CF910895109240028FEF80939A
:1008F00006010895AF92BF92DF92EF92FF920F939D
:100900001F93CF93DF931F92CDB7DEB7D82E8B0105
:10091000A82EB12CF501EF53FD4F8081863051F4A4
:1009200080914002882331F06630710509F4F7C0E8
:100930000E94740487E18D1588F00430110571F070
:100940007501EE0CFF1CEA0CFB1CE6EFF1E0EE0E6D
:10095000FF1EC7010E94C20B8111DDC09D2D925167
:100960009C3068F461E070E00230110511F060E045
:1009700070E0892F99830E942402998103C0FDE1D0
:10098000FD15D8F0ED2DE695E695E6958D2D877051
:10099000F0E0E354FD4F21E030E0082E01C0220FCB
:1009A0000A94EAF70115110521F48081822B8083D6
:1009B00004C020958081282320839501220F331FB6
:1009C000F901EF57FD4F118210820230110599F0A5
:1009D00044F401151105F9F00130110509F08BC03F
:1009E0002BC00430110509F45BC0BCF106301105C1
:1009F00009F081C076C09C3008F096C060E08D2D73
:100A00000E94B51360E08D2D0E94ED13F501EF53A8
:100A1000FD4F82E06EC08DE18D1508F485C060E069
:100A20008D2D0E94B51360E08D2D0E94ED13F50110
:100A3000EF53FD4F108278C09DE19D1508F474C0FE
:100A400060E08D2D0E94ED1361E08D2D0E94B513A5
:100A5000F501EF53FD4F81E04CC0E3E0DE1691F06D
:100A6000F5E0DF1679F086E0D81661F099E0D91646
:100A700049F0EAE0DE1631F0FBE0DF1619F08DE018
:100A8000D81252C061E08D2D0E94B51360E070E075
:100A90008D2D0E948214F501EF53FD4F83E029C094
:100AA00097E19D1508F440C0F501EF53FD4F84E038
:100AB000808389010A0D1B1D0A501E4FC8010E9428
:100AC000C20B811131C0B501C8010F90DF91CF91E8
:100AD0001F910F91FF90EF90DF90BF90AF900C941B
:100AE000150B8D2D82508230F8F4F501EF53FD4F38
:100AF00086E0808319C063E671E084E393E00F90A1
:100B0000DF91CF911F910F91FF90EF90DF90BF90F9
:100B1000AF900C94C10DC7010E941B0B1FCFE7E1E2
:100B2000ED1508F00DCF1ACF0F90DF91CF911F91E7
:100B30000F91FF90EF90DF90BF90AF900895CF930B
:100B4000C0E08C2F8250823028F466E070E08C2F59
:100B50000E947A04CF5FCE31A1F781E080934002FA
:100B60008FE693E0CF910C94F80FBF92CF92DF9273
:100B7000EF92FF920F931F93CF93DF93162FEA010B
:100B80008F3609F45FC150F48B3609F480C18D367D
:100B900009F4F5C1893609F05DC244C2863761F0B7
:100BA00020F4803709F056C2F9C0883709F4D9C05B
:100BB0008A3709F04FC22DC18981982F987185FF1E
:100BC00003C064E771E05FC08881983099F118F440
:100BD000992341F03FC2903109F44FC0983109F098
:100BE00039C27BC0682F8FE693E00E94121002E0AA
:100BF0000EC0FE01E00FF11D8181608120E8829F1F
:100C0000601911248FE693E00E94B80F0E5F011760
:100C100080F38FE693E00E942F1086E490E0DF914E
:100C2000CF911F910F91FF90EF90DF90CF90BF90E9
:100C30000C94F112663071F49D814C8130E8939FE1
:100C4000401911249B816A81E0E89E9F601911245C
:100C500070E008C09B814A81F0E89F9F40191124F1
:100C60006FEF7FEFDF91CF911F910F91FF90EF908A
:100C7000DF90CF90BF900C947F0220910601273027
:100C80007CF060EA71E084E393E0DF91CF911F9103
:100C90000F91FF90EF90DF90CF90BF900C94C10D1B
:100CA0002F5F20930601332727FD3095F901EE0FC2
:100CB000FF1FE20FF31FEF59FD4F80839B818A8155
:100CC00020E8929F8019112481839D818C8130E8D6
:100CD000939F801911248283BDC17091060117165C
:100CE00084F08FEF80930601B5C1F901EE0FFF1F6D
:100CF000E20FF31FEF59FD4F8083811129C06F5F11
:100D000005C060E0472F552747FD5095262F30E05E
:100D10004217530754F760E01BC06830C0F49C01D1
:100D20002F5F3F4FD901AA0FBB1FA20FB31FAF59AF
:100D3000BD4F2C91FC01EE0FFF1FE80FF91FEF597B
:100D4000FD4F20838C91818312968C9182836F5FFB
:100D5000862F90E04817590704F7715070930601E9
:100D600079C128818981E0E88E9FC0011124820F1A
:100D7000911D009721F090933F0280933E02809155
:100D80004002811167C1DF91CF911F910F91FF90B8
:100D9000EF90DF90CF90BF900C949F05653008F4E2
:100DA00059C1F880E980DA80CB80BC80F7E1FF157B
:100DB00008F450C10F2D10E0E801CC0FDD1FC00F6B
:100DC000D11FCA50DE4FCE010E94C20B882319F0FA
:100DD000CE010E941B0B80E8B89E900111242C0DBF
:100DE000311D90E8D99EA00111244E0D511DB8016E
:100DF000CE010E94830A64E070E08F2DDF91CF91D5
:100E00001F910F91FF90EF90DF90CF90BF900C94C7
:100E10007A04623008F41EC128818981E0E88E9F3F
:100E2000C0011124820F911D909308018093070146
:100E30000A970CF00FC18AE090E09093080180932C
:100E4000070108C1623008F405C1698170E0123001
:100E500091F08A81F0E88F9FC0011124682B792BD3
:100E6000133049F02B81922F9295990F990F907C16
:100E700080E0682B792B8881DF91CF911F910F91B2
:100E8000FF90EF90DF90CF90BF900C943F0260EF07
:100E900081E494E00E9465196CE681E494E00E948C
:100EA0006519C0E060E081E494E00E94651961E0AA
:100EB00081E494E00E94651961E081E494E00E947D
:100EC000651961E081E494E00E9465198C2F8251DC
:100ED0008C3058F462E081E494E00E9465196AE085
:100EE00081E494E00E9465190FC0C33059F463E0B7
:100EF00081E494E00E94651968E081E494E00E9436
:100F000065190CC0C53099F3C63089F3C93079F33F
:100F1000CA3069F3CB3059F3CD3049F3C83150F4BE
:100F200064E081E494E00E9465196EE081E494E05D
:100F30000E9465198C2F8250823050F466E081E463
:100F400094E00E94651961E081E494E00E946519D3
:100F50006FE781E494E00E946519CF5FCE3109F01C
:100F6000A1CF67EF81E494E0DF91CF911F910F91C2
:100F7000FF90EF90DF90CF90BF900C94651966239F
:100F800009F468C0C88160EF81E494E00E946519AB
:100F90006EE681E494E00E9465196C2F81E494E090
:100FA0000E946519CE31E8F6D0E0FE01EF53FD4F07
:100FB000608181E494E00E946519CC0FDD1F8E01F1
:100FC0000F571D4FF801608171816F77772781E49A
:100FD00094E00E946519F80160817181CB018078ED
:100FE000892B51F0660F672F661F770B6F77772776
:100FF00081E494E00E946519CF57DD4F68817981C3
:10100000CB018827907C892B09F4ABCF770F660B37
:10101000770F762F661F6F77772781E494E00E9421
:1010200065199FCF60EF81E494E00E9465196AE63C
:1010300081E494E00E946519CEEECC3010F06FE7A9
:1010400001C06C2F81E494E00E946519CF5FCC3021
:10105000A1F787CFDF91CF911F910F91FF90EF9074
:10106000DF90CF90BF900895CF93DF93809140029F
:1010700081110E947404E3EEF2E0CDEBD2E0AFED1B
:10108000B2E0119219921D9282E0E73EF807C9F78B
:10109000C0E08C2F82518C3018F462E070E002C006
:1010A00061E070E08C2F0E947A04CF5FCE3189F727
:1010B0001092E8021092E702DF91CF91089523E0A9
:1010C00042E061EB71E084E393E00E94810C4FE326
:1010D00052E060EE84E393E00E94C50D42EA51E0E5
:1010E00060E984E393E00E94C50D44E252E060ECC5
:1010F00084E393E00E94C50D4AE951E060ED84E38A
:1011000093E00E94C50D4AE754E064EF84E393E066
:101110000E94C50D45EB55E060EF84E393E00E942B
:10112000E80D44E358E06FEF84E393E00E94E20DA2
:1011300040E051EE60E070E084E393E00E941D0F18
:101140000C9434088F929F92AF92BF92CF92DF920D
:10115000EF92FF920F931F93CF93DF930E940D03A3
:1011600004C084E393E00E94050E84E393E00E94B0
:10117000D60C892BB1F70E948F1260937D02709379
:101180007E0280937F0290938002C0907902D0907B
:101190007A02E0907B02F0907C024091070150912E
:1011A00008014A01AA2497FCA094BA2C8B019C0147
:1011B0000C191D092E093F0980169106A206B306D7
:1011C00008F04EC0D501C4018C0D9D1DAE1DBF1D84
:1011D0008093790290937A02A0937B02B0937C0271
:1011E000C1ECD2E01EEE1C30C0F488818230A9F43C
:1011F0002091E7023091E802012E02C03595279533
:101200000A94E2F720FF09C0812F0E944D14AC011F
:10121000612F84E393E00E94300D1F5F21961C3004
:1012200011F78091060187FF10C01AC0FC01EE0F74
:10123000FF1FE80FF91FEF59FD4F6181428170E0F8
:1012400080810E947F02CF5F01C0C0E08C2F90E0C0
:1012500020910601332727FD30952817390734F7E9
:10126000DF91CF911F910F91FF90EF90DF90CF9082
:10127000BF90AF909F908F900895CF93DF93C6EF6C
:10128000D1E0CE010E94670A239682E0CE33D807D0
:10129000C1F7DF91CF910895EF92FF920F931F93C3
:1012A000CF93DF938B017A01EC01DC01A651BD4F96
:1012B0008C9187FF05C0DB0111961C921E9222C003
:1012C0002CE02C9FC0012D9F900D11242C91AC017E
:1012D000420F511D27FD5A952091E90230E0421737
:1012E000530784F42C91FC01E20FF11D27FDFA95C0
:1012F0009F01EE0FFF1FE20FF31FE451FD4F20810E
:1013000026FD45C0FE01E651FD4F80818F5F808341
:101310002CE02C9FC0012D9F900D11242081AC0149
:10132000420F511D27FD5A952091E90230E04217E6
:1013300053070CF03EC020812C300CF442C039C061
:101340002081820F911D27FD9A95FC01EE0FFF1F52
:10135000E80FF91FE451FD4F808161E08F73DF9149
:10136000CF911F910F91FF90EF900C94ED1380E4BB
:101370009CE904C0F801808191810496D7011196FF
:101380009C938E93C651DD4F8FEF888345C02C917F
:10139000820F911D27FD9A95FC01EE0FFF1FE80FAC
:1013A000F91FE451FD4F808160E08F730E94ED13BF
:1013B000A9CFF80180819181049680349C49B8F2CC
:1013C000D9CFD8012D913C914081BC01640F711D92
:1013D00047FD7A95AB01DB01AA0FBB1FA40FB51F18
:1013E000A451BD4F11964D915C911297240F351F5A
:1013F000D70111963C932E932081AC01420F511DD1
:1014000027FD5A95DA01AA0FBB1FA40FB51FA451DF
:10141000BD4F2C9126FD94CFDF91CF911F910F915D
:10142000FF90EF9008951F920F920FB60F92112424
:101430002F933F934F935F936F937F938F939F93DC
:10144000AF93BF93EF93FF9348E850E064E870E0F8
:1014500081E090E00E944C09FF91EF91BF91AF9124
:101460009F918F917F916F915F914F913F912F91BC
:101470000F900FBE0F901F9018951F920F920FB6EE
:101480000F9211242F933F934F935F936F937F930A
:101490008F939F93AF93BF93EF93FF9348E950E0EF
:1014A00064E970E080E090E00E944C09FF91EF91C8
:1014B000BF91AF919F918F917F916F915F914F916C
:1014C0003F912F910F900FBE0F901F901895209174
:1014D000E9022831A0F4FC012083822F8F5F8093E2
:1014E000E902822F90E0FC01EE0FFF1FE80FF91FC9
:1014F000E451FD4F88EB9BE09283818308952FEFA9
:10150000FC0120830895DF92EF92FF920F931F93C7
:10151000CF93DF93EC01D62E7A018901888188313F
:1015200008F074C061E08D2D0E94B5138881A82F4A
:10153000B0E0FD01EE0FFF1FEA0FFB1FE451FD4F6E
:101540002D2D2F739081907C922B908360E272E01E
:101550006E197F0977FF02C06D5F7F4F75956795A4
:1015600075956795698340E659E0401B510B57FF1D
:1015700002C04D5F5F4F55954795559547954A83F6
:101580006CE00E947C1B9CE0899FB001112420E04C
:1015900030E0A901460F571FFA01EE0FFF1FE40FBD
:1015A000F51FE451FD4F908196FD24C02F5F3F4F02
:1015B0002C30310571F72CC01092800082E08093AE
:1015C00081001092850010928400B19A80916F0082
:1015D000826080936F000EC0892B61F4109290009E
:1015E00082E080939100109295001092940088BB45
:1015F00080937100888190E0FC01EE0FFF1FE80FDF
:10160000F91FE451FD4F808180648083888105C08B
:1016100090E08130910501F7CFCFDF91CF911F91FD
:101620000F91FF90EF90DF90089520E639E040E2BF
:1016300052E00C94830AFC01808190E0FC01EE0FE3
:10164000FF1FE80FF91FE451FD4F80818F7B8083DE
:101650000895FC018081883170F5918128E830E09F
:10166000291B310997FD3395220F331F220F331F9A
:10167000621773077CF0928128E532E0291B31095B
:1016800097FD3395220F331F220F331F6217730705
:101690000CF49B014FB7F89490E0FC01EE0FFF1F94
:1016A000E80FF91FE451FD4F22503109220F331F7B
:1016B000328321834FBF08954F925F926F927F9242
:1016C000AF92BF92CF92DF92EF92FF920F931F9350
:1016D000CF93DF93EC01603282E078070CF041C0D9
:1016E00077FD04C0653B710524F405C060E070E03F
:1016F00002C064EB70E0898128E830E0281B3109E2
:1017000087FD3395220F331F220F331F5901CC243D
:10171000B7FCC094DC2C882777FD8095982F2A8110
:1017200048E552E0421B510927FD5395440F551FD0
:10173000440F551F2A01662457FC6094762C7F9233
:101740006F925F924F9214EBE12EF12C00E010E0CB
:1017500020E030E0A9010E94D5180F900F900F9063
:101760000F90CE01DF91CF911F910F91FF90EF90DD
:10177000DF90CF90BF90AF907F906F905F904F9031
:101780000C94290BFC01808190E0FC01EE0FFF1FFF
:10179000E80FF91FE451FD4F808186FB882780F90F
:1017A00008950F931F93CF93DF93EC018B01A881D2
:1017B000B981ED91FC9111976F7777270190F081B6
:1017C000E02DCD010995A881B981ED91FC9111978A
:1017D000B801660F672F661F770B6F777727019029
:1017E000F081E02DCD01DF91CF911F910F910994F0
:1017F000FC01A081B181ED91FC9111970190F081E4
:10180000E02D60EFCD010994FC01A081B181ED9143
:10181000FC9111970190F081E02D67EFCD010994C3
:10182000CF93DF93EC01A881B981ED91FC911197E1
:101830000190F081E02D69EFCD010995A881B98172
:10184000ED91FC9111970190F081E02D62E0CD01C6
:101850000995A881B981ED91FC9111970190F081D2
:10186000E02D63E0CD01DF91CF9109941F93CF93D9
:10187000DF93EC018A81882309F43FC0CE010E94E6
:10188000F80BA881B981ED91FC9111970190F0813D
:10189000E02D69E7CD010995A881B981ED91FC9111
:1018A00011978B819C8120813181FC016081CD0168
:1018B000F9010995A881B981ED91FC9111978B816E
:1018C0009C8120813181FC016181CD01F901099563
:1018D00012E00AC0EB81FC81E10FF11D608170E034
:1018E000CE010E94D10B1F5F8A81181798F3CE0199
:1018F000DF91CF911F910C94040CDF91CF911F9138
:101900000895AF92BF92CF92DF92EF92FF920F9322
:101910001F93CF93DF93EC016B01A42EB22E60ECEA
:1019200071E0C6010E94341D7C016FE270E0C601C7
:101930000E94291D8C010F5F1F4FE114F10449F033
:101940000115110531F0E01AF10AE394E394EA82FB
:1019500008C0D6010D900020E9F7AC19AF5FAA834B
:101960008601EA80F12CC7010E94E31B9C838B83D4
:10197000FC01EE0DFF1D1082EB81FC81A082EB814A
:10198000FC81B1824A8150E0425051098B819C8197
:10199000B8010296DF91CF911F910F91FF90EF90C8
:1019A000DF90CF90BF90AF900C941A1DDC018D9109
:1019B0009C91DC01ED91FC910480F581E02D09946E
:1019C0001F93CF93DF93EC018885813741F08937EE
:1019D000B1F5CE01DF91CF911F910C94360C8FA9F8
:1019E00098AD892BC9F129A53AA5C901019797FDA1
:1019F000C90195958795182F99270E94E31BFC0133
:101A000021E013C0DE01A20FB11D18963C91308376
:101A1000422F4F5FDE01A40FB11D18964C9150E884
:101A2000459F3019112431932E5F3E2F381B3117FB
:101A300048F3EFA9F8ADDF91CF911F910994E9AD7B
:101A4000FAAD309749F0AE01475F5F4F69A561502D
:101A5000DF91CF911F910994DF91CF911F9108954C
:101A60000F931F93CF93DF93EC018A01A881B98173
:101A7000ED91FC9111976F70606E0190F081E02DF7
:101A8000CD010995B801CE01DF91CF911F910F9142
:101A90000C94D10B0F931F93CF93DF93EC018A012A
:101AA000A881B981ED91FC9111976F7060690190E7
:101AB000F081E02DCD010995A881B981ED91FC91CE
:101AC0001197B8016F7777270190F081E02DCD0154
:101AD0000995A881B981ED91FC911197B801660F24
:101AE000672F661F770B0190F081E02DCD01DF910C
:101AF000CF911F910F910994CF92DF92EF92FF92B5
:101B00000F931F93CF93DF9300D0CDB7DEB78C0137
:101B1000E42EF22E3A8369830E94F80BF801A0812B
:101B2000B181ED91FC911197408151816981CD0185
:101B3000FA010995CF2C3A81D32E07C0F6016191A5
:101B40006F0170E0C8010E94D10B8C2D8F198E158A
:101B5000A8F3C8010F900F90DF91CF911F910F91C3
:101B6000FF90EF90DF90CF900C94040C9A01FA0153
:101B700001900020E9F73197E41BF50B4E2F0C94F0
:101B80007C0DAB0161E70C94B60DFC01603DA1F04A
:101B900028F4603959F0603CA1F40BC0603E19F0A4
:101BA000643F79F40CC054A743A7089556A745A7EE
:101BB000089550AB47A7089552AB41AB089554AB7D
:101BC00043AB08956F3F19F4FC0156AB45AB089544
:101BD000FC0152AF41AF0895FC01158216821782B5
:101BE00080E090E0DF01A80FB91F18961C920196C3
:101BF00080329105B9F710A612A611A605A8F6A97C
:101C0000E02D309709F009940895CF93DF93EC010C
:101C100088819981DC01ED91FC910680F781E02DAE
:101C2000099528A52223A1F0873F910531F418A634
:101C3000CE01DF91CF910C94E00C29A53AA5FE01CD
:101C4000E20FF31F80872F5F3F4F3AA729A78DC070
:101C50002D81222309F44DC0803891050CF049C034
:101C6000922F91509D83FE01E90FF11D8087911104
:101C70007CC08E81882309F478C0803D81F128F4EE
:101C80008039A9F0803C99F527C0803E19F0843F47
:101C900071F51AC0EBA5FCA5309749F188856985D7
:101CA00070E0B0E88B9F600D711D11241EC0EDA582
:101CB000FEA53097E1F08885698570E090E8899FFE
:101CC000600D711D112411C0EBA9FCA9309779F0AA
:101CD000688570E089850AC0EFA5F8A902C0E9A966
:101CE000FAA9309721F0688570E08F8109951E82EE
:101CF0003CC09C01803F91052CF4207F33278F70DE
:101D000099278F83203E3105D1F054F4203C3105D2
:101D1000C1F0203D3105A9F02039310531F50FC062
:101D2000243F310561F024F4203F3105F1F40DC06A
:101D3000293F3105A1F02F3F3105B9F40BC082E0F6
:101D400001C081E08D832E8310C081E088A71AA690
:101D500019A60BC0CE01DF91CF910C94EC0D84E35A
:101D600093E0DF91CF910C94100CDF91CF91089507
:101D70008F929F92AF92BF92CF92DF92EF92FF929B
:101D80001F93CF93DF93EB016A01490161E08DE07E
:101D90000E94B51310E0AA2497FCA094BA2CEE245C
:101DA000D7FCE094FE2C11C0C501B4010E94CB12F7
:101DB00061E08DE00E94ED13C701B6010E94CB12D5
:101DC00060E08DE00E94ED131F5F812F90E08C1783
:101DD0009D0754F3DF91CF911F91FF90EF90DF901B
:101DE000CF90BF90AF909F908F900895CF93DF9347
:101DF000EC0161E08DE00E94B51322ED30E048E295
:101E000050E062E070E0CE010E94B80E6AEF70E030
:101E100080E090E00E94CB1222ED30E048E250E0FA
:101E200063E070E0CE010E94B80E6DE770E080E0E4
:101E300090E0DF91CF910C94CB12CF93DF93EC0124
:101E4000BA0181E494E00E94101AE881F98180913E
:101E500043049091440493838283409145045091BC
:101E60004604609147047091480444835583668317
:101E700077834091490450914A0460914B047091DA
:101E80004C044087518762877387CE010E94F60E0B
:101E9000CE010E94100CCE01DF91CF910C94360C34
:101EA00081E494E0909335038093340310923603D9
:101EB00084E393E00C94EC0D20919F0330E080913B
:101EC000A003281B3109C90108958091A0039091B6
:101ED0009F03891750F4E82FF0E0EF55FC4F208165
:101EE00030E08F5F8093A00302C02FEF3FEFC90166
:101EF0000895E091A00380919F03E81730F4F0E08B
:101F0000EF55FC4F208130E002C02FEF3FEFC901B9
:101F100008950895CF92DF92EF92FF920F931F934F
:101F2000CF93DF937C01CB018A0120917B03222395
:101F300091F0EB016B01C40ED51E09C06991D70168
:101F4000ED91FC910190F081E02DC7010995CC1530
:101F5000DD05A1F703C0642F0E94EC10C801DF91DA
:101F6000CF911F910F91FF90EF90DF90CF90089548
:101F7000CF93DF931F92CDB7DEB7698320917B03A8
:101F80002223D1F020917C03203240F021E030E088
:101F9000FC013383228320E030E015C080917D0373
:101FA000E82FF0E0E258FC4F998190838F5F809397
:101FB0007D0380937C0305C061E0CE0101960E9401
:101FC000EC1021E030E0C9010F90DF91CF9108952E
:101FD000FC011382128248EE53E060E070E044831B
:101FE00055836683778389EC91E09183808308959C
:101FF0001092A00310929F0310927D0310927C0315
:102000000C943610862F413208F040E261EA73E00A
:102010000E9454101092A00380939F03089521E022
:102020000C94021081E080937B0360939E031092D6
:102030007D0310927C0308950F93062F21E04091B9
:102040007C036EE773E080919E030E9499101092CA
:102050007D0310927C0310927B030F91089561E041
:102060000C941C108FE693E00C94E80F1092CA03B6
:1020700081E08093C8031092C70361E082E00E9470
:10208000ED1361E083E00E94ED13E9EBF0E0808165
:102090008E7F808380818D7F808388E48093B800E9
:1020A00085E48093BC000895413208F03FC09091D0
:1020B000CA039111FCCF91E09093CA032093C80307
:1020C0002FEF2093C1031092C603242F2150209399
:1020D000C5039093C9039091C903880F892B8093FE
:1020E000C9038091C703813041F41092C7038091E6
:1020F000C9038093BB0085EC01C085EE8093BC00D2
:102100008091CA038130E1F38091C603841710F4F3
:102110004091C6032BEC33E0FB01D90102C08D9145
:1021200081938A2F821B8417D0F301C040E0842F53
:1021300008950F93413208F046C09091CA0391115F
:10214000FCCF92E09093CA030093C8039FEF909353
:10215000C1031092C6034093C503FB016BEC73E00F
:10216000DB0102C091919D939A2F961B9417D0F397
:102170001092C9039091C903880F892B8093C903DA
:102180008091C703813041F41092C7038091C90345
:102190008093BB0085EC01C085EE8093BC002223B8
:1021A00021F08091CA038230E1F38091C1038F3F17
:1021B00061F08091C103803251F08091C10380337E
:1021C00041F483E007C081E005C080E003C082E005
:1021D00001C084E00F910895613298F42091CA0300
:1021E000243089F46093C303FC018BEE93E0DC019F
:1021F00002C021912D932A2F281B2617D0F380E0AF
:10220000089581E0089582E0089585ED8093BC00F3
:102210008091BC0084FDFCCF1092CA03089585EC28
:102220008093BC001092CA0308951F920F920FB6BC
:102230000F9211242F933F934F935F936F937F934C
:102240008F939F93AF93BF93EF93FF938091B900C8
:10225000887F803609F49FC058F5883209F45BC046
:1022600090F4803109F452C038F4882309F4F8C09E
:10227000883009F0F9C04AC0883109F44CC0803276
:1022800009F0F2C05CC0803409F46BC038F48033CC
:1022900009F455C0883309F0E7C054C0803509F40B
:1022A00054C0883509F462C0883409F0DDC0DAC052
:1022B000883909F4CBC0A8F4883709F46CC038F425
:1022C000883609F468C0803709F0CEC064C0883809
:1022D00009F4BCC0803909F464C0803809F0C4C076
:1022E00060C0803B09F48AC038F4803A09F46BC0BE
:1022F000883A09F0B9C082C0803C09F4ABC0883C80
:1023000009F4A8C0883B09F0AFC08DC08091C90313
:102310008093BB0012C09091C6038091C5039817AB
:1023200088F58091C603E82FF0E0E553FC4F9081DB
:102330009093BB008F5F8093C60385EC88C0809329
:10234000C10390C08093C10356C08091C603909191
:10235000BB00E82FF0E0E553FC4F90838F5F809344
:10236000C6039091C6038091C5036DC08091C603DA
:102370009091BB00E82FF0E0E553FC4F90838F5F16
:102380008093C6038091C80381116CC081E0809363
:10239000C70384EA60C083E08093CA031092C2033B
:1023A000CCCF8091C203803208F050C08091C2032C
:1023B0009091BB00E82FF0E0E15FFB4F90838F5FCF
:1023C0008093C203BACF8091C203803230F4E0918F
:1023D000C203F0E0E15FFB4F10820E9405116091A3
:1023E000C203E0910B04F0910C0470E08FE094E0E4
:1023F00009951092C2030E940F1136C084E08093A9
:10240000CA031092C4031092C303E0910D04F0912B
:102410000E0409958091C303811105C081E080936A
:10242000C3031092EB038091C403E82FF0E0E55161
:10243000FC4F90819093BB008F5F8093C403909179
:10244000C4038091C303981708F477CF85E880937D
:10245000BC000AC085EC8093BC001092CA0304C083
:102460001092C1030E940511FF91EF91BF91AF91AE
:102470009F918F917F916F915F914F913F912F919C
:102480000F900FBE0F901F9018951F920F920FB6CE
:102490000F9211242F933F938F939F93AF93BF93EA
:1024A00080912F0490913004A0913104B0913204B6
:1024B00030913704232F2D5F2D3720F40196A11D75
:1024C000B11D05C0232F2A570296A11DB11D2093CF
:1024D000370480932F0490933004A0933104B09379
:1024E00032048091330490913404A0913504B0916A
:1024F00036040196A11DB11D8093330490933404DA
:10250000A0933504B0933604BF91AF919F918F9102
:102510003F912F910F900FBE0F901F9018950F9322
:102520001F938FB7F89400912F04109130042091DD
:102530003104309132048FBFB801C9011F910F914E
:1025400008950F931F939FB7F8940091330410914F
:102550003404209135043091360486B5A89B06C01A
:102560008F3F21F00F5F1F4F2F4F3F4F9FBF322FE5
:10257000212F102F0027080F111D211D311D42E0B2
:10258000000F111F221F331F4A95D1F7B801C9014F
:102590001F910F910895CF92DF92EF92FF92CF9308
:1025A000DF936B017C010E94A112EB010EC00E941F
:1025B000A1126C1B7D0B683E734038F081E0C81A95
:1025C000D108E108F108C851DC4FC114D104E1047D
:1025D000F10469F7DF91CF91FF90EF90DF90CF90FA
:1025E0000895019739F0880F991F880F991F029756
:1025F0000197F1F70895789484B5826084BD84B51D
:10260000816084BD85B5826085BD85B5816085BDED
:10261000EEE6F0E0808181608083E1E8F0E0108206
:10262000808182608083808181608083E0E8F0E047
:10263000808181608083E1EBF0E080818460808331
:10264000E0EBF0E0808181608083E1E9F0E080816F
:1026500082608083808181608083E0E9F0E0808116
:1026600081608083E1ECF0E0808184608083808100
:1026700082608083808181608083E3ECF0E08081F0
:1026800081608083E0ECF0E0808182608083E2EC16
:10269000F0E0808181608083EAE7F0E080818460FF
:1026A000808380818260808380818160808380815B
:1026B0008068808308958730A1F178F48330E1F059
:1026C00030F4813019F1823009F04EC022C08430DC
:1026D000B9F0863009F048C020C08A3081F130F46A
:1026E000883029F1893009F03FC025C08C3089F14C
:1026F00060F18E30C9F533C0809180008F7703C0C0
:10270000809180008F7D80938000089584B58F77BD
:1027100002C084B58F7D84BD08958091B0008F770D
:1027200003C08091B0008F7D8093B00008958091A8
:1027300090008F7707C0809190008F7D03C08091BB
:102740009000877F8093900008958091C0008F77DC
:1027500003C08091C0008F7D8093C0000895809158
:10276000C200877F8093C2000895CF93DF9390E0EB
:10277000FC01E853FF4F4491FC01EA51FF4F849163
:10278000882341F190E0880F991FFC01E05EFE4F25
:1027900025913491D9018E5E9E4FFC0185919491D3
:1027A000C82FD92F9FB7F8948C91611106C040951E
:1027B00084238C938881842308C0623041F4242FC1
:1027C000209582238C938881842B888302C0842B5C
:1027D0008C939FBFDF91CF9108950F931F93CF9359
:1027E000DF931F92CDB7DEB7282F30E0F901E85410
:1027F000FF4F8491F901E853FF4F1491F901EA5119
:10280000FF4F04910023D1F0882321F069830E94B7
:102810005B136981E02FF0E0EE0FFF1FEE5EFE4FCD
:1028200085919491DC019FB7F8948C91611103C05C
:102830001095812301C0812B8C939FBF0F90DF9156
:10284000CF911F910F910895CF93DF93282F30E000
:10285000F901E854FF4F8491F901E853FF4FD491F7
:10286000F901EA51FF4FC491CC2389F081110E94F4
:102870005B13EC2FF0E0EE0FFF1FEC5FFE4F859136
:102880009491DC018C918D2321E030E011F420E063
:1028900030E0C901DF91CF910895823108F0825173
:1028A000E82FF0E0E455FF4FE49180917B00E3FBDB
:1028B000222720F930E095E0220F331F9A95E1F7A7
:1028C0008F7D822B80937B00E7708091090120E44B
:1028D000829FC0011124E82BE0937C0080917A0054
:1028E000806480937A0080917A0086FDFCCF2091ED
:1028F000780030917900932F80E0AC01422B9A014F
:10290000C90108951F93CF93DF93182FEB0161E066
:102910000E94B513209711F460E004C0CF3FD105A9
:1029200039F461E0812FDF91CF911F910C94ED1369
:10293000E12FF0E0E854FF4FE491E73009F449C09B
:1029400078F4E33051F130F4E130E9F0E23009F0AD
:1029500088C01EC0E43059F1E63009F082C031C0B1
:10296000EA3009F452C030F4E830D9F1E93009F026
:1029700078C041C0EC3009F45FC008F450C0EE30BC
:1029800009F06FC061C084B5806884BDC7BD6EC0EA
:1029900084B5806284BDC8BD69C0809180008068B4
:1029A00080938000D0938900C09388005FC080919D
:1029B0008000806280938000D0938B00C0938A0057
:1029C00055C08091B00080688093B000C093B30080
:1029D0004DC08091B00080628093B000C093B4007D
:1029E00045C080919000806880939000D0939900BA
:1029F000C09398003BC080919000806280939000CB
:102A0000D0939B00C0939A0031C080919000886061
:102A100080939000D0939D00C0939C0027C080912C
:102A2000C00080688093C0008091C0008F7B80933D
:102A3000C000C093CF001AC08091C0008062809314
:102A4000C000C093D00012C08091C2008860809303
:102A5000C2008091C2008B7F8093C200C093D200DD
:102A600005C0C038D1050CF05CCF56CFDF91CF91B7
:102A70001F910895CF92DF92EF92FF920F931F93D1
:102A8000CF93DF936C01EB017A01E60EF71E00E0B5
:102A900010E00BC06991D601ED91FC910190F0819D
:102AA000E02DC6010995080F191FCE15DF0591F716
:102AB000C801DF91CF911F910F91FF90EF90DF90B0
:102AC000CF9008950E94FB1288E394E00E94B7180B
:102AD0000E945F08C0E0D0E00E94A2082097E1F3C6
:102AE0000E940000F9CF05C02091F100FC01219364
:102AF000CF016150C8F7289884E680933F04089579
:102B00002FB7FC012083F89467706093E900089563
:102B1000CF93DF931F92CDB7DEB7682FCE0101961A
:102B20000E9480158091F20099819FBF0F90DF91E4
:102B3000CF910895FF920F931F93CF93DF9300D00F
:102B4000CDB7DEB7F62E8A0190913E049923A9F005
:102B500057FF16C012C0289880933F049091F1004F
:102B60009193FE12F8CF4115510521F08091F200AA
:102B70008823D1F089818FBF1BC04FEF5FEF18C052
:102B8000682FCE0101967A830E9480158091F20011
:102B900090E0A8017A81801791070CF4AC01EF2D29
:102BA000F72FF40E84E6DDCF8BE68093E800E2CFCA
:102BB000CA010F900F90DF91CF911F910F91FF905D
:102BC0000895CF93DF931F92CDB7DEB741E050E079
:102BD000BE016F5F7F4F0E949A15019719F42981FA
:102BE00030E002C02FEF3FEFC9010F90DF91CF918E
:102BF0000895CF93DF931F92CDB7DEB7682FCE0134
:102C000001960E9480158091E80085FF05C0909193
:102C1000F20080E4891B01C080E099819FBF0F9082
:102C2000DF91CF9108956F927F928F929F92AF9292
:102C3000BF92CF92DF92EF92FF920F931F93CF93A9
:102C4000DF931F92CDB7DEB7C82EA42E952E8091AC
:102C50003E0481114CC02FEF3FEF64C08C2D0E94C9
:102C6000F915D82E811109C0BA94A9F361E070E07A
:102C700080E090E00E94CB1247C0282F30E002177E
:102C800013070CF4D02E0D1911096C2DCE010196ED
:102C90000E948015772041F002C01092F100DA9472
:102CA0008FEFD812FACF17C08D2DC7FC02C0F701E5
:102CB0000EC0970106C0F9012F5F3F4FE491E093EA
:102CC000F1008150C0F705C091919093F1008150BF
:102CD000D8F7ED0CF11C8091E80085FF20C00115AC
:102CE000110511F461101BC089818FBF0DC07B01DC
:102CF000042F152F8AEFB82E90E2792E7C202AE33C
:102D0000822E30E4632E6C200115110509F0A6CF48
:102D10005D9884E6809340042A2D392D03C080926B
:102D2000E800E2CFC9010F90DF91CF911F910F9181
:102D3000FF90EF90DF90CF90BF90AF909F908F90DB
:102D40007F906F9008951092E90010923D041092C8
:102D50003C0490933B0480933A040895FF920F93B0
:102D60001F93CF93DF939A01DB0160E070E0EEEFF9
:102D7000FE2E35C0ED01219687FF04C0FD01DE0166
:102D8000E49102C0EC91DE0100913C0410913D04FD
:102D9000C0913A04D0913B040C171D07ACF49091FC
:102DA000E8009570E1F39091E80092FD1DC0E0937A
:102DB000F100E0913C04F0913D043196EF73FF2760
:102DC000EF2B11F4F092E800E0913C04F0913D0407
:102DD0003196F0933D04E0933C046F5F7F4F6217A0
:102DE000730741F69A0102C02FEF3FEFC901DF914F
:102DF000CF911F910F91FF9008951F93CF93DF9371
:102E00001F92CDB7DEB7162F2091E80022FFFCCF2E
:102E1000612F79830E9473158BEF8093E800812FD7
:102E20007981972F0F90DF91CF911F910895CF93C4
:102E3000DF931F92CDB7DEB71982CE0101960E94B3
:102E4000AE19CE0101960E94471A898190E00F9039
:102E5000DF91CF9108951F920F920FB60F92112418
:102E6000EF92FF920F931F932F933F934F935F9394
:102E70006F937F938F939F93AF93BF93EF93FF9342
:102E8000CF93DF93CDB7DEB76297DEBFCDBF109291
:102E9000E9008091E80083FFE3C068E0CE010A9674
:102EA0000E94731582EF8093E8009A8597FF05C012
:102EB0008091E80080FFFCCF03C08EEF8093E80094
:102EC000892F807609F0B1C08B85811103C01092E3
:102ED000F100BFC0813009F4BCC0833009F4B9C02F
:102EE000853049F48091E80080FFFCCF8C858068B4
:102EF0008093E300AEC0863009F06FC02D85E8886E
:102F0000F988223071F580E090E02A8B0E94A316A8
:102F10000E94171799E08E010F5F1F4FF801392F9C
:102F200011923A95E9F799832A892A8391E09E8341
:102F300090E898879AEF998720913C0430913D045E
:102F4000275F3F4F3C832B838D83C7010E94A316CD
:102F500049E050E0B80180E00E94AE160E941717C9
:102F600078C0C7012A8B0E94A3162A89223241F415
:102F700082E290E00E94521A892B09F06AC06DC06B
:102F8000213071F488899989089719F481E0809338
:102F9000390480913904882389F063E371E016C015
:102FA000233009F05AC08C85882359F0823061F0B3
:102FB000813009F052C067E571E008C065E471E056
:102FC00005C061E971E002C06FE671E0FB01449168
:102FD00050E080E80E94AE163CC0873009F43DC046
:102FE000883021F481E08093F10033C0893089F585
:102FF000937099F5EFE2F1E081E021E096E38093B0
:10300000E9002093EB0034913093EC009093ED00B5
:103010008F5F3196853099F78EE78093EA001092A2
:10302000EA008C8580933E0414C0888999890E94A7
:10303000A3168E85811105C0CE010A960E94B9198A
:1030400006C0823051F4CE010A960E947A1A882373
:1030500021F08EEF8093E80003C081E28093EB00C3
:1030600062960FB6F894DEBF0FBECDBFDF91CF9151
:10307000FF91EF91BF91AF919F918F917F916F9150
:103080005F914F913F912F911F910F91FF90EF9082
:103090000F900FBE0F901F9018958093E9008091BC
:1030A000F200882319F08AE38093E80008951F92C4
:1030B0000F920FB60F9211242F933F934F935F936C
:1030C0006F937F938F939F93AF93BF93EF93FF93F0
:1030D0008091E1001092E10083FF0FC01092E9009F
:1030E00091E09093EB001092EC0092E39093ED004E
:1030F00010923E0498E09093F00082FF27C083E096
:103100000E944D1804C081E494E00E94901982E06E
:103110000E9488158111F7CF80914004882339F0EF
:1031200080914004815080934004882361F0809115
:103130003F04882359F080913F04815080933F04DD
:10314000882319F003C05D9AF2CF289AFF91EF917E
:10315000BF91AF919F918F917F916F915F914F91AF
:103160003F912F910F900FBE0F901F9018951092C6
:103170003E0481E08093D70080EA8093D80082E10A
:1031800089BD09B400FEFDCF61E070E080E090E011
:103190000E94CB1280E98093D8008CE08093E200FB
:1031A0001092E000559A209A08954F925F926F9284
:1031B0007F92AF92BF92CF92DF92EF92FF920F93E6
:1031C0001F93CF93DF93CDB7DEB729013A01621B7E
:1031D000730B840B950B29893A894B895C892A19D1
:1031E0003B094C095D09298B3A8B4B8B5C8B9B010E
:1031F000AC0169897A898B899C890E946C1BE418CF
:10320000F50806091709A80197010E94AA1B2A0DB3
:103210003B1D4C1D5D1DB901CA01DF91CF911F916E
:103220000F91FF90EF90DF90CF90BF90AF907F9085
:103230006F905F904F90089520918F04309190048B
:103240008091910490919204281B390B2F7333279E
:10325000C901089520918F043091900480919104C8
:10326000909192042817390749F0E0919104F09168
:103270009204E15BFB4F208130E002C02FEF3FEF73
:10328000C901089520918F04309190048091910498
:103290009091920428173907A1F0E0919104F091E0
:1032A0009204E15BFB4F2081809191049091920404
:1032B00001968F739927909392048093910430E044
:1032C00002C02FEF3FEFC90108950F931F93CF93D3
:1032D000DF931F92CDB7DEB78C0169838091110116
:1032E000882369F041E050E0BE016F5F7F4F83E0CB
:1032F0000E9413161816190614F49C0107C081E0E9
:1033000090E0F8019383828320E030E0C9010F90C0
:10331000DF91CF911F910F91089583E00C944D1888
:1033200082E00E94E11520918F04309190042F5F7C
:103330003F4F2F73332740919104509192042417EB
:10334000350759F0E0918F04F0919004E15BFB4F59
:1033500080833093900420938F040895FC01208192
:103360002E5F208342E450E065E971E080E80C9430
:10337000AE16FC0181819081913A59F4813209F0B5
:103380004BC047E050E06AE071E080E00E94AE167A
:1033900045C0913209F040C0803239F467E070E0F6
:1033A0008AE091E00E94FD1639C0823209F034C0F3
:1033B00082818093110180910A0190910B01A0916B
:1033C0000C01B0910D01803B9440A105B10531F590
:1033D0008091110180FD12C087E797E79093010863
:1033E000809300082BE088E190E00FB6F894A89550
:1033F000809360000FBE2093600010C088E10FB67C
:10340000F89480936000109260000FBEA89510920F
:1034100001081092000802C080E0089581E008953C
:103420000895109244041092430488EE93E0A0E0C3
:10343000B0E08093450490934604A0934704B09372
:10344000480489ED91E090934204809341040895EB
:10345000FF920F931F93CF93DF93EC01F62EE88139
:10346000F9810480F581E02D09958C01E881F981CD
:103470000680F781E02D6F2DCE0109959801332745
:10348000C901DF91CF911F910F91FF900895FC0129
:1034900020812F5F208349E150E067E572E080E8FA
:1034A0000C94AE1645E650E060E772E080E80C94BC
:1034B000AE16EF92FF920F931F93CF93DF931F925D
:1034C000CDB7DEB789838B017A0141E050E0BE01C0
:1034D0006F5F7F4F84E00E941316A701B80184E458
:1034E0000E9413160F90DF91CF911F910F91FF90C3
:1034F000EF900895FC0191818081813A31F481E05F
:10350000913091F0933091F010C0813271F49B3082
:1035100021F482818093130105C09A3031F48281B5
:103520008093120181E00895089580E0089548E0B5
:1035300050E082E00C94591AFC0116821782108622
:103540001186128613861482BC016C5F7F4F0C9427
:10355000971AE62F683810F0E85824C0F0E067FFAB
:1035600012C0E058F10921E030E001C0220FEA95D5
:10357000EAF72095DC0114963C91149732231496B7
:103580003C93E0E00FC0E952FE4FE491EE2329F1B5
:10359000E7FF08C0DC0114962C9114972D7F149638
:1035A0002C93EF7720E030E0EE2351F0DC01A20F06
:1035B000B31F16964C9116974E1302C016961C9286
:1035C0002F5F3F4F2630310579F7BC016C5F7F4F8D
:1035D0000E94971A21E030E002C020E030E0C901EB
:1035E0000895CF93DF93DC01E62F683810F0E85898
:1035F00024C0F0E067FF11C0E058F10981E090E0DD
:1036000001C0880FEA95EAF714969C911497982BBD
:1036100014969C931497E0E010C0E952FE4FE49199
:10362000E11101C040C0E7FF08C014968C911497C7
:10363000826014968C931497EF7716968C91169758
:103640008E1741F117968C9117978E1719F11896CE
:103650008C9118978E17F1F019968C9119978E17F7
:10366000C9F01A968C911A978E17A1F01B968C911F
:103670001B978E1779F080E090E0ED01C80FD91FFD
:103680002E81211102C0EE8305C00196863091057E
:10369000A1F709C0BD016C5F7F4FCD010E94971A51
:1036A00021E030E008C081E090E013969C938E9377
:1036B000129720E030E0C901DF91CF910895109278
:1036C0009F0410929604109295048BEE91E09093D3
:1036D0009404809393040895DB018F939F930E9439
:1036E000C61BBF91AF91A29F800D911DA39F900D0E
:1036F000B29F900D11240895991B79E004C0991F81
:10370000961708F0961B881F7A95C9F7809508953B
:10371000A1E21A2EAA1BBB1BFD010DC0AA1FBB1FD5
:10372000EE1FFF1FA217B307E407F50720F0A21B47
:10373000B30BE40BF50B661F771F881F991F1A94B4
:1037400069F760957095809590959B01AC01BD01DE
:10375000CF010895052E97FB16F4009407D057FD6E
:103760000DD00E94881B07FC09D07EF490958095AF
:10377000709561957F4F8F4F9F4F0895509540955D
:10378000309521953F4F4F4F5F4F08950E94D71BB3
:10379000A59F900DB49F900DA49F800D911D1124A5
:1037A0000895EE0FFF1F0590F491E02D0994A29F5C
:1037B000B001B39FC001A39F01D0B29F700D811DC6
:1037C0001124911D08950F931F93CF93DF9382309F
:1037D000910510F482E090E0E091A204F091A3043E
:1037E00020E030E0C0E0D0E023C0408151814817A4
:1037F0005907A8F04817590761F4828193812097EF
:1038000019F09B838A832EC09093A3048093A20413
:1038100029C02115310529F04217530710F0A901DD
:1038200002C0BE01DF0102811381EF019A01F8019C
:103830003097D9F62115310509F1281B390B2430B1
:10384000310590F412968D919C9113976115710535
:1038500021F0FB019383828304C09093A30480939F
:10386000A204FD01329644C0FD01E20FF31F8193D3
:103870009193225031092D933C933AC02091A0049A
:103880003091A104232B41F42091020130910301D6
:103890003093A1042093A0042091000130910101F4
:1038A0002115310541F42DB73EB7409104015091E7
:1038B0000501241B350BE091A004F091A104E2174F
:1038C000F307A0F42E1B3F0B2817390778F0AC0143
:1038D0004E5F5F4F2417350748F04E0F5F1F509320
:1038E000A1044093A0048193919302C0E0E0F0E032
:1038F000CF01DF91CF911F910F910895EF92FF9229
:103900000F931F93CF93DF93009709F48EC0DC01D0
:10391000129713961C921E921297E090A204F090B8
:10392000A304E114F10489F42D913C911197280F1F
:10393000391F8091A0049091A1048217930789F503
:10394000B093A104A093A00470C0E70120E030E090
:1039500001C0EA01CA17DB0738F44A815B819E0186
:1039600041155105B1F722C0AC0142505109FA018D
:10397000D383C28300811181BC01600F711F6C175A
:103980007D0761F468817981600F711F6E5F7F4FE1
:10399000718360836A817B81738362832115310522
:1039A00029F4B093A304A093A2043FC0F901B38308
:1039B000A283E90149915991C40FD51FAC17BD07E6
:1039C00071F4DC019E918E91840F951F0296918374
:1039D000808312968D919C91139793838283A0E0AC
:1039E000B0E002C0D7017C01F7018281938100978A
:1039F000C9F7C701029620813181820F931F209160
:103A0000A0043091A1042817390779F4109729F4FC
:103A10001092A3041092A20404C013961C921E924A
:103A20001297F092A104E092A004CDB7DEB7E6E0D1
:103A30000C945A1DFB01DC014150504048F00190AC
:103A40000D920020C9F701C01D9241505040E0F78F
:103A50000895FC0181E090E00190061609F4CF0181
:103A60000020D1F701970895FB0151915523A9F04A
:103A7000BF01DC014D9145174111E1F759F4CD012A
:103A80000190002049F04D9140154111C9F3FB010F
:103A90004111EFCF81E090E0019708952A8839889D
:103AA00048885F846E847D848C849B84AA84B984D6
:103AB000C884DF80EE80FD800C811B81AA81B981E2
:103AC000CE0FD11D0FB6F894DEBF0FBECDBFED01F6
:063AD0000895F894FFCFF9
:103AD6000000A4042000FF13000100E10000000024
:103AE600000001014932432052656164204572722B
:103AF6006F723A20546F6F206D616E79206279740F
:103B06006573207265636569766564004932432092
:103B160052656164204572726F723A20546F6F204D
:103B26006665772062797465732072656365697668
:103B3600656400556E6B6E6F776E2070696E206DD2
:103B46006F64650031302D6269742061646472654A
:103B56007373696E67206D6F6465206973206E6F7D
:103B6600742079657420737570706F727465640063
:103B7600746F6F206D616E792071756572696573FA
:103B8600007372632F736B657463682E696E6F00C2
:103B96002E6370700000000000B80F8A0F5C0F657E
:103BA6000F790F890F0000000065193A151C19429C
:103BB600192A198D19901900000000281A3A15F1D2
:063BC6001AA91A9C1A0066
:00000001FF
