:100000000C9432010C945A010C945A010C945A012C
:100010000C945A010C945A010C945A010C945A01F4
:100020000C945A010C945A010C940B080C94DF06A2
:100030000C945A010C945A010C945A010C945A01D4
:100040000C945A010C945A010C945A010C945A01C4
:100050000C945A010C945A010C945A010C941C02F1
:100060000C945A010C945A010C945A010C945A01A4
:100070000C945A010C945A010C945A010C945A0194
:100080000C945A010C945A010C945A010C945A0184
:100090000C945A010C945A010C945A010C945A0174
:1000A0000C945A010C945A010C945A0100C180819D
:1000B000C11201000202000040412336800001010C
:1000C00002000112010002000000404123368000BE
:1000D000010102000118034100720064007500690B
:1000E000006E006F0020004C004C004300220341D2
:1000F0000072006400750069006E006F0020004C03
:100100000065006F006E006100720064006F000403
:10011000030904080B0002020201000904000001A7
:10012000020200000524001001052401010104243D
:10013000020605240600010705810310004009049A
:100140000100020A00000007050202400000070546
:100150008302400000070605040100080A0B0C0D8D
:100160000900000000000000002A2B280000000009
:10017000000000000000000000000000000000007F
:10018000002C9EB4A0A1A2A434A6A7A5AE362D37FC
:1001900038271E1F20212223242526B333B62EB74D
:1001A000B89F8485868788898A8B8C8D8E8F909165
:1001B00092939495969798999A9B9C9D2F3130A3F2
:1001C000AD350405060708090A0B0C0D0E0F1011BA
:1001D00012131415161718191A1B1C1DAFB1B0B540
:1001E00000090402000103000000092101010001CF
:1001F0002265000705840340000105010902A101F1
:100200000901A1008501050919012903150025012E
:10021000950375018102950175058103050109307A
:10022000093109381581257F750895038106C0C0FD
:1002300005010906A1018502050719E029E7150056
:1002400025017501950881029501750881039506C0
:100250007508150025650507190029658100C0008E
:100260007E09CC0A11241FBECFEFDAE0DEBFCDBF7E
:1002700011E0A0E0B1E0E4E3FAE102C005900D92E4
:10028000A63AB107D9F712E0A6EAB1E001C01D9283
:10029000AB31B107E1F712E0C4E6D2E004C0229727
:1002A000FE010E94140DC036D107C9F70E94160541
:1002B0000C94180D0C94000060E875E28CEB91E052
:1002C0000C947D09CF92DF92EF92FF920F931F93D0
:1002D000CF93DF938091A8010E9416039093A7010A
:1002E0008093A601BC01882777FD8095982F0E94F6
:1002F000DD0B20E030E040EA5BE30E948D0C8B01D7
:10030000D82FC92F762FCE01272F312F492F582FC5
:1003100060E070E080EA90E40E94D90AFE01202F9C
:10032000312F4F2F5E2F0E94420B20910001309100
:10033000010140910201509103010E948D0C9B012B
:10034000AC0160E070E08AEF93E40E94420B0E94EF
:10035000AA0B6B017C016FE071E08CEB91E00E94D5
:1003600083034AE050E0B6018CEB91E00E945E040A
:100370006FE171E08CEB91E00E94830365E271E034
:100380008CEB91E00E94830322E030E0CE01402F0D
:10039000512F692F782F8CEB91E00E9414056FE2AA
:1003A00071E08CEB91E00E94830367E371E08CEBDA
:1003B00091E00E9483036091A6017091A7014AE039
:1003C00050E08CEB91E00E945E0460E471E08CEB05
:1003D00091E00E9483038091A6019091A7018A3049
:1003E00091051CF463E571E015C0883C91051CF48F
:1003F0006BE571E00FC0843F21E092071CF462E6D8
:1004000071E008C0803293401CF46BE671E002C0DA
:1004100065E771E08CEB91E00E94A20368EE73E067
:1004200080E090E0DF91CF911F910F91FF90EF90CE
:10043000DF90CF900C9490021F920F920FB60F9204
:1004400011242F933F938F939F93AF93BF938091EA
:10045000AA019091AB01A091AC01B091AD01309196
:10046000B201232F2D5F2D3720F40196A11DB11D60
:1004700005C0232F2A570296A11DB11D2093B2015A
:100480008093AA019093AB01A093AC01B093AD010E
:100490008091AE019091AF01A091B001B091B101F6
:1004A0000196A11DB11D8093AE019093AF01A09361
:1004B000B001B093B101BF91AF919F918F913F91E6
:1004C0002F910F900FBE0F901F9018950F931F93B1
:1004D0009FB7F8940091AE011091AF012091B00147
:1004E0003091B10186B5A89B06C08F3F21F00F5F08
:1004F0001F4F2F4F3F4F9FBF322F212F102F00270D
:10050000080F111D211D311D42E0000F111F221F78
:10051000331F4A95D1F7B801C9011F910F91089572
:10052000CF92DF92EF92FF92CF93DF936B017C012A
:100530000E946602EB010EC00E9466026C1B7D0BDE
:10054000683E734038F081E0C81AD108E108F1082C
:10055000C851DC4FC114D104E104F10469F7DF9103
:10056000CF91FF90EF90DF90CF900895789484B56D
:10057000826084BD84B5816084BD85B5826085BD9F
:1005800085B5816085BDEEE6F0E080818160808385
:10059000E1E8F0E010828081826080838081816068
:1005A0008083E0E8F0E0808181608083E1EBF0E02F
:1005B000808184608083E0EBF0E0808181608083D3
:1005C000E1E9F0E0808182608083808181608083C6
:1005D000E0E9F0E0808181608083E1ECF0E08081FF
:1005E0008460808380818260808380818160808359
:1005F000E3ECF0E0808181608083E0ECF0E08081DA
:1006000082608083E2ECF0E0808181608083EAE7B1
:10061000F0E080818460808380818260808380813B
:10062000816080838081806880830895823108F0B2
:100630008251E82FF0E0EB5AFE4FE49180917B006D
:10064000E3FB222720F930E095E0220F331F9A9533
:10065000E1F78F7D822B80937B00E770809104010E
:1006600020E4829FC0011124E82BE0937C0080915C
:100670007A00806480937A0080917A0086FDFCCFB6
:100680002091780030917900932F80E0AC01422BCB
:100690009A01C9010895CF92DF92EF92FF920F93D2
:1006A0001F93CF93DF936C01EB017A01E60EF71EE7
:1006B00000E010E00BC06991D601ED91FC91019032
:1006C000F081E02DC6010995080F191FCE15DF0531
:1006D00091F7C801DF91CF911F910F91FF90EF909B
:1006E000DF90CF900895DB010D900020E9F7AD0178
:1006F00041505109461B570BDC01ED91FC910280E2
:10070000F381E02D09940C947303DC01ED91FC91CD
:100710000190F081E02D09940F931F93CF93DF9305
:10072000EC016DE00E9485038C016AE0CE010E941D
:1007300085039C01200F311FC901DF91CF911F91CB
:100740000F9108950F931F93CF93DF93EC010E94B5
:1007500073038C01CE010E948C039801280F391F6E
:10076000C901DF91CF911F910F9108955F926F9210
:100770007F928F929F92AF92BF92CF92DF92EF9231
:10078000FF920F931F93CF93DF93CDB7DEB7A1975F
:100790000FB6F894DEBF0FBECDBF3C016A017B01EE
:1007A000522E19A281E0821710F08AE0582E8E0195
:1007B0000F5D1F4F852C912CA12CB12CC701B601C8
:1007C000A50194010E94F00C8C2D529E80191124D9
:1007D000015011098A3014F4805D01C0895CF80170
:1007E000808369017A01C114D104E104F10431F775
:1007F000B801C3010E947303A1960FB6F894DEBF3F
:100800000FBECDBFDF91CF911F910F91FF90EF9061
:10081000DF90CF90BF90AF909F908F907F906F9020
:100820005F900895CF92DF92EF92FF920F931F9304
:10083000CF93DF93EC016A017B012115310579F437
:10084000E881F9810190F081E02D642FDF91CF9153
:100850001F910F91FF90EF90DF90CF9009942A3075
:10086000310519F477FD0EC02AE0B701A601CE01CB
:10087000DF91CF911F910F91FF90EF90DF90CF907C
:100880000C94B6036DE20E9485038C014427552722
:10089000BA014C195D096E097F092AE0CE010E9458
:1008A000B6039C01200F311FC901DF91CF911F9129
:1008B0000F91FF90EF90DF90CF9008959A01AB01D8
:1008C000662757FD6095762F0C9412044F925F9225
:1008D0006F927F928F929F92AF92BF92CF92DF9250
:1008E000EF92FF920F931F93CF933C014A015B015C
:1008F000C22F20E030E0A901C501B4010E943E0BE7
:1009000087FF0AC06DE2C3010E9485032C01B7FA7C
:10091000B094B7F8B09402C0412C512C10E060E0C4
:1009200070E080E09FE307C020E030E040E251E467
:100930000E94420B1F5F1C13F7CF262F372F482F23
:10094000592FC501B4010E94DA0A962EA72EB82E9F
:10095000C92E0E94AF0BD62EE72EF82E192F0E941B
:10096000DB0B9B01AC01692D7A2D8B2D9C2D0E94F8
:10097000D90AC62EB72EA82E992E2AE04D2D5E2D0F
:100980006F2D712FC3010E94B6038C01040D151D3C
:10099000CC23B9F164E871E0C3010E947303080F2E
:1009A000191F2FC020E030E040E251E46C2D7B2D78
:1009B0008A2D992D0E948D0C4B015C01792D9B2D68
:1009C0000E94AA0B6B01EE24D7FCE094FE2C2AE0D7
:1009D00030E0B701A601C3010E941204080F191FDD
:1009E000C701B6010E94DD0B9B01AC01682D792D7A
:1009F0008A2D9B2D0E94D90AC62EB72EA82E992E7D
:100A0000C150C111CFCFC801CF911F910F91FF905D
:100A1000EF90DF90CF90BF90AF909F908F907F909E
:100A20006F905F904F9008950C9466040E94B602F8
:100A300083EB91E00E946B080E945C01C0E0D0E073
:100A40000E9462012097E1F30E940000F9CF05C0E7
:100A50002091F100FC012193CF016150C8F7289843
:100A600084E68093BA0108952FB7FC012083F8949F
:100A700067706093E9000895CF93DF931F92CDB71D
:100A8000DEB7682FCE0101960E9434058091F200F6
:100A900099819FBF0F90DF91CF910895FF920F939F
:100AA0001F93CF93DF9300D0CDB7DEB7F62E8A0128
:100AB0009091B9019923A9F057FF16C012C0289848
:100AC0008093BA019091F1009193FE12F8CF4115F5
:100AD000510521F08091F2008823D1F089818FBFE8
:100AE0001BC04FEF5FEF18C0682FCE0101967A83CD
:100AF0000E9434058091F20090E0A8017A8180176D
:100B000091070CF4AC01EF2DF72FF40E84E6DDCF46
:100B10008BE68093E800E2CFCA010F900F90DF913F
:100B2000CF911F910F91FF900895CF93DF931F9264
:100B3000CDB7DEB741E050E0BE016F5F7F4F0E944E
:100B40004E05019719F4298130E002C02FEF3FEFE5
:100B5000C9010F90DF91CF910895CF93DF931F923A
:100B6000CDB7DEB7682FCE0101960E943405809183
:100B7000E80085FF05C09091F20080E4891B01C068
:100B800080E099819FBF0F90DF91CF9108956F9280
:100B90007F928F929F92AF92BF92CF92DF92EF920D
:100BA000FF920F931F93CF93DF931F92CDB7DEB7C2
:100BB000C82EA42E952E8091B90181114CC02FEF23
:100BC0003FEF64C08C2D0E94AD05D82E811109C065
:100BD000BA94A9F361E070E080E090E00E94900296
:100BE00047C0282F30E0021713070CF4D02E0D1940
:100BF00011096C2DCE0101960E943405772041F039
:100C000002C01092F100DA948FEFD812FACF17C019
:100C10008D2DC7FC02C0F7010EC0970106C0F90177
:100C20002F5F3F4FE491E093F1008150C0F705C082
:100C300091919093F1008150D8F7ED0CF11C8091C7
:100C4000E80085FF20C00115110511F461101BC0DB
:100C500089818FBF0DC07B01042F152F8AEFB82E1D
:100C600090E2792E7C202AE3822E30E4632E6C20E1
:100C70000115110509F0A6CF5D9884E68093BB01AC
:100C80002A2D392D03C08092E800E2CFC9010F90D0
:100C9000DF91CF911F910F91FF90EF90DF90CF9058
:100CA000BF90AF909F908F907F906F90089510921B
:100CB000E9001092B8011092B7019093B6018093A9
:100CC000B5010895FF920F931F93CF93DF939A017D
:100CD000DB0160E070E0EEEFFE2E35C0ED01219605
:100CE00087FF04C0FD01DE01E49102C0EC91DE014A
:100CF0000091B7011091B801C091B501D091B60132
:100D00000C171D07ACF49091E8009570E1F39091F9
:100D1000E80092FD1DC0E093F100E091B701F09171
:100D2000B8013196EF73FF27EF2B11F4F092E80032
:100D3000E091B701F091B8013196F093B801E093DA
:100D4000B7016F5F7F4F6217730741F69A0102C0C8
:100D50002FEF3FEFC901DF91CF911F910F91FF90CE
:100D600008951F93CF93DF931F92CDB7DEB7162F51
:100D70002091E80022FFFCCF612F79830E94270594
:100D80008BEF8093E800812F7981972F0F90DF916F
:100D9000CF911F910895CF93DF931F92CDB7DEB708
:100DA0001982CE0101960E941B09CE0101960E9474
:100DB000B409898190E00F90DF91CF9108951F923F
:100DC0000F920FB60F921124EF92FF920F931F9381
:100DD0002F933F934F935F936F937F938F939F9343
:100DE000AF93BF93EF93FF93CF93DF93CDB7DEB76E
:100DF0006297DEBFCDBF1092E9008091E80083FFCB
:100E0000E3C068E0CE010A960E94270582EF809336
:100E1000E8009A8597FF05C08091E80080FFFCCF2D
:100E200003C08EEF8093E800892F807609F0B1C06F
:100E30008B85811103C01092F100BFC0813009F48D
:100E4000BCC0833009F4B9C0853049F48091E80012
:100E500080FFFCCF8C8580688093E300AEC0863035
:100E600009F06FC02D85E888F988223071F580E09F
:100E700090E02A8B0E9457060E94CB0699E08E01D3
:100E80000F5F1F4FF801392F11923A95E9F79983B7
:100E90002A892A8391E09E8390E898879AEF998720
:100EA0002091B7013091B801275F3F4F3C832B83DE
:100EB0008D83C7010E94570649E050E0B80180E0E9
:100EC0000E9462060E94CB0678C0C7012A8B0E944E
:100ED00057062A89223241F482E290E00E94BF093B
:100EE000892B09F06AC06DC0213071F48889998915
:100EF000089719F481E08093B4018091B4018823AC
:100F000089F061EB70E016C0233009F05AC08C857F
:100F1000882359F0823061F0813009F052C065EDCC
:100F200070E008C063EC70E005C06FE071E002C0E3
:100F30006DEE70E0FB01449150E080E80E94620693
:100F40003CC0873009F43DC0883021F481E08093B3
:100F5000F10033C0893089F5937099F5EDEAF0E03E
:100F600081E021E096E38093E9002093EB00349147
:100F70003093EC009093ED008F5F3196853099F7B8
:100F80008EE78093EA001092EA008C858093B90185
:100F900014C0888999890E9457068E85811105C0E1
:100FA000CE010A960E94260906C0823051F4CE0175
:100FB0000A960E94E709882321F08EEF8093E800CB
:100FC00003C081E28093EB0062960FB6F894DEBF17
:100FD0000FBECDBFDF91CF91FF91EF91BF91AF9148
:100FE0009F918F917F916F915F914F913F912F9141
:100FF0001F910F91FF90EF900F900FBE0F901F90D9
:1010000018958093E9008091F200882319F08AE313
:101010008093E80008951F920F920FB60F9211244B
:101020002F933F934F935F936F937F938F939F93F0
:10103000AF93BF93EF93FF938091E1001092E10093
:1010400083FF0FC01092E90091E09093EB001092A3
:10105000EC0092E39093ED001092B90198E0909328
:10106000F00082FF27C083E00E94010804C08CEBDF
:1010700091E00E94FD0882E00E943C058111F7CFBB
:101080008091BB01882339F08091BB01815080930E
:10109000BB01882361F08091BA01882359F08091C7
:1010A000BA0181508093BA01882319F003C05D9A78
:1010B000F2CF289AFF91EF91BF91AF919F918F91BD
:1010C0007F916F915F914F913F912F910F900FBE44
:1010D0000F901F9018951092B90181E08093D7006E
:1010E00080EA8093D80082E189BD09B400FEFDCF7B
:1010F00061E070E080E090E00E94900280E98093DF
:10110000D8008CE08093E2001092E000559A209A7B
:10111000089520910A0230910B0280910C02909167
:101120000D02281B390B2F733327C9010895209115
:101130000A0230910B0280910C0290910D02281747
:10114000390749F0E0910C02F0910D02E653FE4F91
:10115000208130E002C02FEF3FEFC90108952091B8
:101160000A0230910B0280910C0290910D02281717
:101170003907A1F0E0910C02F0910D02E653FE4F09
:10118000208180910C0290910D0201968F73992716
:1011900090930D0280930C0230E002C02FEF3FEFDE
:1011A000C90108950F931F93CF93DF931F92CDB77B
:1011B000DEB78C01698380910C01882369F041E0DE
:1011C00050E0BE016F5F7F4F83E00E94C705181695
:1011D000190614F49C0107C081E090E0F8019383A4
:1011E000828320E030E0C9010F90DF91CF911F9101
:1011F0000F91089583E00C94010882E00E94950508
:1012000020910A0230910B022F5F3F4F2F7333273B
:1012100040910C0250910D022417350759F0E091CE
:101220000A02F0910B02E653FE4F808330930B02CB
:1012300020930A020895FC0120812E5F208342E45E
:1012400050E063E171E080E80C946206FC0181816A
:101250009081913A59F4813209F04BC047E050E057
:1012600065E071E080E00E94620645C0913209F0BD
:1012700040C0803239F467E070E085E091E00E9480
:10128000B10639C0823209F034C0828180930C01EA
:101290008091050190910601A0910701B09108018C
:1012A000803B9440A105B10531F580910C0180FD92
:1012B00012C087E797E790930108809300082BE01E
:1012C00088E190E00FB6F894A895809360000FBE77
:1012D0002093600010C088E10FB6F89480936000FE
:1012E000109260000FBEA89510920108109200089D
:1012F00002C080E0089581E0089508951092BF0132
:101300001092BE0188EE93E0A0E0B0E08093C001AF
:101310009093C101A093C201B093C3018AE891E008
:101320009093BD018093BC010895FF920F931F938A
:10133000CF93DF93EC01F62EE881F9810480F581EB
:10134000E02D09958C01E881F9810680F781E02D77
:101350006F2DCE01099598013327C901DF91CF91F7
:101360001F910F91FF900895FC0120812F5F208332
:1013700049E150E061EE71E080E80C94620645E6D8
:1013800050E06AEF71E080E80C946206EF92FF9201
:101390000F931F93CF93DF931F92CDB7DEB789834F
:1013A0008B017A0141E050E0BE016F5F7F4F84E026
:1013B0000E94C705A701B80184E40E94C7050F90E9
:1013C000DF91CF911F910F91FF90EF900895FC0155
:1013D00091818081813A31F481E0913091F09330B4
:1013E00091F010C0813271F49B3021F4828180939E
:1013F0000E0105C09A3031F4828180930D0181E0A5
:101400000895089580E0089548E050E082E00C944B
:10141000C609FC0116821782108611861286138671
:101420001482BC016C5F7F4F0C94040AE62F68386D
:1014300010F0E85824C0F0E067FF12C0E058F1094E
:1014400021E030E001C0220FEA95EAF72095DC01A7
:1014500014963C911497322314963C93E0E00FC00D
:10146000EF59FE4FE491EE2329F1E7FF08C0DC01BC
:1014700014962C9114972D7F14962C93EF7720E0DF
:1014800030E0EE2351F0DC01A20FB31F16964C9111
:1014900016974E1302C016961C922F5F3F4F2630B0
:1014A000310579F7BC016C5F7F4F0E94040A21E08F
:1014B00030E002C020E030E0C9010895CF93DF930F
:1014C000DC01E62F683810F0E85824C0F0E067FF30
:1014D00011C0E058F10981E090E001C0880FEA9561
:1014E000EAF714969C911497982B14969C93149752
:1014F000E0E010C0EF59FE4FE491E11101C040C09F
:10150000E7FF08C014968C911497826014968C9310
:101510001497EF7716968C9116978E1741F11796C0
:101520008C9117978E1719F118968C9118978E1722
:10153000F1F019968C9119978E17C9F01A968C9123
:101540001A978E17A1F01B968C911B978E1779F026
:1015500080E090E0ED01C80FD91F2E81211102C05B
:10156000EE8305C0019686309105A1F709C0BD0143
:101570006C5F7F4FCD010E94040A21E030E008C07B
:1015800081E090E013969C938E93129720E030E0D8
:10159000C901DF91CF91089510921A0210921102A1
:1015A000109210028CE991E090930F0280930E024A
:1015B00008955058BB27AA270ED075C166D130F0C8
:1015C0006BD120F031F49F3F11F41EF45BC10EF497
:1015D000E095E7FB51C1E92F77D180F3BA17620795
:1015E00073078407950718F071F49EF58FC10EF408
:1015F000E0950B2EBA2FA02D0B01B90190010C0123
:10160000CA01A0011124FF27591B99F0593F50F43A
:10161000503E68F11A16F040A22F232F342F442792
:10162000585FF3CF469537952795A795F04053958A
:10163000C9F77EF41F16BA0B620B730B840BBAF05A
:101640009150A1F0FF0FBB1F661F771F881FC2F7C5
:101650000EC0BA0F621F731F841F48F487957795D9
:101660006795B795F7959E3F08F0B3CF9395880F90
:1016700008F09927EE0F979587950895D9D008F42B
:1016800081E008950CD00FC107D140F0FED030F0BA
:1016900021F45F3F19F0F0C0511139C1F3C014D1EA
:1016A00098F39923C9F35523B1F3951B550BBB2729
:1016B000AA2762177307840738F09F5F5F4F220FD6
:1016C000331F441FAA1FA9F333D00E2E3AF0E0E8CF
:1016D00030D091505040E695001CCAF729D0FE2F1B
:1016E00027D0660F771F881FBB1F261737074807AD
:1016F000AB07B0E809F0BB0B802DBF01FF27935863
:101700005F4F2AF09E3F510568F0B6C000C15F3FB1
:10171000ECF3983EDCF3869577956795B795F7954A
:101720009F5FC9F7880F911D9695879597F9089542
:10173000E1E0660F771F881FBB1F621773078407DE
:10174000BA0720F0621B730B840BBA0BEE1F88F7ED
:10175000E095089504D06894B111D9C00895BCD023
:1017600088F09F5790F0B92F9927B751A0F0D1F08A
:10177000660F771F881F991F1AF0BA95C9F712C014
:10178000B13081F0C3D0B1E00895C0C0672F782F89
:101790008827B85F39F0B93FCCF386957795679580
:1017A000B395D9F73EF490958095709561957F4FEC
:1017B0008F4F9F4F0895E89409C097FB3EF4909592
:1017C0008095709561957F4F8F4F9F4F9923A9F01A
:1017D000F92F96E9BB279395F695879577956795A9
:1017E000B795F111F8CFFAF4BB0F11F460FF1BC0ED
:1017F0006F5F7F4F8F4F9F4F16C0882311F096E980
:1018000011C0772321F09EE8872F762F05C066232D
:1018100071F096E8862F70E060E02AF09A95660FE6
:10182000771F881FDAF7880F9695879597F908959F
:10183000990F0008550FAA0BE0E8FEEF16161706E1
:10184000E807F907C0F012161306E407F50798F049
:10185000621B730B840B950B39F40A2661F0232B62
:10186000242B252B21F408950A2609F4A140A695DE
:101870008FEF811D811D089597F99F6780E870E0C3
:1018800060E008959FEF80EC089500240A941616F6
:10189000170618060906089500240A94121613065E
:1018A000140605060895092E0394000C11F48823EC
:1018B00052F0BB0F40F4BF2B11F460FF04C06F5F08
:1018C0007F4F8F4F9F4F089557FD9058440F551FDE
:1018D00059F05F3F71F04795880F97FB991F61F0B2
:1018E0009F3F79F087950895121613061406551F29
:1018F000F2CF4695F1DF08C0161617061806991F95
:10190000F1CF86957105610508940895E894BB2789
:1019100066277727CB0197F908950BD0C4CFB5DFA1
:1019200028F0BADF18F0952309F0A6CFABCF112429
:10193000EECFCADFA0F3959FD1F3950F50E0551F6E
:10194000629FF001729FBB27F00DB11D639FAA2714
:10195000F00DB11DAA1F649F6627B00DA11D661F63
:10196000829F2227B00DA11D621F739FB00DA11D84
:10197000621F839FA00D611D221F749F3327A00D3E
:10198000611D231F849F600D211D822F762F6A2FDA
:1019900011249F5750408AF0E1F088234AF0EE0F5F
:1019A000FF1FBB1F661F771F881F91505040A9F76C
:1019B0009E3F510570F060CFAACF5F3FECF3983E99
:1019C000DCF3869577956795B795F795E7959F5FD3
:1019D000C1F7FE2B880F911D9695879597F908956D
:1019E000A1E21A2EAA1BBB1BFD010DC0AA1FBB1F23
:1019F000EE1FFF1FA217B307E407F50720F0A21B95
:101A0000B30BE40BF50B661F771F881F991F1A9401
:101A100069F760957095809590959B01AC01BD012B
:101A2000CF010895EE0FFF1F0590F491E02D09946A
:041A3000F894FFCF58
:101A3400000020410100E100000000000001014C11
:101A4400756D696E6F736964616420303A2000209B
:101A54004C75780900566F6C746167653A200020F4
:101A6400566F6C747309004F75747075743A200066
:101A74004C6967746820636F6E646974696F6E7310
:101A84003A2000202D204461726B00202D204469EF
:101A94006D00202D204C6967687400202D2042724F
:101AA4006967687400202D20566572792062726916
:101AB400676874002E0000000000D2084B038908F8
:101AC400AF089708FA08FD080000000095094B03C9
:061AD4005E0A160A090A71
:00000001FF
