:100000000C9435000C945D000C945D000C945D0024
:100010000C945D000C945D000C945D000C945D00EC
:100020000C945D000C945D000C945D000C945D00DC
:100030000C945D000C945D000C945D000C945D00CC
:100040000C9421010C945D000C9488040C94C4045D
:100050000C945D000C945D000C945D000C945D00AC
:100060000C945D000C945D007F0511241FBECFEF42
:10007000D8E0DEBFCDBF11E0A0E0B1E0E0E2F0E10A
:1000800002C005900D92AC38B107D9F712E0ACE888
:10009000B1E001C01D92A034B107E1F710E0CAE65B
:1000A000D0E004C02297FE010E940A08C836D1079A
:1000B000C9F70E94E2030C940E080C94000040E87B
:1000C00055E260E070E089E991E00C94FF04CF9282
:1000D000DF92EF92FF920F931F93CF93DF93809164
:1000E0008E010E94F60190938D0180938C01BC01DA
:1000F000882777FD8095982F0E94D30620E030E076
:1001000040EA5BE30E9483078B01D82FC92F762F2B
:10011000CE01272F312F492F582F60E070E080EA61
:1001200090E40E94CF05FE01202F312F4F2F5E2F2C
:100130000E94380620910001309101014091020196
:10014000509103010E9483079B01AC0160E070E0C5
:100150008AEF93E40E9438060E94A0066B017C019E
:1001600065E071E089E991E00E944F024AE050E0C9
:10017000B60189E991E00E942A0365E171E089E90D
:1001800091E00E944F026BE171E089E991E00E94E9
:100190004F0222E030E0CE01402F512F692F782FFF
:1001A00089E991E00E94E00365E271E089E991E06C
:1001B0000E944F026DE271E089E991E00E944F02D6
:1001C00060918C0170918D014AE050E089E991E0E5
:1001D0000E942A0366E371E089E991E00E944F02E0
:1001E00080918C0190918D018A3091051CF469E415
:1001F00071E015C0883C91051CF461E571E00FC009
:10020000843F21E092071CF468E571E008C0803269
:1002100093401CF461E671E002C06BE671E089E98D
:1002200091E00E946E0268EE73E080E090E0DF9162
:10023000CF911F910F91FF90EF90DF90CF900C9492
:1002400095011F920F920FB60F9211242F933F9397
:100250008F939F93AF93BF93809190019091910161
:10026000A0919201B091930130919801232F2D5FBD
:100270002D3720F40196A11DB11D05C0232F2A574B
:100280000296A11DB11D2093980180939001909337
:100290009101A0939201B093930180919401909168
:1002A0009501A0919601B09197010196A11DB11DF4
:1002B0008093940190939501A0939601B093970138
:1002C000BF91AF919F918F913F912F910F900FBE52
:1002D0000F901F9018950F931F939FB7F89400915C
:1002E000940110919501209196013091970186B566
:1002F000A89B06C08F3F21F00F5F1F4F2F4F3F4F2E
:100300009FBF322F212F102F0027080F111D211DF5
:10031000311D42E0000F111F221F331F4A95D1F7F4
:10032000B801C9011F910F910895CF92DF92EF920A
:10033000FF92CF93DF936B017C010E946B01EB0175
:100340000EC00E946B016C1B7D0B683E734038F041
:1003500081E0C81AD108E108F108C851DC4FC11486
:10036000D104E104F10469F7DF91CF91FF90EF90A0
:10037000DF90CF900895789484B5826084BD84B571
:10038000816084BD85B5826085BD85B5816085BD90
:10039000EEE6F0E0808181608083E1E8F0E01082A9
:1003A000808182608083808181608083E0E8F0E0EA
:1003B000808181608083E1EBF0E0808184608083D4
:1003C000E0EBF0E0808181608083EAE7F0E080810B
:1003D000846080838081826080838081816080836B
:1003E0008081806880831092C10008958E3008F06B
:1003F0008E5087702091040140E4249F90011124C5
:10040000822B80937C0080917A00806480937A00B4
:1004100080917A0086FDFCCF2091780030917900A0
:10042000932F80E0AC01422B9A01C9010895CF922D
:10043000DF92EF92FF920F931F93CF93DF936C01A4
:10044000EB017A01E60EF71E00E010E00BC06991A7
:10045000D601ED91FC910190F081E02DC601099546
:10046000080F191FCE15DF0591F7C801DF91CF9155
:100470001F910F91FF90EF90DF90CF900895DB01D7
:100480000D900020E9F7AD0141505109461B570B73
:10049000DC01ED91FC910280F381E02D09940C9434
:1004A0003F02DC01ED91FC910190F081E02D099477
:1004B0000F931F93CF93DF93EC016DE00E945102E5
:1004C0008C016AE0CE010E9451029C01200F311F75
:1004D000C901DF91CF911F910F9108950F931F9341
:1004E000CF93DF93EC010E943F028C01CE010E946A
:1004F00058029801280F391FC901DF91CF911F9130
:100500000F9108955F926F927F928F929F92AF9218
:10051000BF92CF92DF92EF92FF920F931F93CF93F0
:10052000DF93CDB7DEB7A1970FB6F894DEBF0FBE4D
:10053000CDBF3C016A017B01522E19A281E08217D6
:1005400010F08AE0582E8E010F5D1F4F852C912CE4
:10055000A12CB12CC701B601A50194010E94E607A8
:100560008C2D529E80191124015011098A3014F4E7
:10057000805D01C0895CF801808369017A01C11442
:10058000D104E104F10431F7B801C3010E943F0234
:10059000A1960FB6F894DEBF0FBECDBFDF91CF910D
:1005A0001F910F91FF90EF90DF90CF90BF90AF9091
:1005B0009F908F907F906F905F900895CF92DF9281
:1005C000EF92FF920F931F93CF93DF93EC016A0199
:1005D0007B012115310579F4E881F9810190F081E1
:1005E000E02D642FDF91CF911F910F91FF90EF903D
:1005F000DF90CF9009942A30310519F477FD0EC0B1
:100600002AE0B701A601CE01DF91CF911F910F9192
:10061000FF90EF90DF90CF900C9482026DE20E94E9
:1006200051028C0144275527BA014C195D096E0906
:100630007F092AE0CE010E9482029C01200F311F17
:10064000C901DF91CF911F910F91FF90EF90DF9043
:10065000CF9008959A01AB01662757FD6095762FDC
:100660000C94DE024F925F926F927F928F929F92D4
:10067000AF92BF92CF92DF92EF92FF920F931F93B0
:10068000CF933C014A015B01C22F20E030E0A90179
:10069000C501B4010E94340687FF0AC06DE2C301A0
:1006A0000E9451022C01B7FAB094B7F8B09402C07E
:1006B000412C512C10E060E070E080E09FE307C027
:1006C00020E030E040E251E40E9438061F5F1C1336
:1006D000F7CF262F372F482F592FC501B4010E947D
:1006E000D005962EA72EB82EC92E0E94A506D62E6E
:1006F000E72EF82E192F0E94D1069B01AC01692D1F
:100700007A2D8B2D9C2D0E94CF05C62EB72EA82E9C
:10071000992E2AE04D2D5E2D6F2D712FC3010E9461
:1007200082028C01040D151DCC23B9F16AE771E03A
:10073000C3010E943F02080F191F2FC020E030E0C4
:1007400040E251E46C2D7B2D8A2D992D0E94830768
:100750004B015C01792D9B2D0E94A0066B01EE24BC
:10076000D7FCE094FE2C2AE030E0B701A601C301DB
:100770000E94DE02080F191FC701B6010E94D306AE
:100780009B01AC01682D792D8A2D9B2D0E94CF05F0
:10079000C62EB72EA82E992EC150C111CFCFC80199
:1007A000CF911F910F91FF90EF90DF90CF90BF906E
:1007B000AF909F908F907F906F905F904F90089533
:1007C0000C9432030E94BB010E945F00CBEBD4E08B
:1007D0000E9467002097E1F30E94BB04F9CFFC015F
:1007E00084859585FC01E05CFF4F20813181FC010F
:1007F000EE5BFF4F80819181281B390B2F733327CC
:10080000C9010895FC0184859585FC01E05CFF4FDA
:1008100040815181FC01EE5BFF4F20813181421705
:10082000530741F00190F081E02DE80FF91F20817E
:1008300030E002C02FEF3FEFC9010895FC0184852D
:100840009585FC01E05CFF4F40815181FC01EE5B2E
:10085000FF4F208131814217530771F0A081B18190
:10086000A80FB91F2C918081918101968F739927D0
:100870009183808330E002C02FEF3FEFC9010895DC
:10088000FC0186859785FC01E05CFF4FDC01AE5BD7
:10089000BF4F408151812D913C91119742175307D1
:1008A000C1F70895CF93DF93FC0126853785D901E1
:1008B000A05CBF4F8D919C91119701968F739927E2
:1008C000E901CE5BDF4F4881598184179507D9F341
:1008D0000D90BC91A02DA20FB31F6C93A685B78578
:1008E000A05CBF4F11969C938E93A689B7892C91DB
:1008F00081E090E0058C02C0880F991F0A94E2F70E
:10090000282B2C9381E090E0DF91CF9108950895FA
:100910001F920F920FB60F9211242F933F934F9374
:100920008F939F93EF93FF934091C60080913C0279
:1009300090913D0201968F73992720913E0230914C
:100940003F028217930759F0E0913C02F0913D027B
:10095000E450FE4F408390933D0280933C02FF9110
:10096000EF919F918F914F913F912F910F900FBEDB
:100970000F901F90189589E991E00E94EF03892B51
:1009800011F00C94870408951F920F920FB60F92E6
:1009900011242F933F938F939F93EF93FF93209175
:1009A000F8013091F9018091FA019091FB0128172B
:1009B000390731F48091C1008F7D8093C10014C04C
:1009C000E091FA01F091FB01E854FE4F2081809103
:1009D000FA019091FB0101968F7399279093FB0187
:1009E0008093FA012093C600FF91EF919F918F9120
:1009F0003F912F910F900FBE0F901F901895CF929F
:100A0000DF92EF92FF92CF93DF93EC016A017B01BB
:100A1000411581EE580761057105F9F0EC89FD89F2
:100A200081E090E00E8C02C0880F991F0A94E2F7D3
:100A3000808360E079E08DE390E0A70196010E9459
:100A4000E6072150310941095109569547953795D7
:100A50002795211580E1380798F0EC89FD891082EF
:100A600060E874E88EE190E0A70196010E94E60735
:100A700021503109410951095695479537952795D8
:100A8000E889F9893083EA89FB892083EE89FF8927
:100A9000408181E090E09C010A8C02C0220F331F4C
:100AA0000A94E2F7422B4083EE89FF8940819C0142
:100AB0000B8C02C0220F331F0A94E2F7422B4083B3
:100AC000EE89FF8940819C010C8C02C0220F331FEC
:100AD0000A94E2F7422B4083EE89FF8920810D8C36
:100AE00002C0880F991F0A94E2F7809582238083C1
:100AF000DF91CF91FF90EF90DF90CF90089510920B
:100B00009C0110929B0188EE93E0A0E0B0E08093FE
:100B10009D0190939E01A0939F01B093A00180E856
:100B200091E090939A01809399018CEF91E09093DA
:100B3000A6018093A50188EB91E09093A801809392
:100B4000A70185EC90E09093AA018093A90184EC21
:100B500090E09093AC018093AB0180EC90E0909397
:100B6000AE018093AD0181EC90E09093B001809351
:100B7000AF0186EC90E09093B2018093B10184E0E4
:100B80008093B30183E08093B40187E08093B50143
:100B900085E08093B60181E08093B70108955058B5
:100BA000BB27AA270ED075C166D130F06BD120F0DB
:100BB00031F49F3F11F41EF45BC10EF4E095E7FBA6
:100BC00051C1E92F77D180F3BA1762077307840701
:100BD000950718F071F49EF58FC10EF4E0950B2E79
:100BE000BA2FA02D0B01B90190010C01CA01A0017F
:100BF0001124FF27591B99F0593F50F4503E68F1DA
:100C00001A16F040A22F232F342F4427585FF3CF1A
:100C1000469537952795A795F0405395C9F77EF4EB
:100C20001F16BA0B620B730B840BBAF09150A1F034
:100C3000FF0FBB1F661F771F881FC2F70EC0BA0FBA
:100C4000621F731F841F48F4879577956795B79542
:100C5000F7959E3F08F0B3CF9395880F08F099273A
:100C6000EE0F979587950895D9D008F481E00895FF
:100C70000CD00FC107D140F0FED030F021F45F3F1F
:100C800019F0F0C0511139C1F3C014D198F3992370
:100C9000C9F35523B1F3951B550BBB27AA27621740
:100CA0007307840738F09F5F5F4F220F331F441F85
:100CB000AA1FA9F333D00E2E3AF0E0E830D09150BD
:100CC0005040E695001CCAF729D0FE2F27D0660FAA
:100CD000771F881FBB1F261737074807AB07B0E8E9
:100CE00009F0BB0B802DBF01FF2793585F4F2AF0FF
:100CF0009E3F510568F0B6C000C15F3FECF3983EDF
:100D0000DCF3869577956795B795F7959F5FC9F75B
:100D1000880F911D9695879597F90895E1E0660FE4
:100D2000771F881FBB1F621773078407BA0720F05D
:100D3000621B730B840BBA0BEE1F88F7E0950895C6
:100D400004D06894B111D9C00895BCD088F09F57E1
:100D500090F0B92F9927B751A0F0D1F0660F771F07
:100D6000881F991F1AF0BA95C9F712C0B13081F0E7
:100D7000C3D0B1E00895C0C0672F782F8827B85F2F
:100D800039F0B93FCCF3869577956795B395D9F748
:100D90003EF490958095709561957F4F8F4F9F4F52
:100DA0000895E89409C097FB3EF49095809570955E
:100DB00061957F4F8F4F9F4F9923A9F0F92F96E9A7
:100DC000BB279395F695879577956795B795F1111C
:100DD000F8CFFAF4BB0F11F460FF1BC06F5F7F4FB9
:100DE0008F4F9F4F16C0882311F096E911C07723CB
:100DF00021F09EE8872F762F05C0662371F096E8D4
:100E0000862F70E060E02AF09A95660F771F881FA2
:100E1000DAF7880F9695879597F90895990F000846
:100E2000550FAA0BE0E8FEEF16161706E807F907BC
:100E3000C0F012161306E407F50798F0621B730B57
:100E4000840B950B39F40A2661F0232B242B252BD8
:100E500021F408950A2609F4A140A6958FEF811D7B
:100E6000811D089597F99F6780E870E060E008951C
:100E70009FEF80EC089500240A94161617061806B2
:100E80000906089500240A9412161306140605068E
:100E90000895092E0394000C11F4882352F0BB0F1F
:100EA00040F4BF2B11F460FF04C06F5F7F4F8F4F82
:100EB0009F4F089557FD9058440F551F59F05F3FBD
:100EC00071F04795880F97FB991F61F09F3F79F06C
:100ED00087950895121613061406551FF2CF4695EE
:100EE000F1DF08C0161617061806991FF1CF869570
:100EF0007105610508940895E894BB276627772754
:100F0000CB0197F908950BD0C4CFB5DF28F0BADF35
:100F100018F0952309F0A6CFABCF1124EECFCADF8E
:100F2000A0F3959FD1F3950F50E0551F629FF001FC
:100F3000729FBB27F00DB11D639FAA27F00DB11D55
:100F4000AA1F649F6627B00DA11D661F829F2227DE
:100F5000B00DA11D621F739FB00DA11D621F839F65
:100F6000A00D611D221F749F3327A00D611D231F3B
:100F7000849F600D211D822F762F6A2F11249F5789
:100F800050408AF0E1F088234AF0EE0FFF1FBB1FAC
:100F9000661F771F881F91505040A9F79E3F51054B
:100FA00070F060CFAACF5F3FECF3983EDCF38695FC
:100FB00077956795B795F795E7959F5FC1F7FE2BF6
:100FC000880F911D9695879597F90895A1E21A2E9D
:100FD000AA1BBB1BFD010DC0AA1FBB1FEE1FFF1FDD
:100FE000A217B307E407F50720F0A21BB30BE40B2D
:100FF000F50B661F771F881F991F1A9469F7609574
:101000007095809590959B01AC01BD01CF0108952D
:10101000EE0FFF1F0590F491E02D0994F894FFCF97
:1010200000002041014C756D696E6F7369646164E5
:1010300020303A2000204C75780900566F6C74619E
:1010400067653A200020566F6C747309004F757401
:101050007075743A20004C6967746820636F6E6421
:101060006974696F6E733A2000202D204461726BA1
:1010700000202D2044696D00202D204C6967687484
:1010800000202D2042726967687400202D2056656B
:10109000727920627269676874002E000000000097
:0C10A00052041702EF031E040204400477
:00000001FF
