:100000000C945E010C9486010C9486010C9486017C
:100010000C9486010C9486010C9486010C94860144
:100020000C9486010C9486010C9467070C943B0693
:100030000C9486010C9486010C9486010C94860124
:100040000C9486010C9486010C9486010C94860114
:100050000C9486010C9486010C9486010C94F20198
:100060000C9486010C9486010C9486010C948601F4
:100070000C9486010C9486010C9486010C948601E4
:100080000C9486010C9486010C9486010C948601D4
:100090000C9486010C9486010C9486010C948601C4
:1000A0000C9486010C9486010C94860107060504C5
:1000B0000100080A0B0C0D090408020110408040E1
:1000C000102040804080080204018040201002017E
:1000D00010801020404004040404040304050202BC
:1000E00002020403020202020606060606060404D1
:1000F0000202020400000000250028002B002E0050
:10010000310000000000240027002A002D003000EC
:1001100000C18081C112010002020000404123366B
:1001200080000101020001120100020000004041B4
:1001300023368000010102000118034100720064AF
:1001400000750069006E006F0020004C004C0043F9
:10015000002203410072006400750069006E006FA8
:100160000020004C0065006F006E006100720064AA
:10017000006F0004030904080B00020202010009D9
:100180000400000102020000052400100105240102
:10019000010104240206052406000107058103105D
:1001A000004009040100020A0000000705020240A5
:1001B000000007058302400000000000000000006E
:1001C000002A2B28000000000000000000000000B2
:1001D0000000000000000000002C9EB4A0A1A2A41A
:1001E00034A6A7A5AE362D3738271E1F202122237F
:1001F000242526B333B62EB7B89F84858687888991
:100200008A8B8C8D8E8F90919293949596979899D6
:100210009A9B9C9D2F3130A3AD3504050607080934
:100220000A0B0C0D0E0F10111213141516171819B6
:100230001A1B1C1DAFB1B0B5000904020001030078
:100240000000092101010001226500070584034027
:10025000000105010902A1010901A10085010509AB
:1002600019012903150025019503750181029501E6
:100270007505810305010930093109381581257F8C
:10028000750895038106C0C005010906A101850214
:10029000050719E029E71500250175019508810278
:1002A00095017508810395067508150025650507F4
:1002B000190029658100C000DA08280A11241FBE30
:1002C000CFEFDAE0DEBFCDBF11E0A0E0B1E0E4E2C5
:1002D000F5E102C005900D92AE33B107D9F711E0F8
:1002E000AEE3B1E001C01D92A13BB107E1F712E01E
:1002F000CCEBD2E004C02297FE010E948C0AC83BDE
:10030000D107C9F70E9472040C94900A0C94000063
:1003100060E875E282E591E00E94D90860E081E042
:100320000C94EC02CF92DF92EF92FF9281E00E9458
:10033000240390933F0180933E014AE050E0BC01CA
:1003400082E591E00E94580420913E0130913F01E6
:10035000442737FD4095542F295F31404109510909
:10036000ACEABEE00E94350A28EE33E040E050E0FF
:100370000E94620A69017A016BE071E082E591E016
:100380000E9491032AE030E0B701A60182E591E0E6
:100390000E940C0461E171E082E591E00E9491030A
:1003A0001C141D041E041F041CF468E171E006C047
:1003B000CD28CE28CF2831F06BE171E082E591E0C5
:1003C0000E94910382E591E0FF90EF90DF90CF9043
:1003D0000C949A0368EE73E080E090E00E9466025D
:1003E0000C9492011F920F920FB60F9211242F932B
:1003F0003F938F939F93AF93BF93809140019091D0
:100400004101A0914201B091430130914801232F55
:100410002D5F2D3720F40196A11DB11D05C0232F9E
:100420002A570296A11DB11D2093480180934001D7
:1004300090934101A0934201B09343018091440104
:1004400090914501A0914601B09147010196A11DEF
:10045000B11D8093440190934501A0934601B09350
:100460004701BF91AF919F918F913F912F910F9035
:100470000FBE0F901F9018950F931F939FB7F8947E
:1004800000914401109145012091460130914701AE
:1004900086B5A89B06C08F3F21F00F5F1F4F2F4FDF
:1004A0003F4F9FBF322F212F102F0027080F111D04
:1004B000211D311D42E0000F111F221F331F4A95DD
:1004C000D1F7B801C9011F910F910895CF92DF9222
:1004D000EF92FF92CF93DF936B017C010E943C026D
:1004E000EB010EC00E943C026C1B7D0B683E73400A
:1004F00038F081E0C81AD108E108F108C851DC4F92
:10050000C114D104E104F10469F7DF91CF91FF90A8
:10051000EF90DF90CF900895789484B5826084BD89
:1005200084B5816084BD85B5826085BD85B58160F7
:1005300085BDEEE6F0E0808181608083E1E8F0E057
:100540001082808182608083808181608083E0E886
:10055000F0E0808181608083E1EBF0E08081846065
:100560008083E0EBF0E0808181608083E1E9F0E06E
:10057000808182608083808181608083E0E9F0E017
:10058000808181608083E1ECF0E080818460808301
:10059000808182608083808181608083E3ECF0E0F1
:1005A000808181608083E0ECF0E0808182608083E4
:1005B000E2ECF0E0808181608083EAE7F0E0808116
:1005C0008460808380818260808380818160808379
:1005D0008081806880830895CF93DF9390E0FC0151
:1005E000E854FF4F4491FC01EA52FF4F8491882365
:1005F00041F190E0880F991FFC01EE5FFE4F2591BD
:100600003491D9018C509F4FFC0185919491C82F52
:10061000D92F9FB7F8948C91611106C0409584231F
:100620008C938881842308C0623041F4242F209564
:1006300082238C938881842B888302C0842B8C93A3
:100640009FBFDF91CF910895823108F08251E82F4A
:10065000F0E0E455FF4FE49180917B00E3FB22271B
:1006600020F930E095E0220F331F9A95E1F78F7D56
:10067000822B80937B00E7708091000120E4829FB1
:10068000C0011124E82BE0937C0080917A00806403
:1006900080937A0080917A0086FDFCCF20917800CB
:1006A00030917900932F80E0AC01422B9A01C9016F
:1006B0000895CF92DF92EF92FF920F931F93CF9303
:1006C000DF936C01EB017A01E60EF71E00E010E00B
:1006D0000BC06991D601ED91FC910190F081E02D64
:1006E000C6010995080F191FCE15DF0591F7C8013E
:1006F000DF91CF911F910F91FF90EF90DF90CF90FE
:100700000895DB010D900020E9F7AD01415051093A
:10071000461B570BDC01ED91FC910280F381E02D2B
:1007200009940C948103DC01ED91FC910190F0811E
:10073000E02D09940F931F93CF93DF93EC016DE0AD
:100740000E9493038C016AE0CE010E9493039C01F6
:10075000200F311FC901DF91CF911F910F91089593
:100760005F926F927F928F929F92AF92BF92CF9241
:10077000DF92EF92FF920F931F93CF93DF93CDB74A
:10078000DEB7A1970FB6F894DEBF0FBECDBF3C0118
:100790006A017B01522E19A281E0821710F08AE0D3
:1007A000582E8E010F5D1F4F852C912CA12CB12C42
:1007B000C701B601A50194010E94400A8C2D529EEA
:1007C00080191124015011098A3014F4805D01C090
:1007D000895CF801808369017A01C114D104E104C4
:1007E000F10431F7B801C3010E948103A1960FB64D
:1007F000F894DEBF0FBECDBFDF91CF911F910F9157
:10080000FF90EF90DF90CF90BF90AF909F908F9030
:100810007F906F905F900895CF92DF92EF92FF925A
:100820000F931F93CF93DF93EC016A017B01211596
:10083000310579F4E881F9810190F081E02D642F90
:10084000DF91CF911F910F91FF90EF90DF90CF90AC
:1008500009942A30310519F477FD0EC02AE0B7015A
:10086000A601CE01DF91CF911F910F91FF90EF90E4
:10087000DF90CF900C94B0036DE20E9493038C0143
:1008800044275527BA014C195D096E097F092AE0F2
:10089000CE010E94B0039C01200F311FC901DF91DE
:1008A000CF911F910F91FF90EF90DF90CF9008951F
:1008B0000F931F93CF93DF93EC019A01AB0166274F
:1008C00057FD6095762F0E940C048C01CE010E948A
:1008D0009A039801280F391FC901DF91CF911F9109
:1008E0000F9108950E948C0289E491E00E94C7074D
:1008F0000E948801C0E0D0E00E94EA012097E1F365
:100900000E940000F9CF05C02091F100FC01219365
:10091000CF016150C8F7289884E68093500108956C
:100920002FB7FC012083F89467706093E900089565
:10093000CF93DF931F92CDB7DEB7682FCE0101961C
:100940000E9490048091F20099819FBF0F90DF91E7
:10095000CF910895FF920F931F93CF93DF9300D011
:10096000CDB7DEB7F62E8A0190914F019923A9F0F9
:1009700057FF16C012C02898809350019091F10043
:100980009193FE12F8CF4115510521F08091F200AC
:100990008823D1F089818FBF1BC04FEF5FEF18C054
:1009A000682FCE0101967A830E9490048091F20014
:1009B00090E0A8017A81801791070CF4AC01EF2D2B
:1009C000F72FF40E84E6DDCF8BE68093E800E2CFCC
:1009D000CA010F900F90DF91CF911F910F91FF905F
:1009E0000895CF93DF931F92CDB7DEB741E050E07B
:1009F000BE016F5F7F4F0E94AA04019719F42981FD
:100A000030E002C02FEF3FEFC9010F90DF91CF918F
:100A10000895CF93DF931F92CDB7DEB7682FCE0135
:100A200001960E9490048091E80085FF05C0909196
:100A3000F20080E4891B01C080E099819FBF0F9084
:100A4000DF91CF9108956F927F928F929F92AF9294
:100A5000BF92CF92DF92EF92FF920F931F93CF93AB
:100A6000DF931F92CDB7DEB7C82EA42E952E8091AE
:100A70004F0181114CC02FEF3FEF64C08C2D0E94BD
:100A80000905D82E811109C0BA94A9F361E070E07C
:100A900080E090E00E94660247C0282F30E00217F5
:100AA00013070CF4D02E0D1911096C2DCE010196EF
:100AB0000E949004772041F002C01092F100DA9475
:100AC0008FEFD812FACF17C08D2DC7FC02C0F701E7
:100AD0000EC0970106C0F9012F5F3F4FE491E093EC
:100AE000F1008150C0F705C091919093F1008150C1
:100AF000D8F7ED0CF11C8091E80085FF20C00115AE
:100B0000110511F461101BC089818FBF0DC07B01DD
:100B1000042F152F8AEFB82E90E2792E7C202AE33D
:100B2000822E30E4632E6C200115110509F0A6CF4A
:100B30005D9884E6809351012A2D392D03C080925F
:100B4000E800E2CFC9010F90DF91CF911F910F9183
:100B5000FF90EF90DF90CF90BF90AF909F908F90DD
:100B60007F906F9008951092E90010924E011092BC
:100B70004D0190934C0180934B010895FF920F9388
:100B80001F93CF93DF939A01DB0160E070E0EEEFFB
:100B9000FE2E35C0ED01219687FF04C0FD01DE0168
:100BA000E49102C0EC91DE0100914D0110914E01E3
:100BB000C0914B01D0914C010C171D07ACF49091E2
:100BC000E8009570E1F39091E80092FD1DC0E0937C
:100BD000F100E0914D01F0914E013196EF73FF2746
:100BE000EF2B11F4F092E800E0914D01F0914E01ED
:100BF0003196F0934E01E0934D016F5F7F4F621786
:100C0000730741F69A0102C02FEF3FEFC901DF9150
:100C1000CF911F910F91FF9008951F93CF93DF9372
:100C20001F92CDB7DEB7162F2091E80022FFFCCF30
:100C3000612F79830E9483048BEF8093E800812FDA
:100C40007981972F0F90DF91CF911F910895CF93C6
:100C5000DF931F92CDB7DEB71982CE0101960E94B5
:100C60007708CE0101960E941009898190E00F90CB
:100C7000DF91CF9108951F920F920FB60F9211241A
:100C8000EF92FF920F931F932F933F934F935F9396
:100C90006F937F938F939F93AF93BF93EF93FF9344
:100CA000CF93DF93CDB7DEB76297DEBFCDBF109293
:100CB000E9008091E80083FFE3C068E0CE010A9676
:100CC0000E94830482EF8093E8009A8597FF05C015
:100CD0008091E80080FFFCCF03C08EEF8093E80096
:100CE000892F807609F0B1C08B85811103C01092E5
:100CF000F100BFC0813009F4BCC0833009F4B9C031
:100D0000853049F48091E80080FFFCCF8C858068B5
:100D10008093E300AEC0863009F06FC02D85E8886F
:100D2000F988223071F580E090E02A8B0E94B305AB
:100D30000E94270699E08E010F5F1F4FF801392F9F
:100D400011923A95E9F799832A892A8391E09E8343
:100D500090E898879AEF998720914D0130914E0144
:100D6000275F3F4F3C832B838D83C7010E94B305D0
:100D700049E050E0B80180E00E94BE050E942706CD
:100D800078C0C7012A8B0E94B3052A89223241F418
:100D900082E290E00E941B09892B09F06AC06DC0B5
:100DA000213071F488899989089719F481E080933A
:100DB0004A0180914A01882389F065E171E016C0FB
:100DC000233009F05AC08C85882359F0823061F0B5
:100DD000813009F052C069E371E008C067E271E058
:100DE00005C063E771E002C061E571E0FB01449179
:100DF00050E080E80E94BE053CC0873009F43DC049
:100E0000883021F481E08093F10033C0893089F586
:100E1000937099F5E1E1F1E081E021E096E38093C0
:100E2000E9002093EB0034913093EC009093ED00B7
:100E30008F5F3196853099F78EE78093EA001092A4
:100E4000EA008C8580934F0114C0888999890E949B
:100E5000B3058E85811105C0CE010A960E948208D5
:100E600006C0823051F4CE010A960E9443098823BD
:100E700021F08EEF8093E80003C081E28093EB00C5
:100E800062960FB6F894DEBF0FBECDBFDF91CF9153
:100E9000FF91EF91BF91AF919F918F917F916F9152
:100EA0005F914F913F912F911F910F91FF90EF9084
:100EB0000F900FBE0F901F9018958093E9008091BE
:100EC000F200882319F08AE38093E80008951F92C6
:100ED0000F920FB60F9211242F933F934F935F936E
:100EE0006F937F938F939F93AF93BF93EF93FF93F2
:100EF0008091E1001092E10083FF0FC01092E900A1
:100F000091E09093EB001092EC0092E39093ED004F
:100F100010924F0198E09093F00082FF27C083E089
:100F20000E945D0704C082E591E00E94590882E0BA
:100F30000E9498048111F7CF80915101882339F0E4
:100F400080915101815080935101882361F08091FB
:100F50005001882359F080915001815080935001B5
:100F6000882319F003C05D9AF2CF289AFF91EF9180
:100F7000BF91AF919F918F917F916F915F914F91B1
:100F80003F912F910F900FBE0F901F9018951092C8
:100F90004F0181E08093D70080EA8093D80082E1FE
:100FA00089BD09B400FEFDCF61E070E080E090E013
:100FB0000E94660280E98093D8008CE08093E20072
:100FC0001092E000559A209A08952091A001309146
:100FD000A1018091A2019091A301281B390B2F73CD
:100FE0003327C90108952091A0013091A10180917A
:100FF000A2019091A3012817390749F0E091A201BD
:10100000F091A301E05AFE4F208130E002C02FEFA3
:101010003FEFC90108952091A0013091A101809175
:10102000A2019091A30128173907A1F0E091A20134
:10103000F091A301E05AFE4F20818091A20190918E
:10104000A30101968F7399279093A3018093A20126
:1010500030E002C02FEF3FEFC90108950F931F93B7
:10106000CF93DF931F92CDB7DEB78C016983809158
:101070000801882369F041E050E0BE016F5F7F4FB7
:1010800083E00E9423051816190614F49C0107C07A
:1010900081E090E0F8019383828320E030E0C90191
:1010A0000F90DF91CF911F910F91089583E00C94E1
:1010B0005D0782E00E94F1042091A0013091A1011E
:1010C0002F5F3F4F2F7333274091A2015091A3010F
:1010D0002417350759F0E091A001F091A101E05AE1
:1010E000FE4F80833093A1012093A0010895FC015D
:1010F00020812E5F208342E450E067E771E080E8C2
:101100000C94BE05FC0181819081913A59F48132A1
:1011100009F04BC047E050E061E071E080E00E94E0
:10112000BE0545C0913209F040C0803239F467E015
:1011300070E081E091E00E940D0639C0823209F032
:1011400034C0828180930801809101019091020155
:10115000A0910301B0910401803B9440A105B10529
:1011600031F58091080180FD12C087E797E79093E1
:101170000108809300082BE088E190E00FB6F89416
:10118000A895809360000FBE2093600010C088E196
:101190000FB6F89480936000109260000FBEA8957F
:1011A000109201081092000802C080E0089581E0CA
:1011B00008950895109255011092540188EE93E01D
:1011C000A0E0B0E08093560190935701A09358019E
:1011D000B093590182E291E09093530180935201C0
:1011E0000895FF920F931F93CF93DF93EC01F62E98
:1011F000E881F9810480F581E02D09958C01E88171
:10120000F9810680F781E02D6F2DCE0109959801B7
:101210003327C901DF91CF911F910F91FF9008955E
:10122000FC0120812F5F208349E150E069E372E0F7
:1012300080E80C94BE0545E650E062E572E080E887
:101240000C94BE05EF92FF920F931F93CF93DF9301
:101250001F92CDB7DEB789838B017A0141E050E060
:10126000BE016F5F7F4F84E00E942305A701B80194
:1012700084E40E9423050F90DF91CF911F910F917D
:10128000FF90EF900895FC0191818081813A31F4C3
:1012900081E0913091F0933091F010C0813271F47F
:1012A0009B3021F4828180930A0105C09A3031F489
:1012B00082818093090181E00895089580E0089576
:1012C00048E050E082E00C942209FC01168217826B
:1012D00010861186128613861482BC016C5F7F4FC4
:1012E0000C946009E62F683810F0E85824C0F0E04C
:1012F00067FF12C0E058F10921E030E001C0220F81
:10130000EA95EAF72095DC0114963C911497322374
:1013100014963C93E0E00FC0E754FE4FE491EE23B7
:1013200029F1E7FF08C0DC0114962C9114972D7F5A
:1013300014962C93EF7720E030E0EE2351F0DC019F
:10134000A20FB31F16964C9116974E1302C0169615
:101350001C922F5F3F4F2630310579F7BC016C5F3F
:101360007F4F0E94600921E030E002C020E030E0C1
:10137000C9010895CF93DF93DC01E62F683810F0A0
:10138000E85824C0F0E067FF11C0E058F10981E09F
:1013900090E001C0880FEA95EAF714969C911497A3
:1013A000982B14969C931497E0E010C0E754FE4FDE
:1013B000E491E11101C040C0E7FF08C014968C9190
:1013C0001497826014968C931497EF7716968C91ED
:1013D00016978E1741F117968C9117978E1719F162
:1013E00018968C9118978E17F1F019968C91199781
:1013F0008E17C9F01A968C911A978E17A1F01B962A
:101400008C911B978E1779F080E090E0ED01C80F6A
:10141000D91F2E81211102C0EE8305C001968630AE
:101420009105A1F709C0BD016C5F7F4FCD010E94FE
:10143000600921E030E008C081E090E013969C93C1
:101440008E93129720E030E0C901DF91CF9108958B
:101450001092B0011092A7011092A60184E391E0CE
:101460009093A5018093A40108950E947E0AA59FF0
:10147000900DB49F900DA49F800D911D112408958F
:10148000A1E21A2EAA1BBB1BFD010DC0AA1FBB1F88
:10149000EE1FFF1FA217B307E407F50720F0A21BFA
:1014A000B30BE40BF50B661F771F881F991F1A9467
:1014B00069F760957095809590959B01AC01BD0191
:1014C000CF010895052E97FB16F4009407D057FD21
:1014D0000DD00E94400A07FC09D07EF490958095BB
:1014E000709561957F4F8F4F9F4F08955095409510
:1014F000309521953F4F4F4F5F4F0895A29FB00108
:10150000B39FC001A39F01D0B29F700D811D112414
:10151000911D0895EE0FFF1F0590F491E02D0994A1
:04152000F894FFCF6D
:101524000100E100000000000001014D61673A2064
:101534000020476175737300205300204E000000A3
:1015440000002E085903E5070B08F307560859084D
:0E15540000000000F1085903BA097209650988
:00000001FF
