:100000000C945E010C9486010C9486010C9486017C
:100010000C9486010C9486010C9486010C94860144
:100020000C9486010C9486010C94F3070C94C7067B
:100030000C9486010C9486010C9486010C94860124
:100040000C9486010C9486010C9486010C94860114
:100050000C9486010C9486010C9486010C94D801B2
:100060000C9486010C9486010C9486010C948601F4
:100070000C9486010C9486010C9486010C948601E4
:100080000C9486010C9486010C9486010C948601D4
:100090000C9486010C9486010C9486010C948601C4
:1000A0000C9486010C9486010C94860107060504C5
:1000B0000100080A0B0C0D090408020110408040E1
:1000C000102040804080080204018040201002017E
:1000D00010801020404004040404040304050202BC
:1000E00002020403020202020606060606060404D1
:1000F0000202020400000000250028002B002E0050
:10010000310000000000240027002A002D003000EC
:1001100000C18081C112010002020000404123366B
:1001200080000101020001120100020000004041B4
:1001300023368000010102000118034100720064AF
:1001400000750069006E006F0020004C004C0043F9
:10015000002203410072006400750069006E006FA8
:100160000020004C0065006F006E006100720064AA
:10017000006F0004030904080B00020202010009D9
:100180000400000102020000052400100105240102
:10019000010104240206052406000107058103105D
:1001A000004009040100020A0000000705020240A5
:1001B000000007058302400000000000000000006E
:1001C000002A2B28000000000000000000000000B2
:1001D0000000000000000000002C9EB4A0A1A2A41A
:1001E00034A6A7A5AE362D3738271E1F202122237F
:1001F000242526B333B62EB7B89F84858687888991
:100200008A8B8C8D8E8F90919293949596979899D6
:100210009A9B9C9D2F3130A3AD3504050607080934
:100220000A0B0C0D0E0F10111213141516171819B6
:100230001A1B1C1DAFB1B0B5000904020001030078
:100240000000092101010001226500070584034027
:10025000000105010902A1010901A10085010509AB
:1002600019012903150025019503750181029501E6
:100270007505810305010930093109381581257F8C
:10028000750895038106C0C005010906A101850214
:10029000050719E029E71500250175019508810278
:1002A00095017508810395067508150025650507F4
:1002B000190029658100C0006609B40A11241FBE17
:1002C000CFEFDAE0DEBFCDBF11E0A0E0B1E0E4E0C7
:1002D000FAE102C005900D92A233B107D9F711E0FF
:1002E000A2E3B1E001C01D92A93AB107E1F712E023
:1002F000CCEBD2E004C02297FE010E94FC0CC83B6C
:10030000D107C9F70E94FE040C94000D0C94000064
:1003100060E875E28AE491E00E94650960E08091FE
:1003200032010C94D202CF93DF93809132010E946C
:100330000A0325E0AC01249FC001259F900D1124E4
:10034000BC01882777FD8095982F0E94C50B20E07F
:1003500030E040E85AE30E94750C20910001309192
:10036000010140910201509103010E94C20A2AE05A
:1003700037ED43E25CE30E942A0BFB01462F5F2F1F
:10038000682F792F409334015093350160933601E3
:100390007093370122E030E08AE491E00E94EA04A1
:1003A00064EF71E080E090E0DF91CF910C944C021B
:1003B0001F920F920FB60F9211242F933F938F939A
:1003C0009F93AF93BF938091380190913901A09191
:1003D0003A01B0913B0130914001232F2D5F2D3721
:1003E00020F40196A11DB11D05C0232F2A570296A6
:1003F000A11DB11D209340018093380190933901D4
:10040000A0933A01B0933B0180913C0190913D0152
:10041000A0913E01B0913F010196A11DB11D8093B5
:100420003C0190933D01A0933E01B0933F01BF91E9
:10043000AF919F918F913F912F910F900FBE0F9091
:100440001F9018950F931F939FB7F89400913C014C
:1004500010913D0120913E0130913F0186B5A89B4E
:1004600006C08F3F21F00F5F1F4F2F4F3F4F9FBFA1
:10047000322F212F102F0027080F111D211D311D94
:1004800042E0000F111F221F331F4A95D1F7B80118
:10049000C9011F910F910895CF92DF92EF92FF92C1
:1004A000CF93DF936B017C010E942202EB010EC00F
:1004B0000E9422026C1B7D0B683E734038F081E085
:1004C000C81AD108E108F108C851DC4FC114D104A1
:1004D000E104F10469F7DF91CF91FF90EF90DF9095
:1004E000CF900895789484B5826084BD84B581608E
:1004F00084BD85B5826085BD85B5816085BDEEE62C
:10050000F0E0808181608083E1E8F0E0108280810A
:1005100082608083808181608083E0E8F0E0808178
:1005200081608083E1EBF0E0808184608083E0EB98
:10053000F0E0808181608083E1E9F0E08081826089
:100540008083808181608083E0E9F0E08081816048
:100550008083E1ECF0E08081846080838081826030
:100560008083808181608083E3ECF0E08081816022
:100570008083E0ECF0E0808182608083E2ECF0E058
:10058000808181608083EAE7F0E0808184608083FD
:1005900080818260808380818160808380818068A7
:1005A00080830895CF93DF9390E0FC01E854FF4FE0
:1005B0004491FC01EA52FF4F8491882341F190E07D
:1005C000880F991FFC01EE5FFE4F25913491D901F0
:1005D0008C509F4FFC0185919491C82FD92F9FB7C4
:1005E000F8948C91611106C0409584238C93888186
:1005F000842308C0623041F4242F209582238C93F9
:100600008881842B888302C0842B8C939FBFDF91C9
:10061000CF910895823108F08251E82FF0E0E4553F
:10062000FF4FE49180917B00E3FB222720F930E02B
:1006300095E0220F331F9A95E1F78F7D822B8093EF
:100640007B00E7708091040120E4829FC0011124A7
:10065000E82BE0937C0080917A00806480937A009C
:1006600080917A0086FDFCCF20917800309179004E
:10067000932F80E0AC01422B9A01C9010895CF92DB
:10068000DF92EF92FF920F931F93CF93DF936C0152
:10069000EB017A01E60EF71E00E010E00BC0699155
:1006A000D601ED91FC910190F081E02DC6010995F4
:1006B000080F191FCE15DF0591F7C801DF91CF9103
:1006C0001F910F91FF90EF90DF90CF900895DB0185
:1006D0000D900020E9F7AD0141505109461B570B21
:1006E000DC01ED91FC910280F381E02D0994DC01A5
:1006F000ED91FC910190F081E02D09940F931F93EF
:10070000CF93DF93EC016DE00E9477038C016AE0E8
:10071000CE010E9477039C01200F311FC901DF9198
:10072000CF911F910F9108955F926F927F928F9258
:100730009F92AF92BF92CF92DF92EF92FF920F9370
:100740001F93CF93DF93CDB7DEB7A1970FB6F89481
:10075000DEBF0FBECDBF3C016A017B01522E19A244
:1007600081E0821710F08AE0582E8E010F5D1F4F36
:10077000852C912CA12CB12CC701B601A5019401A7
:100780000E94D80C8C2D529E801911240150110901
:100790008A3014F4805D01C0895CF80180836901AE
:1007A0007A01C114D104E104F10431F7B801C301A5
:1007B0000E946703A1960FB6F894DEBF0FBECDBFAF
:1007C000DF91CF911F910F91FF90EF90DF90CF902D
:1007D000BF90AF909F908F907F906F905F900895A3
:1007E000CF92DF92EF92FF920F931F93CF93DF93FD
:1007F000EC016A017B012115310579F4E881F98169
:100800000190F081E02D642FDF91CF911F910F9126
:10081000FF90EF90DF90CF9009942A30310519F4C2
:1008200077FD0EC02AE0B701A601CE01DF91CF917E
:100830001F910F91FF90EF90DF90CF900C94940355
:100840006DE20E9477038C0144275527BA014C19A9
:100850005D096E097F092AE0CE010E9494039C0184
:10086000200F311FC901DF91CF911F910F91FF9090
:10087000EF90DF90CF9008954F925F926F927F92AA
:100880008F929F92AF92BF92CF92DF92EF92FF92A0
:100890000F931F93CF933C014A015B01C22F20E0CD
:1008A00030E0A901C501B4010E94260B87FF0AC0F0
:1008B0006DE2C3010E9477032C01B7FAB094B7F838
:1008C000B09402C0412C512C10E060E070E080E058
:1008D0009FE307C020E030E040E251E40E942A0B91
:1008E0001F5F1C13F7CF262F372F482F592FC50115
:1008F000B4010E94C20A962EA72EB82EC92E0E94BD
:10090000970BD62EE72EF82E192F0E94C30B9B01B2
:10091000AC01692D7A2D8B2D9C2D0E94C10AC62E0B
:10092000B72EA82E992E2AE04D2D5E2D6F2D712FFA
:10093000C3010E9494038C01040D151DCC23B9F151
:100940006FE071E0C3010E946703080F191F2FC0F9
:1009500020E030E040E251E46C2D7B2D8A2D992D72
:100960000E94750C4B015C01792D9B2D0E94920B0E
:100970006B01EE24D7FCE094FE2C2AE030E0B701B6
:10098000A601C3010E94F003080F191FC701B60199
:100990000E94C50B9B01AC01682D792D8A2D9B2DE2
:1009A0000E94C10AC62EB72EA82E992EC150C11181
:1009B000CFCFC801CF911F910F91FF90EF90DF90A3
:1009C000CF90BF90AF909F908F907F906F905F90EF
:1009D0004F9008950F931F93CF93DF93EC010E94E4
:1009E0003C048C01CE010E947E039801280F391F20
:1009F000C901DF91CF911F910F9108950E9472025A
:100A000081E491E00E9453080E948801C0E0D0E098
:100A10000E9493012097E1F30E940000F9CF05C0E6
:100A20002091F100FC012193CF016150C8F7289873
:100A300084E68093480108952FB7FC012083F89441
:100A400067706093E9000895CF93DF931F92CDB74D
:100A5000DEB7682FCE0101960E941C058091F2003E
:100A600099819FBF0F90DF91CF910895FF920F93CF
:100A70001F93CF93DF9300D0CDB7DEB7F62E8A0158
:100A8000909147019923A9F057FF16C012C02898EA
:100A9000809348019091F1009193FE12F8CF411597
:100AA000510521F08091F2008823D1F089818FBF18
:100AB0001BC04FEF5FEF18C0682FCE0101967A83FD
:100AC0000E941C058091F20090E0A8017A818017B5
:100AD00091070CF4AC01EF2DF72FF40E84E6DDCF77
:100AE0008BE68093E800E2CFCA010F900F90DF9170
:100AF000CF911F910F91FF900895CF93DF931F9295
:100B0000CDB7DEB741E050E0BE016F5F7F4F0E947E
:100B10003605019719F4298130E002C02FEF3FEF2D
:100B2000C9010F90DF91CF910895CF93DF931F926A
:100B3000CDB7DEB7682FCE0101960E941C058091CB
:100B4000E80085FF05C09091F20080E4891B01C098
:100B500080E099819FBF0F90DF91CF9108956F92B0
:100B60007F928F929F92AF92BF92CF92DF92EF923D
:100B7000FF920F931F93CF93DF931F92CDB7DEB7F2
:100B8000C82EA42E952E8091470181114CC02FEFC5
:100B90003FEF64C08C2D0E949505D82E811109C0AD
:100BA000BA94A9F361E070E080E090E00E944C020A
:100BB00047C0282F30E0021713070CF4D02E0D1970
:100BC00011096C2DCE0101960E941C05772041F081
:100BD00002C01092F100DA948FEFD812FACF17C04A
:100BE0008D2DC7FC02C0F7010EC0970106C0F901A8
:100BF0002F5F3F4FE491E093F1008150C0F705C0B3
:100C000091919093F1008150D8F7ED0CF11C8091F7
:100C1000E80085FF20C00115110511F461101BC00B
:100C200089818FBF0DC07B01042F152F8AEFB82E4D
:100C300090E2792E7C202AE3822E30E4632E6C2011
:100C40000115110509F0A6CF5D9884E6809349014E
:100C50002A2D392D03C08092E800E2CFC9010F9000
:100C6000DF91CF911F910F91FF90EF90DF90CF9088
:100C7000BF90AF909F908F907F906F90089510924B
:100C8000E90010924601109245019093440180932F
:100C900043010895FF920F931F93CF93DF939A011F
:100CA000DB0160E070E0EEEFFE2E35C0ED01219635
:100CB00087FF04C0FD01DE01E49102C0EC91DE017A
:100CC0000091450110914601C0914301D09144012A
:100CD0000C171D07ACF49091E8009570E1F390912A
:100CE000E80092FD1DC0E093F100E0914501F09114
:100CF00046013196EF73FF27EF2B11F4F092E800D5
:100D0000E0914501F09146013196F0934601E09360
:100D100045016F5F7F4F6217730741F69A0102C06A
:100D20002FEF3FEFC901DF91CF911F910F91FF90FE
:100D300008951F93CF93DF931F92CDB7DEB7162F81
:100D40002091E80022FFFCCF612F79830E940F05DC
:100D50008BEF8093E800812F7981972F0F90DF919F
:100D6000CF911F910895CF93DF931F92CDB7DEB738
:100D70001982CE0101960E940309CE0101960E94BC
:100D80009C09898190E00F90DF91CF9108951F9287
:100D90000F920FB60F921124EF92FF920F931F93B1
:100DA0002F933F934F935F936F937F938F939F9373
:100DB000AF93BF93EF93FF93CF93DF93CDB7DEB79E
:100DC0006297DEBFCDBF1092E9008091E80083FFFB
:100DD000E3C068E0CE010A960E940F0582EF80937F
:100DE000E8009A8597FF05C08091E80080FFFCCF5E
:100DF00003C08EEF8093E800892F807609F0B1C0A0
:100E00008B85811103C01092F100BFC0813009F4BD
:100E1000BCC0833009F4B9C0853049F48091E80042
:100E200080FFFCCF8C8580688093E300AEC0863065
:100E300009F06FC02D85E888F988223071F580E0CF
:100E400090E02A8B0E943F060E94B30699E08E0133
:100E50000F5F1F4FF801392F11923A95E9F79983E7
:100E60002A892A8391E09E8390E898879AEF998750
:100E70002091450130914601275F3F4F3C832B83F2
:100E80008D83C7010E943F0649E050E0B80180E031
:100E90000E944A060E94B30678C0C7012A8B0E94AE
:100EA0003F062A89223241F482E290E00E94A7099B
:100EB000892B09F06AC06DC0213071F48889998945
:100EC000089719F481E080934201809142018823C0
:100ED00089F065E171E016C0233009F05AC08C85B5
:100EE000882359F0823061F0813009F052C069E303
:100EF00071E008C067E271E005C063E771E002C01D
:100F000061E571E0FB01449150E080E80E944A06EF
:100F10003CC0873009F43DC0883021F481E08093E3
:100F2000F10033C0893089F5937099F5E1E1F1E082
:100F300081E021E096E38093E9002093EB00349177
:100F40003093EC009093ED008F5F3196853099F7E8
:100F50008EE78093EA001092EA008C858093470127
:100F600014C0888999890E943F068E85811105C029
:100F7000CE010A960E940E0906C0823051F4CE01BD
:100F80000A960E94CF09882321F08EEF8093E80013
:100F900003C081E28093EB0062960FB6F894DEBF47
:100FA0000FBECDBFDF91CF91FF91EF91BF91AF9178
:100FB0009F918F917F916F915F914F913F912F9171
:100FC0001F910F91FF90EF900F900FBE0F901F9009
:100FD00018958093E9008091F200882319F08AE344
:100FE0008093E80008951F920F920FB60F9211247C
:100FF0002F933F934F935F936F937F938F939F9321
:10100000AF93BF93EF93FF938091E1001092E100C3
:1010100083FF0FC01092E90091E09093EB001092D3
:10102000EC0092E39093ED001092470198E09093CA
:10103000F00082FF27C083E00E94E90704C08AE431
:1010400091E00E94E50882E00E9424058111F7CF1B
:1010500080914901882339F0809149018150809322
:101060004901882361F080914801882359F08091DB
:101070004801815080934801882319F003C05D9A8C
:10108000F2CF289AFF91EF91BF91AF919F918F91ED
:101090007F916F915F914F913F912F910F900FBE74
:1010A0000F901F9018951092470181E08093D70010
:1010B00080EA8093D80082E189BD09B400FEFDCFAB
:1010C00061E070E080E090E00E944C0280E9809353
:1010D000D8008CE08093E2001092E000559A209AAC
:1010E0000895209198013091990180919A019091F1
:1010F0009B01281B390B2F733327C90108952091B9
:1011000098013091990180919A0190919B01281743
:10111000390749F0E0919A01F0919B01E85AFE4F9E
:10112000208130E002C02FEF3FEFC90108952091E8
:1011300098013091990180919A0190919B01281713
:101140003907A1F0E0919A01F0919B01E85AFE4F16
:10115000208180919A0190919B0101968F7399272C
:1011600090939B0180939A0130E002C02FEF3FEFF4
:10117000C90108950F931F93CF93DF931F92CDB7AB
:10118000DEB78C01698380910C01882369F041E00E
:1011900050E0BE016F5F7F4F83E00E94AF051816DD
:1011A000190614F49C0107C081E090E0F8019383D4
:1011B000828320E030E0C9010F90DF91CF911F9131
:1011C0000F91089583E00C94E90782E00E947D0569
:1011D00020919801309199012F5F3F4F2F73332752
:1011E00040919A0150919B012417350759F0E091E5
:1011F0009801F0919901E85AFE4F8083309399014C
:10120000209398010895FC0120812E5F208342E401
:1012100050E067E771E080E80C944A06FC018181A8
:101220009081913A59F4813209F04BC047E050E087
:1012300065E071E080E00E944A0645C0913209F005
:1012400040C0803239F467E070E085E091E00E94B0
:10125000990639C0823209F034C0828180930C0132
:101260008091050190910601A0910701B0910801BC
:10127000803B9440A105B10531F580910C0180FDC2
:1012800012C087E797E790930108809300082BE04E
:1012900088E190E00FB6F894A895809360000FBEA7
:1012A0002093600010C088E10FB6F894809360002E
:1012B000109260000FBEA8951092010810920008CD
:1012C00002C080E0089581E00895089510924D01D4
:1012D00010924C0188EE93E0A0E0B0E080934E01C4
:1012E00090934F01A0935001B093510185E191E09B
:1012F00090934B0180934A010895FF920F931F939F
:10130000CF93DF93EC01F62EE881F9810480F5811B
:10131000E02D09958C01E881F9810680F781E02DA7
:101320006F2DCE01099598013327C901DF91CF9127
:101330001F910F91FF900895FC0120812F5F208362
:1013400049E150E069E372E080E80C944A0645E622
:1013500050E062E572E080E80C944A06EF92FF925A
:101360000F931F93CF93DF931F92CDB7DEB789837F
:101370008B017A0141E050E0BE016F5F7F4F84E056
:101380000E94AF05A701B80184E40E94AF050F9049
:10139000DF91CF911F910F91FF90EF900895FC0185
:1013A00091818081813A31F481E0913091F09330E4
:1013B00091F010C0813271F49B3021F482818093CE
:1013C0000E0105C09A3031F4828180930D0181E0D5
:1013D0000895089580E0089548E050E082E00C947C
:1013E000AE09FC01168217821086118612861386BA
:1013F0001482BC016C5F7F4F0C94EC09E62F6838B7
:1014000010F0E85824C0F0E067FF12C0E058F1097E
:1014100021E030E001C0220FEA95EAF72095DC01D7
:1014200014963C911497322314963C93E0E00FC03D
:10143000E754FE4FE491EE2329F1E7FF08C0DC01F9
:1014400014962C9114972D7F14962C93EF7720E00F
:1014500030E0EE2351F0DC01A20FB31F16964C9141
:1014600016974E1302C016961C922F5F3F4F2630E0
:10147000310579F7BC016C5F7F4F0E94EC0921E0D8
:1014800030E002C020E030E0C9010895CF93DF933F
:10149000DC01E62F683810F0E85824C0F0E067FF60
:1014A00011C0E058F10981E090E001C0880FEA9591
:1014B000EAF714969C911497982B14969C93149782
:1014C000E0E010C0E754FE4FE491E11101C040C0DC
:1014D000E7FF08C014968C911497826014968C9341
:1014E0001497EF7716968C9116978E1741F11796F1
:1014F0008C9117978E1719F118968C9118978E1753
:10150000F1F019968C9119978E17C9F01A968C9153
:101510001A978E17A1F01B968C911B978E1779F056
:1015200080E090E0ED01C80FD91F2E81211102C08B
:10153000EE8305C0019686309105A1F709C0BD0173
:101540006C5F7F4FCD010E94EC0921E030E008C0C4
:1015500081E090E013969C938E93129720E030E008
:10156000C901DF91CF9108951092A80110929F01B7
:1015700010929E0187E291E090939D0180939C01DF
:1015800008955058BB27AA270ED075C166D130F0F8
:101590006BD120F031F49F3F11F41EF45BC10EF4C7
:1015A000E095E7FB51C1E92F77D180F3BA176207C5
:1015B00073078407950718F071F49EF58FC10EF438
:1015C000E0950B2EBA2FA02D0B01B90190010C0153
:1015D000CA01A0011124FF27591B99F0593F50F46B
:1015E000503E68F11A16F040A22F232F342F4427C3
:1015F000585FF3CF469537952795A795F0405395BB
:10160000C9F77EF41F16BA0B620B730B840BBAF08A
:101610009150A1F0FF0FBB1F661F771F881FC2F7F5
:101620000EC0BA0F621F731F841F48F48795779509
:101630006795B795F7959E3F08F0B3CF9395880FC0
:1016400008F09927EE0F979587950895D9D008F45B
:1016500081E008950CD00FC107D140F0FED030F0EA
:1016600021F45F3F19F0F0C0511139C1F3C014D11A
:1016700098F39923C9F35523B1F3951B550BBB2759
:10168000AA2762177307840738F09F5F5F4F220F06
:10169000331F441FAA1FA9F333D00E2E3AF0E0E8FF
:1016A00030D091505040E695001CCAF729D0FE2F4B
:1016B00027D0660F771F881FBB1F261737074807DD
:1016C000AB07B0E809F0BB0B802DBF01FF27935893
:1016D0005F4F2AF09E3F510568F0B6C000C15F3FE2
:1016E000ECF3983EDCF3869577956795B795F7957B
:1016F0009F5FC9F7880F911D9695879597F9089573
:10170000E1E0660F771F881FBB1F6217730784070E
:10171000BA0720F0621B730B840BBA0BEE1F88F71D
:10172000E095089504D06894B111D9C00895BCD053
:1017300088F09F5790F0B92F9927B751A0F0D1F0BA
:10174000660F771F881F991F1AF0BA95C9F712C044
:10175000B13081F0C3D0B1E00895C0C0672F782FB9
:101760008827B85F39F0B93FCCF3869577956795B0
:10177000B395D9F73EF490958095709561957F4F1C
:101780008F4F9F4F0895E89409C097FB3EF49095C2
:101790008095709561957F4F8F4F9F4F9923A9F04A
:1017A000F92F96E9BB279395F695879577956795D9
:1017B000B795F111F8CFFAF4BB0F11F460FF1BC01D
:1017C0006F5F7F4F8F4F9F4F16C0882311F096E9B0
:1017D00011C0772321F09EE8872F762F05C066235E
:1017E00071F096E8862F70E060E02AF09A95660F17
:1017F000771F881FDAF7880F9695879597F90895D0
:10180000990F0008550FAA0BE0E8FEEF1616170611
:10181000E807F907C0F012161306E407F50798F079
:10182000621B730B840B950B39F40A2661F0232B92
:10183000242B252B21F408950A2609F4A140A6950E
:101840008FEF811D811D089597F99F6780E870E0F3
:1018500060E008959FEF80EC089500240A94161626
:10186000170618060906089500240A94121613068E
:10187000140605060895092E0394000C11F488231C
:1018800052F0BB0F40F4BF2B11F460FF04C06F5F38
:101890007F4F8F4F9F4F089557FD9058440F551F0E
:1018A00059F05F3F71F04795880F97FB991F61F0E2
:1018B0009F3F79F087950895121613061406551F59
:1018C000F2CF4695F1DF08C0161617061806991FC5
:1018D000F1CF86957105610508940895E894BB27BA
:1018E00066277727CB0197F908950BD0C4CFB5DFD2
:1018F00028F0BADF18F0952309F0A6CFABCF11245A
:10190000EECFCADFA0F3959FD1F3950F50E0551F9E
:10191000629FF001729FBB27F00DB11D639FAA2744
:10192000F00DB11DAA1F649F6627B00DA11D661F93
:10193000829F2227B00DA11D621F739FB00DA11DB4
:10194000621F839FA00D611D221F749F3327A00D6E
:10195000611D231F849F600D211D822F762F6A2F0A
:1019600011249F5750408AF0E1F088234AF0EE0F8F
:10197000FF1FBB1F661F771F881F91505040A9F79C
:101980009E3F510570F060CFAACF5F3FECF3983EC9
:10199000DCF3869577956795B795F795E7959F5F03
:1019A000C1F7FE2B880F911D9695879597F908959D
:1019B000A1E21A2EAA1BBB1BFD010DC0AA1FBB1F53
:1019C000EE1FFF1FA217B307E407F50720F0A21BC5
:1019D000B30BE40BF50B661F771F881F991F1A9432
:1019E00069F760957095809590959B01AC01BD015C
:1019F000CF010895EE0FFF1F0590F491E02D09949B
:041A0000F894FFCF88
:101A04009A9919BF0100E100000000000001012EB5
:101A14000000000000BA083F03710897087F08E23D
:101A240008E508000000007D093F03460AFE09F1AD
:021A34000900A7
:00000001FF
