:100000000C9466010C948E010C948E010C948E015C
:100010000C948E010C948E010C948E010C948E0124
:100020000C948E010C948E010C94B4080C948807E7
:100030000C948E010C948E010C948E010C948E0104
:100040000C948E010C948E010C948E010C948E01F4
:100050000C948E010C948E010C948E010C9404026D
:100060000C948E010C948E010C948E010C948E01D4
:100070000C948E010C948E010C948E010C948E01C4
:100080000C948E010C948E010C948E010C948E01B4
:100090000C948E010C948E010C948E010C948E01A4
:1000A0000C948E010C948E010C948E0107060504AD
:1000B0000100080A0B0C0D090000000200080E00E8
:1000C00000030401000B00000408020110408040FE
:1000D000102040804080080204018040201002016E
:1000E00010801020404004040404040304050202AC
:1000F00002020403020202020606060606060404C1
:100100000202020400000000250028002B002E003F
:10011000310000000000240027002A002D003000DC
:1001200000C18081C112010002020000404123365B
:1001300080000101020001120100020000004041A4
:10014000233680000101020001180341007200649F
:1001500000750069006E006F0020004C004C0043E9
:10016000002203410072006400750069006E006F98
:100170000020004C0065006F006E0061007200649A
:10018000006F0004030904080B00020202010009C9
:1001900004000001020200000524001001052401F2
:1001A000010104240206052406000107058103104D
:1001B000004009040100020A000000070502024095
:1001C000000007058302400000000000000000005E
:1001D000002A2B28000000000000000000000000A2
:1001E0000000000000000000002C9EB4A0A1A2A40A
:1001F00034A6A7A5AE362D3738271E1F202122236F
:10020000242526B333B62EB7B89F84858687888980
:100210008A8B8C8D8E8F90919293949596979899C6
:100220009A9B9C9D2F3130A3AD3504050607080924
:100230000A0B0C0D0E0F10111213141516171819A6
:100240001A1B1C1DAFB1B0B5000904020001030068
:100250000000092101010001226500070584034017
:10026000000105010902A1010901A100850105099B
:1002700019012903150025019503750181029501D6
:100280007505810305010930093109381581257F7C
:10029000750895038106C0C005010906A101850204
:1002A000050719E029E71500250175019508810268
:1002B00095017508810395067508150025650507E4
:1002C000190029658100C000270A750B11241FBE83
:1002D000CFEFDAE0DEBFCDBF11E0A0E0B1E0E6E8AD
:1002E000FBE102C005900D92AC33B107D9F711E0E4
:1002F000ACE3B1E001C01D92A33BB107E1F712E00E
:10030000CCECD2E004C02297FE010E94BD0DC83C97
:10031000D107C9F70E94BF050C94C10D0C940000D1
:1003200060E875E284E591E00E94260A60E0809131
:100330003C010E94580361E0809100010C94580335
:10034000CF93DF9380913C010E94C70325E0AC016D
:10035000249FC001259F900D1124BC01882777FDA3
:100360008095982F0E94860C20E030E040E85AE308
:100370000E94360D2AE037ED43E25CE30E94EB0B6E
:100380002091020130910301409104015091050137
:100390000E94830B60933E0170933F018093400164
:1003A00090934101C0E0D1E061E088810E94900318
:1003B00061E171E084E591E00E94340440913E01E6
:1003C00050913F01609140017091410122E030E085
:1003D00084E591E00E94BD0567E171E084E591E06C
:1003E0000E94530468EC70E080E090E00E94780284
:1003F00060E088810E94900368EC70E080E090E00B
:10040000DF91CF910C9478021F920F920FB60F924A
:1004100011242F933F938F939F93AF93BF9380911A
:10042000420190914301A0914401B0914501309166
:100430004A01232F2D5F2D3720F40196A11DB11DF8
:1004400005C0232F2A570296A11DB11D20934A01F2
:100450008093420190934301A0934401B0934501DE
:100460008091460190914701A0914801B0914901C6
:100470000196A11DB11D8093460190934701A09361
:100480004801B0934901BF91AF919F918F913F91E6
:100490002F910F900FBE0F901F9018950F931F93E1
:1004A0009FB7F894009146011091470120914801AF
:1004B0003091490186B5A89B06C08F3F21F00F5FA0
:1004C0001F4F2F4F3F4F9FBF322F212F102F00273D
:1004D000080F111D211D311D42E0000F111F221FA9
:1004E000331F4A95D1F7B801C9011F910F910895A3
:1004F000CF92DF92EF92FF92CF93DF936B017C015B
:100500000E944E02EB010EC00E944E026C1B7D0B3E
:10051000683E734038F081E0C81AD108E108F1085C
:10052000C851DC4FC114D104E104F10469F7DF9133
:10053000CF91FF90EF90DF90CF900895789484B59D
:10054000826084BD84B5816084BD85B5826085BDCF
:1005500085B5816085BDEEE6F0E0808181608083B5
:10056000E1E8F0E010828081826080838081816098
:100570008083E0E8F0E0808181608083E1EBF0E05F
:10058000808184608083E0EBF0E080818160808303
:10059000E1E9F0E0808182608083808181608083F6
:1005A000E0E9F0E0808181608083E1ECF0E080812F
:1005B0008460808380818260808380818160808389
:1005C000E3ECF0E0808181608083E0ECF0E080810A
:1005D00082608083E2ECF0E0808181608083EAE7E2
:1005E000F0E080818460808380818260808380816C
:1005F0008160808380818068808308958730A1F145
:1006000078F48330E1F030F4813019F1823009F070
:100610004EC022C08430B9F0863009F048C020C0F6
:100620008A3081F130F4883029F1893009F03FC0F7
:1006300025C08C3089F160F18E30C9F533C08091CE
:1006400080008F7703C0809180008F7D8093800031
:10065000089584B58F7702C084B58F7D84BD0895D9
:100660008091B0008F7703C08091B0008F7D809320
:10067000B0000895809190008F7707C0809190001E
:100680008F7D03C080919000877F809390000895B4
:100690008091C0008F7703C08091C0008F7D8093D0
:1006A000C00008958091C200877F8093C2000895A2
:1006B000CF93DF9390E0FC01E853FF4F4491FC019E
:1006C000EA51FF4F8491882341F190E0880F991FF0
:1006D000FC01EE5EFE4F25913491D9018C5F9E4F57
:1006E000FC0185919491C82FD92F9FB7F8948C91D4
:1006F000611106C0409584238C938881842308C0AF
:10070000623041F4242F209582238C938881842B9E
:10071000888302C0842B8C939FBFDF91CF91089573
:100720000F931F93CF93DF931F92CDB7DEB7282F80
:1007300030E0F901E854FF4F8491F901E853FF4F8D
:100740001491F901EA51FF4F04910023D1F088235D
:1007500021F069830E94FE026981E02FF0E0EE0F34
:10076000FF1FEC5FFE4F85919491DC019FB7F894D9
:100770008C91611103C01095812301C0812B8C9352
:100780009FBF0F90DF91CF911F910F9108958231FC
:1007900008F08251E82FF0E0E455FF4FE49180919A
:1007A0007B00E3FB222720F930E095E0220F331F86
:1007B0009A95E1F78F7D822B80937B00E770809183
:1007C000060120E4829FC0011124E82BE0937C0005
:1007D00080917A00806480937A0080917A0086FD0F
:1007E000FCCF2091780030917900932F80E0AC010C
:1007F000422B9A01C9010895CF92DF92EF92FF92A6
:100800000F931F93CF93DF936C01EB017A01E60EF8
:10081000F71E00E010E00BC06991D601ED91FC914C
:100820000190F081E02DC6010995080F191FCE1522
:10083000DF0591F7C801DF91CF911F910F91FF90D4
:10084000EF90DF90CF900895DB010D900020E9F745
:10085000AD0141505109461B570BDC01ED91FC9154
:100860000280F381E02D09940C942404DC01ED91C5
:10087000FC910190F081E02D09940F931F93CF9389
:10088000DF93EC016DE00E9436048C016AE0CE013A
:100890000E9436049C01200F311FC901DF91CF91C6
:1008A0001F910F9108950F931F93CF93DF93EC0146
:1008B0000E9424048C01CE010E943D049801280F5F
:1008C000391FC901DF91CF911F910F9108955F9258
:1008D0006F927F928F929F92AF92BF92CF92DF9250
:1008E000EF92FF920F931F93CF93DF93CDB7DEB7B5
:1008F000A1970FB6F894DEBF0FBECDBF3C016A01D1
:100900007B01522E19A281E0821710F08AE0582E46
:100910008E010F5D1F4F852C912CA12CB12CC7018E
:10092000B601A50194010E94990D8C2D529E80194B
:100930001124015011098A3014F4805D01C0895CD2
:10094000F801808369017A01C114D104E104F10442
:1009500031F7B801C3010E942404A1960FB6F894A0
:10096000DEBF0FBECDBFDF91CF911F910F91FF90E2
:10097000EF90DF90CF90BF90AF909F908F907F903F
:100980006F905F900895CF92DF92EF92FF920F9356
:100990001F93CF93DF93EC016A017B012115310591
:1009A00079F4E881F9810190F081E02D642FDF91E5
:1009B000CF911F910F91FF90EF90DF90CF9009940E
:1009C0002A30310519F477FD0EC02AE0B701A601DF
:1009D000CE01DF91CF911F910F91FF90EF90DF90AB
:1009E000CF900C9467046DE20E9436048C0144277A
:1009F0005527BA014C195D096E097F092AE0CE011D
:100A00000E9467049C01200F311FC901DF91CF9123
:100A10001F910F91FF90EF90DF90CF9008954F922C
:100A20005F926F927F928F929F92AF92BF92CF927E
:100A3000DF92EF92FF920F931F93CF933C014A01F5
:100A40005B01C22F20E030E0A901C501B4010E9482
:100A5000E70B87FF0AC06DE2C3010E9436042C0138
:100A6000B7FAB094B7F8B09402C0412C512C10E002
:100A700060E070E080E09FE307C020E030E040E20B
:100A800051E40E94EB0B1F5F1C13F7CF262F372F6B
:100A9000482F592FC501B4010E94830B962EA72E13
:100AA000B82EC92E0E94580CD62EE72EF82E192FDC
:100AB0000E94840C9B01AC01692D7A2D8B2D9C2DFD
:100AC0000E94820BC62EB72EA82E992E2AE04D2DFD
:100AD0005E2D6F2D712FC3010E9467048C01040DE0
:100AE000151DCC23B9F16AE171E0C3010E94240411
:100AF000080F191F2FC020E030E040E251E46C2DB8
:100B00007B2D8A2D992D0E94360D4B015C01792D8C
:100B10009B2D0E94530C6B01EE24D7FCE094FE2C1D
:100B20002AE030E0B701A601C3010E94C304080F08
:100B3000191FC701B6010E94860C9B01AC01682DEC
:100B4000792D8A2D9B2D0E94820BC62EB72EA82EA2
:100B5000992EC150C111CFCFC801CF911F910F91D4
:100B6000FF90EF90DF90CF90BF90AF909F908F90CD
:100B70007F906F905F904F9008950C940F050E94A6
:100B80009E028BE491E00E9414090E949001C0E053
:100B9000D0E00E94A0012097E1F30E940000F9CF6D
:100BA00005C02091F100FC012193CF016150C8F7ED
:100BB000289884E68093520108952FB7FC01208382
:100BC000F89467706093E9000895CF93DF931F92C4
:100BD000CDB7DEB7682FCE0101960E94DD0580916A
:100BE000F20099819FBF0F90DF91CF910895FF92FE
:100BF0000F931F93CF93DF9300D0CDB7DEB7F62EC0
:100C00008A01909151019923A9F057FF16C012C093
:100C10002898809352019091F1009193FE12F8CFA1
:100C20004115510521F08091F2008823D1F089818E
:100C30008FBF1BC04FEF5FEF18C0682FCE0101962A
:100C40007A830E94DD058091F20090E0A8017A810C
:100C5000801791070CF4AC01EF2DF72FF40E84E60A
:100C6000DDCF8BE68093E800E2CFCA010F900F90B2
:100C7000DF91CF911F910F91FF900895CF93DF9354
:100C80001F92CDB7DEB741E050E0BE016F5F7F4FEE
:100C90000E94F705019719F4298130E002C02FEF77
:100CA0003FEFC9010F90DF91CF910895CF93DF936C
:100CB0001F92CDB7DEB7682FCE0101960E94DD05E9
:100CC0008091E80085FF05C09091F20080E4891BC7
:100CD00001C080E099819FBF0F90DF91CF9108956F
:100CE0006F927F928F929F92AF92BF92CF92DF923C
:100CF000EF92FF920F931F93CF93DF931F92CDB785
:100D0000DEB7C82EA42E952E8091510181114CC0C2
:100D10002FEF3FEF64C08C2D0E945606D82E811114
:100D200009C0BA94A9F361E070E080E090E00E940D
:100D3000780247C0282F30E0021713070CF4D02E9A
:100D40000D1911096C2DCE0101960E94DD05772049
:100D500041F002C01092F100DA948FEFD812FACF6E
:100D600017C08D2DC7FC02C0F7010EC0970106C049
:100D7000F9012F5F3F4FE491E093F1008150C0F7FC
:100D800005C091919093F1008150D8F7ED0CF11CC2
:100D90008091E80085FF20C00115110511F4611054
:100DA0001BC089818FBF0DC07B01042F152F8AEFD7
:100DB000B82E90E2792E7C202AE3822E30E4632E36
:100DC0006C200115110509F0A6CF5D9884E680938B
:100DD00053012A2D392D03C08092E800E2CFC901CA
:100DE0000F90DF91CF911F910F91FF90EF90DF90C7
:100DF000CF90BF90AF909F908F907F906F9008950D
:100E00001092E9001092500110924F0190934E0100
:100E100080934D010895FF920F931F93CF93DF931B
:100E20009A01DB0160E070E0EEEFFE2E35C0ED01CF
:100E3000219687FF04C0FD01DE01E49102C0EC9120
:100E4000DE0100914F0110915001C0914D01D091F0
:100E50004E010C171D07ACF49091E8009570E1F37A
:100E60009091E80092FD1DC0E093F100E0914F01E8
:100E7000F09150013196EF73FF27EF2B11F4F092B0
:100E8000E800E0914F01F09150013196F09350014C
:100E9000E0934F016F5F7F4F6217730741F69A012E
:100EA00002C02FEF3FEFC901DF91CF911F910F914A
:100EB000FF9008951F93CF93DF931F92CDB7DEB7B6
:100EC000162F2091E80022FFFCCF612F79830E942A
:100ED000D0058BEF8093E800812F7981972F0F90B9
:100EE000DF91CF911F910895CF93DF931F92CDB7DC
:100EF000DEB71982CE0101960E94C409CE01019687
:100F00000E945D0A898190E00F90DF91CF91089552
:100F10001F920F920FB60F921124EF92FF920F9330
:100F20001F932F933F934F935F936F937F938F9371
:100F30009F93AF93BF93EF93FF93CF93DF93CDB77F
:100F4000DEB76297DEBFCDBF1092E9008091E80066
:100F500083FFE3C068E0CE010A960E94D00582EFCD
:100F60008093E8009A8597FF05C08091E80080FF94
:100F7000FCCF03C08EEF8093E800892F807609F0C4
:100F8000B1C08B85811103C01092F100BFC08130C8
:100F900009F4BCC0833009F4B9C0853049F48091AC
:100FA000E80080FFFCCF8C8580688093E300AEC0B2
:100FB000863009F06FC02D85E888F988223071F5F8
:100FC00080E090E02A8B0E9400070E94740799E05D
:100FD0008E010F5F1F4FF801392F11923A95E9F7F3
:100FE00099832A892A8391E09E8390E898879AEFD3
:100FF000998720914F0130915001275F3F4F3C83EB
:101000002B838D83C7010E94000749E050E0B8019F
:1010100080E00E940B070E94740778C0C7012A8BEA
:101020000E9400072A89223241F482E290E00E9465
:10103000680A892B09F06AC06DC0213071F4888973
:101040009989089719F481E080934C0180914C01B3
:10105000882389F065E271E016C0233009F05AC098
:101060008C85882359F0823061F0813009F052C0BC
:1010700069E471E008C067E371E005C063E871E00E
:1010800002C061E671E0FB01449150E080E80E94FB
:101090000B073CC0873009F43DC0883021F481E063
:1010A0008093F10033C0893089F5937099F5E1E2BE
:1010B000F1E081E021E096E38093E9002093EB00EA
:1010C00034913093EC009093ED008F5F3196853032
:1010D00099F78EE78093EA001092EA008C8580935E
:1010E000510114C0888999890E9400078E85811159
:1010F00005C0CE010A960E94CF0906C0823051F485
:10110000CE010A960E94900A882321F08EEF8093E8
:10111000E80003C081E28093EB0062960FB6F8947A
:10112000DEBF0FBECDBFDF91CF91FF91EF91BF9199
:10113000AF919F918F917F916F915F914F913F916F
:101140002F911F910F91FF90EF900F900FBE0F9076
:101150001F9018958093E9008091F200882319F080
:101160008AE38093E80008951F920F920FB60F92C2
:1011700011242F933F934F935F936F937F938F939C
:101180009F93AF93BF93EF93FF938091E1001092F1
:10119000E10083FF0FC01092E90091E09093EB0013
:1011A0001092EC0092E39093ED001092510198E0C0
:1011B0009093F00082FF27C083E00E94AA0804C039
:1011C00084E591E00E94A60982E00E94E505811174
:1011D000F7CF80915301882339F0809153018150DA
:1011E00080935301882361F080915201882359F044
:1011F00080915201815080935201882319F003C0DD
:101200005D9AF2CF289AFF91EF91BF91AF919F9194
:101210008F917F916F915F914F913F912F910F909F
:101220000FBE0F901F9018951092510181E080938E
:10123000D70080EA8093D80082E189BD09B400FE1E
:10124000FDCF61E070E080E090E00E94780280E9EC
:101250008093D8008CE08093E2001092E000559AD1
:10126000209A08952091A2013091A3018091A401B8
:101270009091A501281B390B2F733327C9010895BD
:101280002091A2013091A3018091A4019091A50128
:101290002817390749F0E091A401F091A501EE5912
:1012A000FE4F208130E002C02FEF3FEFC9010895CB
:1012B0002091A2013091A3018091A4019091A501F8
:1012C00028173907A1F0E091A401F091A501EE598A
:1012D000FE4F20818091A4019091A50101968F730A
:1012E00099279093A5018093A40130E002C02FEFCD
:1012F0003FEFC90108950F931F93CF93DF931F9280
:10130000CDB7DEB78C01698380910E01882369F027
:1013100041E050E0BE016F5F7F4F83E00E947006A6
:101320001816190614F49C0107C081E090E0F8013A
:101330009383828320E030E0C9010F90DF91CF9149
:101340001F910F91089583E00C94AA0882E00E94F7
:101350003E062091A2013091A3012F5F3F4F2F73D2
:1013600033274091A4015091A5012417350759F066
:10137000E091A201F091A301EE59FE4F80833093DA
:10138000A3012093A2010895FC0120812E5F2083F8
:1013900042E450E067E871E080E80C940B07FC0140
:1013A00081819081913A59F4813209F04BC047E034
:1013B00050E067E071E080E00E940B0745C0913289
:1013C00009F040C0803239F467E070E087E091E0D6
:1013D0000E945A0739C0823209F034C0828180935A
:1013E0000E018091070190910801A0910901B0912F
:1013F0000A01803B9440A105B10531F580910E01B1
:1014000080FD12C087E797E790930108809300085A
:101410002BE088E190E00FB6F894A89580936000E7
:101420000FBE2093600010C088E10FB6F89480933F
:101430006000109260000FBEA895109201081092F3
:10144000000802C080E0089581E008950895109298
:1014500057011092560188EE93E0A0E0B0E080932F
:10146000580190935901A0935A01B0935B0180E217
:1014700091E090935501809354010895FF920F934A
:101480001F93CF93DF93EC01F62EE881F98104805E
:10149000F581E02D09958C01E881F9810680F781BD
:1014A000E02D6F2DCE01099598013327C901DF91F9
:1014B000CF911F910F91FF900895FC0120812F5F24
:1014C000208349E150E069E472E080E80C940B0766
:1014D00045E650E062E672E080E80C940B07EF927C
:1014E000FF920F931F93CF93DF931F92CDB7DEB779
:1014F00089838B017A0141E050E0BE016F5F7F4F2D
:1015000084E00E947006A701B80184E40E9470067E
:101510000F90DF91CF911F910F91FF90EF90089561
:10152000FC0191818081813A31F481E0913091F028
:10153000933091F010C0813271F49B3021F482819C
:101540008093100105C09A3031F4828180930F019D
:1015500081E00895089580E0089548E050E082E039
:101560000C946F0AFC01168217821086118612866F
:1015700013861482BC016C5F7F4F0C94AD0AE62F7A
:10158000683810F0E85824C0F0E067FF12C0E05857
:10159000F10921E030E001C0220FEA95EAF7209539
:1015A000DC0114963C911497322314963C93E0E0AE
:1015B0000FC0E753FE4FE491EE2329F1E7FF08C087
:1015C000DC0114962C9114972D7F14962C93EF77B1
:1015D00020E030E0EE2351F0DC01A20FB31F16969D
:1015E0004C9116974E1302C016961C922F5F3F4FD8
:1015F0002630310579F7BC016C5F7F4F0E94AD0A40
:1016000021E030E002C020E030E0C9010895CF932E
:10161000DF93DC01E62F683810F0E85824C0F0E0D2
:1016200067FF11C0E058F10981E090E001C0880F28
:10163000EA95EAF714969C911497982B14969C932C
:101640001497E0E010C0E753FE4FE491E11101C0B0
:1016500040C0E7FF08C014968C91149782601496DE
:101660008C931497EF7716968C9116978E1741F1FD
:1016700017968C9117978E1719F118968C911897C9
:101680008E17F1F019968C9119978E17C9F01A964A
:101690008C911A978E17A1F01B968C911B978E1721
:1016A00079F080E090E0ED01C80FD91F2E81211163
:1016B00002C0EE8305C0019686309105A1F709C0EE
:1016C000BD016C5F7F4FCD010E94AD0A21E030E08B
:1016D00008C081E090E013969C938E93129720E0CF
:1016E00030E0C901DF91CF9108951092B2011092BC
:1016F000A9011092A80182E391E09093A701809341
:10170000A60108955058BB27AA270ED075C166D1EF
:1017100030F06BD120F031F49F3F11F41EF45BC127
:101720000EF4E095E7FB51C1E92F77D180F3BA17AA
:10173000620773078407950718F071F49EF58FC14F
:101740000EF4E0950B2EBA2FA02D0B01B9019001DC
:101750000C01CA01A0011124FF27591B99F0593F20
:1017600050F4503E68F11A16F040A22F232F342F68
:101770004427585FF3CF469537952795A795F040B6
:101780005395C9F77EF41F16BA0B620B730B840BCB
:10179000BAF09150A1F0FF0FBB1F661F771F881F83
:1017A000C2F70EC0BA0F621F731F841F48F48795DB
:1017B00077956795B795F7959E3F08F0B3CF9395CA
:1017C000880F08F09927EE0F979587950895D9D03F
:1017D00008F481E008950CD00FC107D140F0FED08D
:1017E00030F021F45F3F19F0F0C0511139C1F3C05E
:1017F00014D198F39923C9F35523B1F3951B550BD5
:10180000BB27AA2762177307840738F09F5F5F4FD3
:10181000220F331F441FAA1FA9F333D00E2E3AF014
:10182000E0E830D091505040E695001CCAF729D02E
:10183000FE2F27D0660F771F881FBB1F261737077D
:101840004807AB07B0E809F0BB0B802DBF01FF27AD
:1018500093585F4F2AF09E3F510568F0B6C000C113
:101860005F3FECF3983EDCF3869577956795B795E7
:10187000F7959F5FC9F7880F911D9695879597F902
:101880000895E1E0660F771F881FBB1F621773077B
:101890008407BA0720F0621B730B840BBA0BEE1F90
:1018A00088F7E095089504D06894B111D9C00895DF
:1018B000BCD088F09F5790F0B92F9927B751A0F06E
:1018C000D1F0660F771F881F991F1AF0BA95C9F7D4
:1018D00012C0B13081F0C3D0B1E00895C0C0672F0D
:1018E000782F8827B85F39F0B93FCCF38695779584
:1018F0006795B395D9F73EF490958095709561956D
:101900007F4F8F4F9F4F0895E89409C097FB3EF497
:1019100090958095709561957F4F8F4F9F4F99233C
:10192000A9F0F92F96E9BB279395F69587957795BA
:101930006795B795F111F8CFFAF4BB0F11F460FF7A
:101940001BC06F5F7F4F8F4F9F4F16C0882311F0D2
:1019500096E911C0772321F09EE8872F762F05C0E6
:10196000662371F096E8862F70E060E02AF09A9581
:10197000660F771F881FDAF7880F9695879597F976
:101980000895990F0008550FAA0BE0E8FEEF161610
:101990001706E807F907C0F012161306E407F50763
:1019A00098F0621B730B840B950B39F40A2661F0D7
:1019B000232B242B252B21F408950A2609F4A1407A
:1019C000A6958FEF811D811D089597F99F6780E887
:1019D00070E060E008959FEF80EC089500240A9481
:1019E0001616170618060906089500240A941216FA
:1019F0001306140605060895092E0394000C11F42D
:101A0000882352F0BB0F40F4BF2B11F460FF04C0D9
:101A10006F5F7F4F8F4F9F4F089557FD9058440F32
:101A2000551F59F05F3F71F04795880F97FB991F3D
:101A300061F09F3F79F087950895121613061406FA
:101A4000551FF2CF4695F1DF08C016161706180687
:101A5000991FF1CF86957105610508940895E89462
:101A6000BB2766277727CB0197F908950BD0C4CF02
:101A7000B5DF28F0BADF18F0952309F0A6CFABCF79
:101A80001124EECFCADFA0F3959FD1F3950F50E05C
:101A9000551F629FF001729FBB27F00DB11D639F20
:101AA000AA27F00DB11DAA1F649F6627B00DA11DC6
:101AB000661F829F2227B00DA11D621F739FB00D6C
:101AC000A11D621F839FA00D611D221F749F3327DC
:101AD000A00D611D231F849F600D211D822F762F75
:101AE0006A2F11249F5750408AF0E1F088234AF072
:101AF000EE0FFF1FBB1F661F771F881F91505040BE
:101B0000A9F79E3F510570F060CFAACF5F3FECF37D
:101B1000983EDCF3869577956795B795F795E795A9
:101B20009F5FC1F7FE2B880F911D9695879597F9BA
:101B30000895A1E21A2EAA1BBB1BFD010DC0AA1F0E
:101B4000BB1FEE1FFF1FA217B307E407F50720F026
:101B5000A21BB30BE40BF50B661F771F881F991FA1
:101B60001A9469F760957095809590959B01AC01EA
:101B7000BD01CF010895EE0FFF1F0590F491E02DF8
:061B80000994F894FFCF68
:101B86000A0000005CC20100E10000000000000144
:101B96000154656D703A002043002E0000000000DD
:101BA6007B09FC03320958094009A309A60900006C
:0C1BB60000003E0AFC03070BBF0AB20A45
:00000001FF
