:100000000C9466010C948E010C948E010C948E015C
:100010000C948E010C948E010C948E010C948E0124
:100020000C948E010C948E010C94C9080C949D07BD
:100030000C948E010C948E010C948E010C948E0104
:100040000C948E010C948E010C948E010C948E01F4
:100050000C948E010C948E010C948E010C94190258
:100060000C948E010C948E010C948E010C948E01D4
:100070000C948E010C948E010C948E010C948E01C4
:100080000C948E010C948E010C948E010C948E01B4
:100090000C948E010C948E010C948E010C948E01A4
:1000A0000C948E010C948E010C948E0107060504AD
:1000B0000100080A0B0C0D090000000200080E00E8
:1000C00000030401000B00000408020110408040FE
:1000D000102040804080080204018040201002016E
:1000E00010801020404004040404040304050202AC
:1000F00002020403020202020606060606060404C1
:100100000202020400000000250028002B002E003F
:10011000310000000000240027002A002D003000DC
:1001200000C18081C112010002020000404123365B
:1001300080000101020001120100020000004041A4
:10014000233680000101020001180341007200649F
:1001500000750069006E006F0020004C004C0043E9
:10016000002203410072006400750069006E006F98
:100170000020004C0065006F006E0061007200649A
:10018000006F0004030904080B00020202010009C9
:1001900004000001020200000524001001052401F2
:1001A000010104240206052406000107058103104D
:1001B000004009040100020A000000070502024095
:1001C000000007058302400000000000000000005E
:1001D000002A2B28000000000000000000000000A2
:1001E0000000000000000000002C9EB4A0A1A2A40A
:1001F00034A6A7A5AE362D3738271E1F202122236F
:10020000242526B333B62EB7B89F84858687888980
:100210008A8B8C8D8E8F90919293949596979899C6
:100220009A9B9C9D2F3130A3AD3504050607080924
:100230000A0B0C0D0E0F10111213141516171819A6
:100240001A1B1C1DAFB1B0B5000904020001030068
:100250000000092101010001226500070584034017
:10026000000105010902A1010901A100850105099B
:1002700019012903150025019503750181029501D6
:100280007505810305010930093109381581257F7C
:10029000750895038106C0C005010906A101850204
:1002A000050719E029E71500250175019508810268
:1002B00095017508810395067508150025650507E4
:1002C000190029658100C0003C0A8A0B11241FBE59
:1002D000CFEFDAE0DEBFCDBF11E0A0E0B1E0E0EBB0
:1002E000FBE102C005900D92AE33B107D9F711E0E2
:1002F000AEE3B1E001C01D92A53BB107E1F712E00A
:10030000CCECD2E004C02297FE010E94D20DC83C82
:10031000D107C9F70E94D4050C94D60D0C940000A7
:1003200060E875E286E591E00E943B0A60E080911A
:100330003E010E946D0361E0809102010E946D0305
:1003400061E0809100010C946D030F931F93CF9394
:10035000DF9380913E010E94DC0325E0AC01249FE5
:10036000C001259F900D1124BC01882777FD809541
:10037000982F0E949B0C20E030E040E85AE30E9456
:100380004B0D2AE037ED43E25CE30E94000C209124
:1003900004013091050140910601509107010E942E
:1003A000980B6093400170934101809342019093B8
:1003B000430102E011E061E0F80180810E94A503A1
:1003C000C0E0D1E060E088810E94A50363E171E0B4
:1003D00086E591E00E94490440914001509141011D
:1003E000609142017091430122E030E086E591E0A6
:1003F0000E94D20569E171E086E591E00E946804FF
:1004000068EC70E080E090E00E948D0260E0F8010E
:1004100080810E94A50361E088810E94A50368ECA9
:1004200070E080E090E0DF91CF911F910F910C94EC
:100430008D021F920F920FB60F9211242F933F93AC
:100440008F939F93AF93BF93809144019091450107
:10045000A0914601B091470130914C01232F2D5FAF
:100460002D3720F40196A11DB11D05C0232F2A5759
:100470000296A11DB11D20934C01809344019093DD
:100480004501A0934601B0934701809148019091A6
:100490004901A0914A01B0914B010196A11DB11DE6
:1004A0008093480190934901A0934A01B0934B0176
:1004B000BF91AF919F918F913F912F910F900FBE60
:1004C0000F901F9018950F931F939FB7F89400916A
:1004D00048011091490120914A0130914B0186B5A4
:1004E000A89B06C08F3F21F00F5F1F4F2F4F3F4F3C
:1004F0009FBF322F212F102F0027080F111D211D04
:10050000311D42E0000F111F221F331F4A95D1F702
:10051000B801C9011F910F910895CF92DF92EF9218
:10052000FF92CF93DF936B017C010E946302EB018A
:100530000EC00E9463026C1B7D0B683E734038F056
:1005400081E0C81AD108E108F108C851DC4FC11494
:10055000D104E104F10469F7DF91CF91FF90EF90AE
:10056000DF90CF900895789484B5826084BD84B57F
:10057000816084BD85B5826085BD85B5816085BD9E
:10058000EEE6F0E0808181608083E1E8F0E01082B7
:10059000808182608083808181608083E0E8F0E0F8
:1005A000808181608083E1EBF0E0808184608083E2
:1005B000E0EBF0E0808181608083E1E9F0E0808120
:1005C00082608083808181608083E0E9F0E08081C7
:1005D00081608083E1ECF0E08081846080838081B1
:1005E00082608083808181608083E3ECF0E08081A1
:1005F00081608083E0ECF0E0808182608083E2ECC7
:10060000F0E0808181608083EAE7F0E080818460AF
:10061000808380818260808380818160808380810B
:100620008068808308958730A1F178F48330E1F009
:1006300030F4813019F1823009F04EC022C084308C
:10064000B9F0863009F048C020C08A3081F130F41A
:10065000883029F1893009F03FC025C08C3089F1FC
:1006600060F18E30C9F533C0809180008F7703C070
:10067000809180008F7D80938000089584B58F776E
:1006800002C084B58F7D84BD08958091B0008F77BE
:1006900003C08091B0008F7D8093B0000895809159
:1006A00090008F7707C0809190008F7D03C080916C
:1006B0009000877F8093900008958091C0008F778D
:1006C00003C08091C0008F7D8093C0000895809109
:1006D000C200877F8093C2000895CF93DF9390E09C
:1006E000FC01E853FF4F4491FC01EA51FF4F849114
:1006F000882341F190E0880F991FFC01EE5EFE4FC8
:1007000025913491D9018C5F9E4FFC018591949184
:10071000C82FD92F9FB7F8948C91611106C04095CE
:1007200084238C938881842308C0623041F4242F71
:10073000209582238C938881842B888302C0842B0C
:100740008C939FBFDF91CF9108950F931F93CF9309
:10075000DF931F92CDB7DEB7282F30E0F901E854C0
:10076000FF4F8491F901E853FF4F1491F901EA51C9
:10077000FF4F04910023D1F0882321F069830E9468
:1007800013036981E02FF0E0EE0FFF1FEC5FFE4FD7
:1007900085919491DC019FB7F8948C91611103C00D
:1007A0001095812301C0812B8C939FBF0F90DF9107
:1007B000CF911F910F910895823108F08251E82F57
:1007C000F0E0E455FF4FE49180917B00E3FB2227AA
:1007D00020F930E095E0220F331F9A95E1F78F7DE5
:1007E000822B80937B00E7708091080120E4829F38
:1007F000C0011124E82BE0937C0080917A00806492
:1008000080937A0080917A0086FDFCCF2091780059
:1008100030917900932F80E0AC01422B9A01C901FD
:100820000895CF92DF92EF92FF920F931F93CF9391
:10083000DF936C01EB017A01E60EF71E00E010E099
:100840000BC06991D601ED91FC910190F081E02DF2
:10085000C6010995080F191FCE15DF0591F7C801CC
:10086000DF91CF911F910F91FF90EF90DF90CF908C
:100870000895DB010D900020E9F7AD0141505109C9
:10088000461B570BDC01ED91FC910280F381E02DBA
:1008900009940C943904DC01ED91FC910190F081F4
:1008A000E02D09940F931F93CF93DF93EC016DE03C
:1008B0000E944B048C016AE0CE010E944B049C0113
:1008C000200F311FC901DF91CF911F910F91089522
:1008D0000F931F93CF93DF93EC010E9439048C0197
:1008E000CE010E9452049801280F391FC901DF91DF
:1008F000CF911F910F9108955F926F927F928F9287
:100900009F92AF92BF92CF92DF92EF92FF920F939E
:100910001F93CF93DF93CDB7DEB7A1970FB6F894AF
:10092000DEBF0FBECDBF3C016A017B01522E19A272
:1009300081E0821710F08AE0582E8E010F5D1F4F64
:10094000852C912CA12CB12CC701B601A5019401D5
:100950000E94AE0D8C2D529E801911240150110958
:100960008A3014F4805D01C0895CF80180836901DC
:100970007A01C114D104E104F10431F7B801C301D3
:100980000E943904A1960FB6F894DEBF0FBECDBF0A
:10099000DF91CF911F910F91FF90EF90DF90CF905B
:1009A000BF90AF909F908F907F906F905F900895D1
:1009B000CF92DF92EF92FF920F931F93CF93DF932B
:1009C000EC016A017B012115310579F4E881F98197
:1009D0000190F081E02D642FDF91CF911F910F9155
:1009E000FF90EF90DF90CF9009942A30310519F4F1
:1009F00077FD0EC02AE0B701A601CE01DF91CF91AD
:100A00001F910F91FF90EF90DF90CF900C947C049A
:100A10006DE20E944B048C0144275527BA014C1902
:100A20005D096E097F092AE0CE010E947C049C01C9
:100A3000200F311FC901DF91CF911F910F91FF90BE
:100A4000EF90DF90CF9008954F925F926F927F92D8
:100A50008F929F92AF92BF92CF92DF92EF92FF92CE
:100A60000F931F93CF933C014A015B01C22F20E0FB
:100A700030E0A901C501B4010E94FC0B87FF0AC048
:100A80006DE2C3010E944B042C01B7FAB094B7F891
:100A9000B09402C0412C512C10E060E070E080E086
:100AA0009FE307C020E030E040E251E40E94000CE8
:100AB0001F5F1C13F7CF262F372F482F592FC50143
:100AC000B4010E94980B962EA72EB82EC92E0E9414
:100AD0006D0CD62EE72EF82E192F0E94990C9B0133
:100AE000AC01692D7A2D8B2D9C2D0E94970BC62E63
:100AF000B72EA82E992E2AE04D2D5E2D6F2D712F29
:100B0000C3010E947C048C01040D151DCC23B9F196
:100B10006CE171E0C3010E943904080F191F2FC056
:100B200020E030E040E251E46C2D7B2D8A2D992DA0
:100B30000E944B0D4B015C01792D9B2D0E94680C8E
:100B40006B01EE24D7FCE094FE2C2AE030E0B701E4
:100B5000A601C3010E94D804080F191FC701B601DE
:100B60000E949B0C9B01AC01682D792D8A2D9B2D39
:100B70000E94970BC62EB72EA82E992EC150C111D8
:100B8000CFCFC801CF911F910F91FF90EF90DF90D1
:100B9000CF90BF90AF909F908F907F906F905F901D
:100BA0004F9008950C9424050E94B3028DE491E0C7
:100BB0000E9429090E949001C0E0D0E00E94A50196
:100BC0002097E1F30E940000F9CF05C02091F100C9
:100BD000FC012193CF016150C8F7289884E68093E7
:100BE000540108952FB7FC012083F8946770609337
:100BF000E9000895CF93DF931F92CDB7DEB7682F3A
:100C0000CE0101960E94F2058091F20099819FBF6A
:100C10000F90DF91CF910895FF920F931F93CF9381
:100C2000DF9300D0CDB7DEB7F62E8A019091530145
:100C30009923A9F057FF16C012C028988093540139
:100C40009091F1009193FE12F8CF4115510521F0DA
:100C50008091F2008823D1F089818FBF1BC04FEFB4
:100C60005FEF18C0682FCE0101967A830E94F205CB
:100C70008091F20090E0A8017A81801791070CF42E
:100C8000AC01EF2DF72FF40E84E6DDCF8BE68093D9
:100C9000E800E2CFCA010F900F90DF91CF911F9132
:100CA0000F91FF900895CF93DF931F92CDB7DEB7DA
:100CB00041E050E0BE016F5F7F4F0E940C0601973C
:100CC00019F4298130E002C02FEF3FEFC9010F90E6
:100CD000DF91CF910895CF93DF931F92CDB7DEB709
:100CE000682FCE0101960E94F2058091E80085FFF1
:100CF00005C09091F20080E4891B01C080E09981D9
:100D00009FBF0F90DF91CF9108956F927F928F9246
:100D10009F92AF92BF92CF92DF92EF92FF920F938A
:100D20001F93CF93DF931F92CDB7DEB7C82EA42EAB
:100D3000952E8091530181114CC02FEF3FEF64C07D
:100D40008C2D0E946B06D82E811109C0BA94A9F38C
:100D500061E070E080E090E00E948D0247C0282FA3
:100D600030E0021713070CF4D02E0D1911096C2D69
:100D7000CE0101960E94F205772041F002C0109248
:100D8000F100DA948FEFD812FACF17C08D2DC7FC7F
:100D900002C0F7010EC0970106C0F9012F5F3F4F57
:100DA000E491E093F1008150C0F705C091919093D8
:100DB000F1008150D8F7ED0CF11C8091E80085FF1F
:100DC00020C00115110511F461101BC089818FBF6E
:100DD0000DC07B01042F152F8AEFB82E90E2792EDB
:100DE0007C202AE3822E30E4632E6C20011511054D
:100DF00009F0A6CF5D9884E6809355012A2D392D00
:100E000003C08092E800E2CFC9010F90DF91CF913B
:100E10001F910F91FF90EF90DF90CF90BF90AF9018
:100E20009F908F907F906F9008951092E90010929C
:100E30005201109251019093500180934F010895F7
:100E4000FF920F931F93CF93DF939A01DB0160E032
:100E500070E0EEEFFE2E35C0ED01219687FF04C055
:100E6000FD01DE01E49102C0EC91DE01009151012F
:100E700010915201C0914F01D09150010C171D07E4
:100E8000ACF49091E8009570E1F39091E80092FD48
:100E90001DC0E093F100E0915101F09152013196B3
:100EA000EF73FF27EF2B11F4F092E800E09151016E
:100EB000F09152013196F0935201E09351016F5F2E
:100EC0007F4F6217730741F69A0102C02FEF3FEF81
:100ED000C901DF91CF911F910F91FF9008951F934A
:100EE000CF93DF931F92CDB7DEB7162F2091E80086
:100EF00022FFFCCF612F79830E94E5058BEF809361
:100F0000E800812F7981972F0F90DF91CF911F916A
:100F10000895CF93DF931F92CDB7DEB71982CE012C
:100F200001960E94D909CE0101960E94720A898118
:100F300090E00F90DF91CF9108951F920F920FB61E
:100F40000F921124EF92FF920F931F932F933F93D1
:100F50004F935F936F937F938F939F93AF93BF93C1
:100F6000EF93FF93CF93DF93CDB7DEB76297DEBFEA
:100F7000CDBF1092E9008091E80083FFE3C068E0F4
:100F8000CE010A960E94E50582EF8093E8009A85DB
:100F900097FF05C08091E80080FFFCCF03C08EEF73
:100FA0008093E800892F807609F0B1C08B8581118C
:100FB00003C01092F100BFC0813009F4BCC083307F
:100FC00009F4B9C0853049F48091E80080FFFCCF76
:100FD0008C8580688093E300AEC0863009F06FC0D6
:100FE0002D85E888F988223071F580E090E02A8B21
:100FF0000E9415070E94890799E08E010F5F1F4F1D
:10100000F801392F11923A95E9F799832A892A83B1
:1010100091E09E8390E898879AEF998720915101FB
:1010200030915201275F3F4F3C832B838D83C70153
:101030000E94150749E050E0B80180E00E942007B7
:101040000E94890778C0C7012A8B0E9415072A8948
:10105000223241F482E290E00E947D0A892B09F05D
:101060006AC06DC0213071F488899989089719F494
:1010700081E080934E0180914E01882389F065E2E2
:1010800071E016C0233009F05AC08C85882359F0CE
:10109000823061F0813009F052C069E471E008C02B
:1010A00067E371E005C063E871E002C061E671E0EA
:1010B000FB01449150E080E80E9420073CC087304B
:1010C00009F43DC0883021F481E08093F10033C001
:1010D000893089F5937099F5E1E2F1E081E021E052
:1010E00096E38093E9002093EB0034913093EC0079
:1010F0009093ED008F5F3196853099F78EE780935E
:10110000EA001092EA008C858093530114C088890C
:1011100099890E9415078E85811105C0CE010A9616
:101120000E94E40906C0823051F4CE010A960E9462
:10113000A50A882321F08EEF8093E80003C081E2A6
:101140008093EB0062960FB6F894DEBF0FBECDBF62
:10115000DF91CF91FF91EF91BF91AF919F918F91CF
:101160007F916F915F914F913F912F911F910F91BF
:10117000FF90EF900F900FBE0F901F9018958093E7
:10118000E9008091F200882319F08AE38093E80057
:1011900008951F920F920FB60F9211242F933F9331
:1011A0004F935F936F937F938F939F93AF93BF936F
:1011B000EF93FF938091E1001092E10083FF0FC055
:1011C0001092E90091E09093EB001092EC0092E312
:1011D0009093ED001092530198E09093F00082FFFD
:1011E00027C083E00E94BF0804C086E591E00E940A
:1011F000BB0982E00E94FA058111F7CF8091550169
:10120000882339F0809155018150809355018823BE
:1012100061F080915401882359F0809154018150EC
:1012200080935401882319F003C05D9AF2CF289A65
:10123000FF91EF91BF91AF919F918F917F916F91AE
:101240005F914F913F912F910F900FBE0F901F9084
:1012500018951092530181E08093D70080EA809323
:10126000D80082E189BD09B400FEFDCF61E070E0E5
:1012700080E090E00E948D0280E98093D8008CE0AD
:101280008093E2001092E000559A209A08952091F0
:10129000A4013091A5018091A6019091A701281B7E
:1012A000390B2F733327C90108952091A401309180
:1012B000A5018091A6019091A7012817390749F04F
:1012C000E091A601F091A701EC59FE4F208130E09A
:1012D00002C02FEF3FEFC90108952091A401309182
:1012E000A5018091A6019091A70128173907A1F0C7
:1012F000E091A601F091A701EC59FE4F2081809169
:10130000A6019091A70101968F7399279093A70149
:101310008093A60130E002C02FEF3FEFC90108958E
:101320000F931F93CF93DF931F92CDB7DEB78C013E
:10133000698380911001882369F041E050E0BE018B
:101340006F5F7F4F83E00E9485061816190614F41C
:101350009C0107C081E090E0F8019383828320E044
:1013600030E0C9010F90DF91CF911F910F91089547
:1013700083E00C94BF0882E00E9453062091A401F0
:101380003091A5012F5F3F4F2F7333274091A60166
:101390005091A7012417350759F0E091A401F0916D
:1013A000A501EC59FE4F80833093A5012093A40141
:1013B0000895FC0120812E5F208342E450E067E81D
:1013C00071E080E80C942007FC0181819081913AC2
:1013D00059F4813209F04BC047E050E069E071E018
:1013E00080E00E94200745C0913209F040C0803261
:1013F00039F467E070E089E091E00E946F0739C03E
:10140000823209F034C082818093100180910901F9
:1014100090910A01A0910B01B0910C01803B944086
:10142000A105B10531F58091100180FD12C087E75B
:1014300097E790930108809300082BE088E190E003
:101440000FB6F894A895809360000FBE20936000BB
:1014500010C088E10FB6F89480936000109260008D
:101460000FBEA895109201081092000802C080E0FB
:10147000089581E00895089510925901109258013D
:1014800088EE93E0A0E0B0E080935A0190935B0176
:10149000A0935C01B0935D0182E291E090935701CB
:1014A000809356010895FF920F931F93CF93DF937C
:1014B000EC01F62EE881F9810480F581E02D099593
:1014C0008C01E881F9810680F781E02D6F2DCE0136
:1014D000099598013327C901DF91CF911F910F9191
:1014E000FF900895FC0120812F5F208349E150E0A7
:1014F00069E472E080E80C94200745E650E062E67B
:1015000072E080E80C942007EF92FF920F931F93F4
:10151000CF93DF931F92CDB7DEB789838B017A011A
:1015200041E050E0BE016F5F7F4F84E00E9485067E
:10153000A701B80184E40E9485060F90DF91CF9146
:101540001F910F91FF90EF900895FC019181808190
:10155000813A31F481E0913091F0933091F010C0F4
:10156000813271F49B3021F482818093120105C095
:101570009A3031F482818093110181E008950895B9
:1015800080E0089548E050E082E00C94840AFC0179
:101590001682178210861186128613861482BC0169
:1015A0006C5F7F4F0C94C20AE62F683810F0E85841
:1015B00024C0F0E067FF12C0E058F10921E030E0FC
:1015C00001C0220FEA95EAF72095DC0114963C91C0
:1015D0001497322314963C93E0E00FC0E753FE4F7C
:1015E000E491EE2329F1E7FF08C0DC0114962C9169
:1015F00014972D7F14962C93EF7720E030E0EE23A4
:1016000051F0DC01A20FB31F16964C9116974E13A2
:1016100002C016961C922F5F3F4F2630310579F796
:10162000BC016C5F7F4F0E94C20A21E030E002C023
:1016300020E030E0C9010895CF93DF93DC01E62F6D
:10164000683810F0E85824C0F0E067FF11C0E05897
:10165000F10981E090E001C0880FEA95EAF714965D
:101660009C911497982B14969C931497E0E010C0CB
:10167000E753FE4FE491E11101C040C0E7FF08C00D
:1016800014968C911497826014968C931497EF772C
:1016900016968C9116978E1741F117968C91179785
:1016A0008E1719F118968C9118978E17F1F01996DC
:1016B0008C9119978E17C9F01A968C911A978E17DC
:1016C000A1F01B968C911B978E1779F080E090E02B
:1016D000ED01C80FD91F2E81211102C0EE8305C074
:1016E000019686309105A1F709C0BD016C5F7F4F5F
:1016F000CD010E94C20A21E030E008C081E090E004
:1017000013969C938E93129720E030E0C901DF91ED
:10171000CF9108951092B4011092AB011092AA01DA
:1017200084E391E09093A9018093A8010895505813
:10173000BB27AA270ED075C166D130F06BD120F03F
:1017400031F49F3F11F41EF45BC10EF4E095E7FB0A
:1017500051C1E92F77D180F3BA1762077307840765
:10176000950718F071F49EF58FC10EF4E0950B2EDD
:10177000BA2FA02D0B01B90190010C01CA01A001E3
:101780001124FF27591B99F0593F50F4503E68F13E
:101790001A16F040A22F232F342F4427585FF3CF7F
:1017A000469537952795A795F0405395C9F77EF450
:1017B0001F16BA0B620B730B840BBAF09150A1F099
:1017C000FF0FBB1F661F771F881FC2F70EC0BA0F1F
:1017D000621F731F841F48F4879577956795B795A7
:1017E000F7959E3F08F0B3CF9395880F08F099279F
:1017F000EE0F979587950895D9D008F481E0089564
:101800000CD00FC107D140F0FED030F021F45F3F83
:1018100019F0F0C0511139C1F3C014D198F39923D4
:10182000C9F35523B1F3951B550BBB27AA276217A4
:101830007307840738F09F5F5F4F220F331F441FE9
:10184000AA1FA9F333D00E2E3AF0E0E830D0915021
:101850005040E695001CCAF729D0FE2F27D0660F0E
:10186000771F881FBB1F261737074807AB07B0E84D
:1018700009F0BB0B802DBF01FF2793585F4F2AF063
:101880009E3F510568F0B6C000C15F3FECF3983E43
:10189000DCF3869577956795B795F7959F5FC9F7C0
:1018A000880F911D9695879597F90895E1E0660F49
:1018B000771F881FBB1F621773078407BA0720F0C2
:1018C000621B730B840BBA0BEE1F88F7E09508952B
:1018D00004D06894B111D9C00895BCD088F09F5746
:1018E00090F0B92F9927B751A0F0D1F0660F771F6C
:1018F000881F991F1AF0BA95C9F712C0B13081F04C
:10190000C3D0B1E00895C0C0672F782F8827B85F93
:1019100039F0B93FCCF3869577956795B395D9F7AC
:101920003EF490958095709561957F4F8F4F9F4FB6
:101930000895E89409C097FB3EF4909580957095C2
:1019400061957F4F8F4F9F4F9923A9F0F92F96E90B
:10195000BB279395F695879577956795B795F11180
:10196000F8CFFAF4BB0F11F460FF1BC06F5F7F4F1D
:101970008F4F9F4F16C0882311F096E911C077232F
:1019800021F09EE8872F762F05C0662371F096E838
:10199000862F70E060E02AF09A95660F771F881F07
:1019A000DAF7880F9695879597F90895990F0008AB
:1019B000550FAA0BE0E8FEEF16161706E807F90721
:1019C000C0F012161306E407F50798F0621B730BBC
:1019D000840B950B39F40A2661F0232B242B252B3D
:1019E00021F408950A2609F4A140A6958FEF811DE0
:1019F000811D089597F99F6780E870E060E0089581
:101A00009FEF80EC089500240A9416161706180616
:101A10000906089500240A941216130614060506F2
:101A20000895092E0394000C11F4882352F0BB0F83
:101A300040F4BF2B11F460FF04C06F5F7F4F8F4FE6
:101A40009F4F089557FD9058440F551F59F05F3F21
:101A500071F04795880F97FB991F61F09F3F79F0D0
:101A600087950895121613061406551FF2CF469552
:101A7000F1DF08C0161617061806991FF1CF8695D4
:101A80007105610508940895E894BB2766277727B8
:101A9000CB0197F908950BD0C4CFB5DF28F0BADF9A
:101AA00018F0952309F0A6CFABCF1124EECFCADFF3
:101AB000A0F3959FD1F3950F50E0551F629FF00161
:101AC000729FBB27F00DB11D639FAA27F00DB11DBA
:101AD000AA1F649F6627B00DA11D661F829F222743
:101AE000B00DA11D621F739FB00DA11D621F839FCA
:101AF000A00D611D221F749F3327A00D611D231FA0
:101B0000849F600D211D822F762F6A2F11249F57ED
:101B100050408AF0E1F088234AF0EE0FFF1FBB1F10
:101B2000661F771F881F91505040A9F79E3F5105AF
:101B300070F060CFAACF5F3FECF3983EDCF3869560
:101B400077956795B795F795E7959F5FC1F7FE2B5A
:101B5000880F911D9695879597F90895A1E21A2E01
:101B6000AA1BBB1BFD010DC0AA1FBB1FEE1FFF1F41
:101B7000A217B307E407F50720F0A21BB30BE40B91
:101B8000F50B661F771F881F991F1A9469F76095D8
:101B90007095809590959B01AC01BD01CF01089592
:101BA000EE0FFF1F0590F491E02D0994F894FFCFFC
:101BB00009000A0000005CC20100E1000000000012
:101BC00000010154656D703A002043002E000000B2
:101BD00000009009110447096D095509B809BB09AE
:0E1BE00000000000530A11041C0BD40AC70AAF
:00000001FF
