:100000000C9460010C9488010C9488010C94880174
:100010000C9488010C9488010C9488010C9488013C
:100020000C9488010C9488010C94AE070C94820601
:100030000C9488010C9488010C9488010C9488011C
:100040000C9488010C9488010C9488010C9488010C
:100050000C9488010C9488010C9488010C94DB02A8
:100060000C9488010C9488010C9488010C948801EC
:100070000C9488010C9488010C9488010C948801DC
:100080000C9488010C9488010C9488010C948801CC
:100090000C9488010C9488010C9488010C948801BC
:1000A0000C9488010C94B2020C948801040802019B
:1000B00010408040102040804080080204018040B1
:1000C00020100201108010204040040404040403A6
:1000D00004050202020204030202020206060606E8
:1000E00006060404020202040000000023002600A9
:1000F00029002C002F0000000000250028002B0004
:100100002E00310000000000240027002A002D00EE
:10011000300000C18081C112010002020000404194
:1001200023368000010102000112010002000000DC
:100130004041233680000101020001180341007292
:10014000006400750069006E006F0020004C004CD8
:100150000043002203410072006400750069006ED4
:10016000006F0020004C0065006F006E006100729F
:100170000064006F0004030904080B00020202017E
:10018000000904000001020200000524001001051E
:10019000240101010424020605240600010705814B
:1001A0000310004009040100020A000000070502D4
:1001B000024000000705830240000000000000002C
:1001C0000000002A2B2800000000000000000000B2
:1001D00000000000000000000000002C9EB4A0A160
:1001E000A2A434A6A7A5AE362D3738271E1F20217E
:1001F0002223242526B333B62EB7B89F848586875D
:1002000088898A8B8C8D8E8F9091929394959697F6
:1002100098999A9B9C9D2F3130A3AD350405060714
:1002200008090A0B0C0D0E0F1011121314151617D6
:1002300018191A1B1C1DAFB1B0B50009040200014A
:100240000300000009210101000122650007058467
:100250000340000105010902A1010901A100850176
:10026000050919012903150025019503750181026E
:10027000950175058103050109300931093815819A
:10028000257F750895038106C0C005010906A101F7
:100290008502050719E029E7150025017501950874
:1002A000810295017508810395067508150025657D
:1002B0000507190029658100C000B60121096F0AF0
:1002C00011241FBECFEFDAE0DEBFCDBF11E0A0E00A
:1002D000B1E0E4E7F5E102C005900D92A433B10767
:1002E000D9F711E0A4E3B1E001C01D92A93BB10729
:1002F000E1F712E0C0ECD2E004C02297FE010E94B8
:10030000B40ACA3BD107C9F70E94B9040C94B80AD1
:100310000C94000060E072EC8AE591E00C942009F6
:10032000CF93DF9362E370E080E090E00E944F03A0
:1003300084E391E00E948102EC016AE071E08AE5C9
:1003400091E00E941704CE0169E370E00E947C0AEC
:100350004AE050E08AE591E00E94B30461E171E077
:100360008AE591E0DF91CF910C94360428EC30E0DF
:1003700047E068E084E391E00C94BE01DC01862F45
:1003800090E0FC01E455FF4FE4911496EC93149730
:1003900050E0FA01E455FF4FE4911596EC93159760
:1003A000FC01E653FF4F849190E0880F991FFC01F8
:1003B000EA50FF4F6591749116966C9316971796B5
:1003C0007C931797FA01E653FF4FE491F0E0EE0FAC
:1003D000FF1FE851FF4F459154911A964C931A977D
:1003E0001B965C931B978C5F9E4FFC0185919491AB
:1003F00018968C93189719969C931997C901853F65
:1004000021E0920714F084EF91E049E3489F9001C6
:10041000499F300D1124C9014C961D969C938E93D3
:100420001C9708950F931F93CF93DF93EC01E885FA
:10043000F98580819C81892B8083EE81FF81908169
:100440008C8180958923808384E090E00E947503ED
:10045000EE81FF8180819C81892B80838AE090E0FE
:100460000E947503EE81FF8190818C8180958923A4
:100470008083E885F98590818C81809589238083AC
:100480000E942503605B794B8F4F9F4F6E877F875C
:10049000888B998BEA85FB8580819D818923B9F0C2
:1004A0000E9425030E851F8528893989061717079D
:1004B0002807390778F70BC00E9425030E851F8592
:1004C000288939890617170728073907A0F0EA8510
:1004D000FB8580819D81892379F30E9425032C85EA
:1004E0003D85620F731F811D911D6E877F87888BED
:1004F000998B81E001C080E0DF91CF911F910F9136
:1005000008950F931F93CF93DF93EC010E94120283
:10051000882339F0EA85FB8580819D81892321F438
:100520000FC020E030E018C00E9425030E851F8513
:1005300028893989061717072807390758F7F1CF8F
:100540000E9425032C853D85255031094E855F8508
:10055000241B350B260F371FC901DF91CF911F9147
:100560000F9108951F920F920FB60F9211242F939F
:100570003F934F935F936F937F938F939F93AF932B
:10058000BF93EF93FF93E0914601F09147013097BD
:1005900009F00995FF91EF91BF91AF919F918F91D4
:1005A0007F916F915F914F913F912F910F900FBE6F
:1005B0000F901F9018951F920F920FB60F92112453
:1005C0002F933F938F939F93AF93BF938091480155
:1005D00090914901A0914A01B0914B013091500195
:1005E000232F2D5F2D3720F40196A11DB11D05C0CD
:1005F000232F2A570296A11DB11D209350018093ED
:10060000480190934901A0934A01B0934B01809116
:100610004C0190914D01A0914E01B0914F01019676
:10062000A11DB11D80934C0190934D01A0934E01EB
:10063000B0934F01BF91AF919F918F913F912F91B7
:100640000F900FBE0F901F9018950F931F939FB799
:10065000F89400914C0110914D0120914E01309180
:100660004F0186B5A89B06C08F3F21F00F5F1F4F3B
:100670002F4F3F4F9FBF322F212F102F0027080FE2
:10068000111D211D311D42E0000F111F221F331FBC
:100690004A95D1F7B801C9011F910F910895CF92E2
:1006A000DF92EF92FF92CF93DF936B017C010E9468
:1006B0002503EB010EC00E9425036C1B7D0B683ED9
:1006C000734038F081E0C81AD108E108F108C85138
:1006D000DC4FC114D104E104F10469F7DF91CF913B
:1006E000FF90EF90DF90CF900895019739F0880F39
:1006F000991F880F991F02970197F1F70895789431
:1007000084B5826084BD84B5816084BD85B5826016
:1007100085BD85B5816085BDEEE6F0E080818160B4
:100720008083E1E8F0E010828081826080838081B4
:1007300081608083E0E8F0E0808181608083E1EB8C
:10074000F0E0808184608083E0EBF0E08081816074
:100750008083E1E9F0E08081826080838081816034
:100760008083E0E9F0E0808181608083E1ECF0E06B
:1007700080818460808380818260808380818160C9
:100780008083E3ECF0E0808181608083E0ECF0E046
:10079000808182608083E2ECF0E0808181608083F0
:1007A000EAE7F0E0808184608083808182608083DA
:1007B0008081816080838081806880830895CF926A
:1007C000DF92EF92FF920F931F93CF93DF936C0111
:1007D000EB017A01E60EF71E00E010E00BC0699114
:1007E000D601ED91FC910190F081E02DC6010995B3
:1007F000080F191FCE15DF0591F7C801DF91CF91C2
:100800001F910F91FF90EF90DF90CF900895DB0143
:100810000D900020E9F7AD0141505109461B570BDF
:10082000DC01ED91FC910280F381E02D09940C94A0
:100830000704DC01ED91FC910190F081E02D099419
:100840000F931F93CF93DF93EC016DE00E94190487
:100850008C016AE0CE010E9419049C01200F311F17
:10086000C901DF91CF911F910F9108950F931F93AD
:10087000CF93DF93EC010E9407048C01CE010E940C
:1008800020049801280F391FC901DF91CF911F91D2
:100890000F9108955F926F927F928F929F92AF9285
:1008A000BF92CF92DF92EF92FF920F931F93CF935D
:1008B000DF93CDB7DEB7A1970FB6F894DEBF0FBEBA
:1008C000CDBF3C016A017B01522E19A281E0821743
:1008D00010F08AE0582E8E010F5D1F4F852C912C51
:1008E000A12CB12CC701B601A50194010E94900A68
:1008F0008C2D529E80191124015011098A3014F454
:10090000805D01C0895CF801808369017A01C114AE
:10091000D104E104F10431F7B801C3010E940704D6
:10092000A1960FB6F894DEBF0FBECDBFDF91CF9179
:100930001F910F91FF90EF90DF90CF90BF90AF90FD
:100940009F908F907F906F905F9008952115310553
:1009500041F4DC01ED91FC910190F081E02D642FD8
:1009600009940C944A049A01AB0160E070E00C9485
:10097000A6040E947F0381E591E00E940E080E9478
:100980008A01C0E0D0E00E9490012097E1F30E942C
:100990000000F9CF05C02091F100FC012193CF01A7
:1009A0006150C8F7289884E68093580108952FB7BE
:1009B000FC012083F89467706093E9000895CF9359
:1009C000DF931F92CDB7DEB7682FCE0101960E944C
:1009D000D7048091F20099819FBF0F90DF91CF9152
:1009E0000895FF920F931F93CF93DF9300D0CDB75D
:1009F000DEB7F62E8A01909157019923A9F057FF8F
:100A000016C012C02898809358019091F1009193DC
:100A1000FE12F8CF4115510521F08091F200882394
:100A2000D1F089818FBF1BC04FEF5FEF18C0682FD7
:100A3000CE0101967A830E94D7048091F20090E063
:100A4000A8017A81801791070CF4AC01EF2DF72FE4
:100A5000F40E84E6DDCF8BE68093E800E2CFCA0196
:100A60000F900F90DF91CF911F910F91FF900895FC
:100A7000CF93DF931F92CDB7DEB741E050E0BE01C8
:100A80006F5F7F4F0E94F104019719F4298130E0D4
:100A900002C02FEF3FEFC9010F90DF91CF91089572
:100AA000CF93DF931F92CDB7DEB7682FCE010196AB
:100AB0000E94D7048091E80085FF05C09091F20064
:100AC00080E4891B01C080E099819FBF0F90DF9176
:100AD000CF9108956F927F928F929F92AF92BF9223
:100AE000CF92DF92EF92FF920F931F93CF93DF93FA
:100AF0001F92CDB7DEB7C82EA42E952E8091570138
:100B000081114CC02FEF3FEF64C08C2D0E94500527
:100B1000D82E811109C0BA94A9F361E070E080E099
:100B200090E00E944F0347C0282F30E002171307C0
:100B30000CF4D02E0D1911096C2DCE0101960E94D6
:100B4000D704772041F002C01092F100DA948FEFC1
:100B5000D812FACF17C08D2DC7FC02C0F7010EC006
:100B6000970106C0F9012F5F3F4FE491E093F10038
:100B70008150C0F705C091919093F1008150D8F752
:100B8000ED0CF11C8091E80085FF20C001151105D6
:100B900011F461101BC089818FBF0DC07B01042F30
:100BA000152F8AEFB82E90E2792E7C202AE3822E30
:100BB00030E4632E6C200115110509F0A6CF5D9875
:100BC00084E6809359012A2D392D03C08092E800D4
:100BD000E2CFC9010F90DF91CF911F910F91FF904C
:100BE000EF90DF90CF90BF90AF909F908F907F90CD
:100BF0006F9008951092E9001092560110925501DD
:100C000090935401809353010895FF920F931F9383
:100C1000CF93DF939A01DB0160E070E0EEEFFE2EF0
:100C200035C0ED01219687FF04C0FD01DE01E4918E
:100C300002C0EC91DE010091550110915601C09166
:100C40005301D09154010C171D07ACF49091E800AA
:100C50009570E1F39091E80092FD1DC0E093F100E2
:100C6000E0915501F09156013196EF73FF27EF2B7C
:100C700011F4F092E800E0915501F091560131969F
:100C8000F0935601E09355016F5F7F4F6217730732
:100C900041F69A0102C02FEF3FEFC901DF91CF91DA
:100CA0001F910F91FF9008951F93CF93DF931F9291
:100CB000CDB7DEB7162F2091E80022FFFCCF612FC1
:100CC00079830E94CA048BEF8093E800812F798199
:100CD000972F0F90DF91CF911F910895CF93DF93BE
:100CE0001F92CDB7DEB71982CE0101960E94BE08D1
:100CF000CE0101960E945709898190E00F90DF9103
:100D0000CF9108951F920F920FB60F921124EF9278
:100D1000FF920F931F932F933F934F935F936F9384
:100D20007F938F939F93AF93BF93EF93FF93CF9353
:100D3000DF93CDB7DEB76297DEBFCDBF1092E9007B
:100D40008091E80083FFE3C068E0CE010A960E942C
:100D5000CA0482EF8093E8009A8597FF05C08091CE
:100D6000E80080FFFCCF03C08EEF8093E800892F5E
:100D7000807609F0B1C08B85811103C01092F1001B
:100D8000BFC0813009F4BCC0833009F4B9C08530DC
:100D900049F48091E80080FFFCCF8C8580688093C7
:100DA000E300AEC0863009F06FC02D85E888F98871
:100DB000223071F580E090E02A8B0E94FA050E94B3
:100DC0006E0699E08E010F5F1F4FF801392F1192C7
:100DD0003A95E9F799832A892A8391E09E8390E8DE
:100DE00098879AEF99872091550130915601275F96
:100DF0003F4F3C832B838D83C7010E94FA0549E056
:100E000050E0B80180E00E9405060E946E0678C09E
:100E1000C7012A8B0E94FA052A89223241F482E214
:100E200090E00E946209892B09F06AC06DC02130F0
:100E300071F488899989089719F481E080935201A7
:100E400080915201882389F067E171E016C0233058
:100E500009F05AC08C85882359F0823061F08130C6
:100E600009F052C06BE371E008C069E271E005C0AF
:100E700065E771E002C063E571E0FB01449150E079
:100E800080E80E9405063CC0873009F43DC08830E8
:100E900021F481E08093F10033C0893089F59370AB
:100EA00099F5E3E1F1E081E021E096E38093E90048
:100EB0002093EB0034913093EC009093ED008F5F22
:100EC0003196853099F78EE78093EA001092EA0018
:100ED0008C858093570114C0888999890E94FA05EE
:100EE0008E85811105C0CE010A960E94C90806C0F0
:100EF000823051F4CE010A960E948A09882321F09B
:100F00008EEF8093E80003C081E28093EB0062964D
:100F10000FB6F894DEBF0FBECDBFDF91CF91FF912A
:100F2000EF91BF91AF919F918F917F916F915F9161
:100F30004F913F912F911F910F91FF90EF900F9044
:100F40000FBE0F901F9018958093E9008091F200DA
:100F5000882319F08AE38093E80008951F920F9286
:100F60000FB60F9211242F933F934F935F936F937C
:100F70007F938F939F93AF93BF93EF93FF93809152
:100F8000E1001092E10083FF0FC01092E90091E0B0
:100F90009093EB001092EC0092E39093ED0010928E
:100FA000570198E09093F00082FF27C083E00E94F1
:100FB000A40704C08AE591E00E94A00882E00E9494
:100FC000DF048111F7CF80915901882339F0809196
:100FD0005901815080935901882361F08091580113
:100FE000882359F0809158018150809358018823BB
:100FF00019F003C05D9AF2CF289AFF91EF91BF914B
:10100000AF919F918F917F916F915F914F913F91A0
:101010002F910F900FBE0F901F90189510925701AF
:1010200081E08093D70080EA8093D80082E189BD77
:1010300009B400FEFDCF61E070E080E090E00E9426
:101040004F0380E98093D8008CE08093E2001092F7
:10105000E000559A209A08952091A8013091A901A5
:101060008091AA019091AB01281B390B2F73332774
:10107000C90108952091A8013091A9018091AA0188
:101080009091AB012817390749F0E091AA01F0913E
:10109000AB01E859FE4F208130E002C02FEF3FEF57
:1010A000C90108952091A8013091A9018091AA0158
:1010B0009091AB0128173907A1F0E091AA01F091B6
:1010C000AB01E859FE4F20818091AA019091AB01BC
:1010D00001968F7399279093AB018093AA0130E01A
:1010E00002C02FEF3FEFC90108950F931F93CF93D5
:1010F000DF931F92CDB7DEB78C0169838091070122
:10110000882369F041E050E0BE016F5F7F4F83E0CC
:101110000E946A051816190614F49C0107C081E0A4
:1011200090E0F8019383828320E030E0C9010F90C2
:10113000DF91CF911F910F91089583E00C94A40744
:1011400082E00E9438052091A8013091A9012F5F0B
:101150003F4F2F7333274091AA015091AB012417C1
:10116000350759F0E091A801F091A901E859FE4F27
:1011700080833093A9012093A8010895FC01208168
:101180002E5F208342E450E069E771E080E80C9430
:101190000506FC0181819081913A59F4813209F070
:1011A0004BC047E050E060E071E080E00E9405063F
:1011B00045C0913209F040C0803239F467E070E0F8
:1011C00080E091E00E94540639C0823209F034C0B8
:1011D0008281809307018091000190910101A0918B
:1011E0000201B0910301803B9440A105B10531F5A6
:1011F0008091070180FD12C087E797E7909301086F
:10120000809300082BE088E190E00FB6F894A89551
:10121000809360000FBE2093600010C088E10FB67D
:10122000F89480936000109260000FBEA895109211
:1012300001081092000802C080E0089581E008953E
:10124000089510925D0110925C0188EE93E0A0E099
:10125000B0E080935E0190935F01A0936001B09332
:10126000610188E191E090935B0180935A010895B8
:10127000FF920F931F93CF93DF93EC01F62EE8813B
:10128000F9810480F581E02D09958C01E881F981CF
:101290000680F781E02D6F2DCE0109959801332747
:1012A000C901DF91CF911F910F91FF900895FC012B
:1012B00020812F5F208349E150E06BE372E080E8FA
:1012C0000C94050645E650E064E572E080E80C9475
:1012D0000506EF92FF920F931F93CF93DF931F9218
:1012E000CDB7DEB789838B017A0141E050E0BE01C2
:1012F0006F5F7F4F84E00E946A05A701B80184E414
:101300000E946A050F90DF91CF911F910F91FF907E
:10131000EF900895FC0191818081813A31F481E060
:10132000913091F0933091F010C0813271F49B3084
:1013300021F482818093090105C09A3031F48281C1
:101340008093080181E00895089580E0089548E0C1
:1013500050E082E00C946909FC0116821782108625
:101360001186128613861482BC016C5F7F4F0C9429
:10137000A709E62F683810F0E85824C0F0E067FFAE
:1013800012C0E058F10921E030E001C0220FEA95D7
:10139000EAF72095DC0114963C91149732231496B9
:1013A0003C93E0E00FC0E554FE4FE491EE2329F1B9
:1013B000E7FF08C0DC0114962C9114972D7F14963A
:1013C0002C93EF7720E030E0EE2351F0DC01A20F08
:1013D000B31F16964C9116974E1302C016961C9288
:1013E0002F5F3F4F2630310579F7BC016C5F7F4F8F
:1013F0000E94A70921E030E002C020E030E0C901EE
:101400000895CF93DF93DC01E62F683810F0E85899
:1014100024C0F0E067FF11C0E058F10981E090E0DE
:1014200001C0880FEA95EAF714969C911497982BBF
:1014300014969C931497E0E010C0E554FE4FE4919D
:10144000E11101C040C0E7FF08C014968C911497C9
:10145000826014968C931497EF7716968C9116975A
:101460008E1741F117968C9117978E1719F11896D0
:101470008C9118978E17F1F019968C9119978E17F9
:10148000C9F01A968C911A978E17A1F01B968C9121
:101490001B978E1779F080E090E0ED01C80FD91FFF
:1014A0002E81211102C0EE8305C001968630910580
:1014B000A1F709C0BD016C5F7F4FCD010E94A70954
:1014C00021E030E008C081E090E013969C938E9379
:1014D000129720E030E0C901DF91CF91089510927A
:1014E000B8011092AF011092AE018AE291E09093A0
:1014F000AD018093AC010895AA1BBB1B51E107C04D
:10150000AA1FBB1FA617B70710F0A61BB70B881F93
:10151000991F5A95A9F780959095BC01CD01089522
:10152000A1E21A2EAA1BBB1BFD010DC0AA1FBB1FE7
:10153000EE1FFF1FA217B307E407F50720F0A21B59
:10154000B30BE40BF50B661F771F881F991F1A94C6
:1015500069F760957095809590959B01AC01BD01F0
:10156000CF010895EE0FFF1F0590F491E02D09942F
:04157000F894FFCF1D
:1015740000E1000000000000010150696E673A209C
:1015840000636D00000000007508DF032C0852089A
:101594003A089D08A008000000003809DF03010A8A
:0415A400B909AC09CC
:00000001FF
